S02B0000433A5C55736572735C44616E5C417070446174615C4C6F63616C5C54656D705C61726475696E6F5F9D
S11304009791000093810119979400009384843498
S113041017940000130484C06F00C000230004007C
S113042013041400E31C94FE1794000013040495B1
S11304309794000093840495138900006F000001D1
S11304400325040013044400E7000500E31A94FEA6
S10B0450930009006F00401B3A
S1130458130101FF23248100138441AB138541ABAD
S1130468232611002322910023202101EF5010227A
S1130478938741D11304840023A087001384C1AC5B
S11304881305440023930700238407002300040072
S1130498EF00001AB77700009387C7F99304F0FFB9
S11304A82322F400230B94021305840323288402D3
S11304B8230A0402A30A0402EF0080171305440662
S11304C8EF0000179307F00F2318F4089307E0FFD1
S11304D82308F40093078000A30DF400230EF4000E
S11304E8B7770000938707CD2320F4029307C00150
S11304F8230CF400230AF400B73700009387C71BC2
S11305082328F40AB73700009387871E1307C0030C
S11305182324F40C930710002300940A231BE400FB
S11305282319E400231E0408230F0408A30F040856
S1130538A300040A2301040AA301040A2324040AC5
S11305482326040A232A040A232C040A232E040A31
S11305582320040C2322040C2326040C2328040C33
S1130568232A040C230C040CA30CF40C230D040CF4
S11305782300040E930400001304440E1309001608
S1130588330594009384C402EF00800AE39A24FF9D
S11305988320C1000324810083244100032901002E
S11305A8130101016780000037770000938701D2A7
S11305B81307873F23A0E7001307F0FF2386E7000C
S11305C813073000A38CE7001307100023A20700C9
S11305D823A407002397070023880700239907000B
S11305E8238A0700A38B0700238C070023AE070088
S11305F823A0070223A207022384E70267800000DE
S1130608130101FF2324810037040000232611006D
S113061813040400EF608036EF00C006EF00000703
S1130628E30E04FE97000000E780409D6FF01FFF73
S1130638B77700009387873F2320F5009307F0FFDF
S11306482306F50093073000A30CF5009307100068
S11306582322050023240500231705002308050089
S113066823190500230A0500A30B0500230C050024
S1130678232E050023200502232205022304F50264
S1130688678000001385C1AB6F504075130101FFEB
S113069823202101138541AB13058500232611006E
S11306A82324810023229100EF50402D630E050678
S11306B8EF50504B37940000EF50D037834704D99C
S11306C81307D0039387170093F7F70F9384C1ABED
S11306D8130404D96386E704138541AB2300F400AB
S11306E8EF50102D13850400EF5000758345040066
S11306F81385C1ACEF205043834504001385C1AC76
S1130708EF30100E032481008320C1000329010067
S11307181385040083244100130101016F50006311
S1130728930710006FF05FFB8320C100032481004E
S1130738832441000329010013010101678000009B
S1130748130101FA23206105232E1104232C8104AB
S1130758232A91042328210523263105232441052E
S113076823225105232E7103232C8103232A910369
S11307782328A1032326B1032324010123261101DD
S1130788138B060083460106630C0644930D070089
S11307981307F00F930B0500938A0500938C070049
S11307A8930400006394E60093840700034406005E
S11307B8B3898B00635630431307F00763427743CA
S11307C88346160033875601635CE0401307F00341
S11307D863485741130A260063840D00130B0A006B
S11307E813DD360093F67600B336D000330DDD0002
S11307F89305040013050D00EF60003A1319050171
S11308081359090163880C30930509001385040002
S1130818EF60803893040500330CAB00930509009E
S113082813850C00EF604037330AAA0063880D0073
S1130838B3079C00330AAA00338C270113D7FA4163
S1130848334957013309E9401377770033075701D0
S1130858137979001357374063DE0A00630C0900E3
S11308681307F7FF1317870193078000135787416E
S1130878338927419307000063DC0B0093D6FB41BF
S1130888B3C77601B387D7409397070193D7070176
S113089893F6F70F9305F007B304D44063D83501F2
S11308A8930400F8B3847441B384D4409306F0FFEE
S11308B893F4F40F130500006356D7001345F7FFAC
S11308C81375F50F137DFD0F937DF70F93068000C5
S11308D83307ED0063D8E600130D8000330DBD41E6
S11308E8137DFD0FB30DB50193FDFD0F939C8D0191
S11308F893DC8C413387770193997C00930504003A
S1130908B389E900330DAD402322F100EF60C0281C
S11309188327410093990901137DFD0FB387A7002D
S11309283306FA00330CFC008327810093D90901AC
S11309381307050093F717002322F10063820702C7
S11309489386F4FF3306D600B3079440B306DC005D
S113095863D40B00B307F0403306F600338CF6007B
S1130968832781002328E10013FA2700630A0A0277
S1130978930504001305FDFF2324C100EF60C02183
S113098803268100330CAC00032701013306A600BB
S113099863D80A003307E0403306E600330CEC0062
S11309A8338DAD0193178D0193D78741930A1000B6
S11309B8B39A2A01232AF100B3079440931B140025
S11309C8939A0A012324F100B3079400B30B7041EE
S11309D893DA0A01138D01DC2328F10083274101EE
S11309E86380FC20930D0000B386B90113940601BB
S11309F813F7FD0F135404016372971A8345060015
S1130A081308F00F63040B0003480C008327C1008C
S1130A186386070093C5F5FFB3F50501630A0A0663
S1130A2813D5450093954500B365B50093F5F50FC7
S1130A3813D7254013753703139725001377C70C6D
S1130A483367A70093551740131717001377A70A9E
S1130A5893F55505B365B700131748001377F70FD7
S1130A6813584840336807011357284013182800BF
S1130A781378C80C137737033367070113581740E3
S1130A8813171700137858051377A70A3368E80073
S1130A9813850A00232EC100232C0101EF60C00F27
S1130AA88327C10013170501930620001357070174
S1130AB8032881010326C1016396D70663CA0C0083
S1130AC83305A40183450500B345B7002300B500E9
S1130AD8630209029307600063CE97019306040832
S1130AE8B386A60183C50600135787003347B700AA
S1130AF82380E60083274100638C07081306F6FF6A
S1130B08130CFCFF138E1D00931D0E0193DD0D01C4
S1130B186FF09FED130C0B00E3820DD293070B00CB
S1130B286FF09FD19305080013850A00232EC10096
S1130B38232CE100EF6040061345F5FF131505016A
S1130B4813550501032781010326C10163CC0C0059
S1130B583308A40183450800B3F5A500B3E5E5000F
S1130B682300B800E30809F893076000E3C497F981
S1130B7893060408B386A60183C5060013558500A9
S1130B881357870033F5A5003367E5006FF05FF668
S1130B9813061600130C1C006FF0DFF683274100C0
S1130BA893881C00939C880193DC8C41638607021C
S1130BB8832701013306F600330CFC0063060A00A0
S1130BC833067601330C7C0193890908939909014A
S1130BD893D909016FF09FE0832781006FF09FFD8F
S1130BE88320C105032481058324410503290105C4
S1130BF88329C104032A8104832A4104032B0104A1
S1130C08832BC103032C8103832C4103032D01038C
S1130C18832DC1021301010667800000130101FF3F
S1130C28232481002322910023202101232611005B
S1130C38834725021304050013890500930406005D
S1130C486396070C930520001305F0FFEF50904FAF
S1130C58A30AA400930520001305F0FFEF50904E5B
S1130C68230BA4008327440137070001130707F067
S1130C78B3F7E700638A0716834774011306F0067F
S1130C880305E4003306F64013168601135686411D
S1130C9893051000EF401045834784011306F003C1
S1130CA82317A4003306F64003050401131686012E
S1130CB81356864193051000EF40D0429387E40110
S1130CC82308A4002301F4028317E9000317E400AE
S1130CD81305F00FB3A7E7000347C4002302F40287
S1130CE89307B0006318F700930710006394F400A7
S1130CF8130570008320C10003248100832441006C
S1130D08032901001301010167800000830505011F
S1130D180315E50013068000EF40D03FE31405F205
S1130D280347C4009307B0006318F70003070401DE
S1130D3893071001E3C8E7F09305500013850400F6
S1130D48EF5010531375F50FE31005F88347240289
S1130D580316E400830604019387F7FF2301F402D2
S1130D680347640183075401831524013387E6008C
S1130D78B307F600939707011317870193D7074121
S1130D88135787416396C500830544016386D500DC
S1130D982319C400230AD400831524012317F4005B
S1130DA82308E40003064401830694016394B7040A
S1130DB8931706011317070193D7074113570741E0
S1130DC86388E700930630006354F7009306200015
S1130DD80347340293071000A30CD400B387E740F9
S1130DE8A301F4026FF05FEE93071000230BF400E5
S1130DF86FF09FE8B3A7B70093C617006FF05FFDC5
S1130E080387150283C7C500634AE000130710006F
S1130E18638AE7001305F00F6780000013071000CA
S1130E286394E70023810502130101FF2324810051
S1130E382326110083470502130405009387F7FF4F
S1130E489397870193D787412300F502639E07028E
S1130E580347C5009307B000631AF7009305F00F22
S1130E681385C1ACEF20C02DEF40C0569307F0FFA7
S1130E782306F4001305D00F8320C1000324810046
S1130E881301010167800000EF10905B9307400194
S1130E98A302F4021305F00F6FF01FFE130101FE05
S1130EA8232C8100232A9100130405009384050050
S1130EB8130500009305D0032326C100232E110037
S1130EC8EF5050280326C100631EA6001306100025
S1130ED89385040013050400EF10104A9307A0102B
S1130EE82311F40283472402638C07009387F7FFD6
S1130EF893F7F70F2301F40263940700A301040294
S1130F088320C10103248101832441011305F00FC7
S1130F181301010267800000130101FF232021014E
S1130F28232611002324810023229100137916001B
S1130F386312091493840500130405009305300013
S1130F4813050600EF50D0321375F50F93072000F0
S1130F586302F512834624021307A0006396E60091
S1130F68A30C24012301F4020315E400830694016D
S1130F78830504019317050193D70701639C0610A1
S1130F889387F7FF034824029397070113970501F2
S1130F981306200093D70741135707016310C8109D
S1130FA81307F7FF13170701831824011357074181
S1130FB813168701135686416396A80083084401D3
S1130FC86386B8002319A400230AB4000315240176
S1130FD82317F4002308C400830544016394A70C71
S1130FE8939805011316060193D808411356064130
S1130FF86388C800930630006354160193062000E2
S113100813170701A30CD4001357070193081003FF
S11310181306000063FAE80013075000330707417A
S11310282301E4021306100013970701135707015D
S113103813081006637AE80013071000B306D740B4
S1131048A30CD400130610000397E400B3A7E70029
S11310582302F402630606002317A4002308B4003D
S11310689305200313050000EF50D00D930760008B
S1131078630405009307F00F8320C1000324810053
S1131088832441000329010013850700130101018A
S113109867800000938717006FF0DFEE13071700CF
S11310A86FF05FF0B3A6A70093C616006FF05FF564
S11310B883070502639607001305F00F6780000095
S11310C883472502638207029387F7FF93F7F70F95
S11310D82301F5021307B003E390E7FE9307C00367
S11310E8A302F5026FF05FFD37750000130101FFDD
S11310F8130545F023261100EF50801F37750000B3
S1131108130545EDEF50C00D8320C10013052001E0
S11311181301010167800000130101FE232C8100E3
S1131128232A910023263101232E1100232821018B
S1131138034725029307400113040500930406009E
S11311488399E500038905016316F70483879501EC
S113115823173501A30CF5009307A9FF2308F5000D
S113116837750000130545F6EF50801837750000F1
S1131178130545F3EF50C0069387C1AC03C7070EA8
S1131188930750006318F700930500001385C1AC5A
S1131198EF20402903070401034624028317E400CF
S11311A89316070193D60641630206081306F6FF51
S11311B82301C40203069401930510006304B606D0
S11311C863CEC50263080604130504002317F4005C
S11311D82308D40093850400EF10903B8320C101B9
S11311E80324810183244101032901018329C100C6
S11311F81305F00F13010102678000009305200016
S11312086304B60693053000E310B6FC13073700F1
S11312186F00C0059387D7FF9397070193D70741BA
S11312286FF09FFA938737006FF01FFF3386F940FA
S1131238130626009305400063EEC5003306E94013
S11312481306260063E8C5001307F0FF2306E4002D
S11312586FF09FF763D2F9029387D7FF939707013B
S113126893D707416350E9021307D7FF9316070181
S113127893D606416FF05FF5E3D637FF93873700BF
S11312886FF0DFFDE34427F96FF01FF483C7C5004F
S1131298130830001387E7FF1377F70F636CE80030
S11312A8638A0701832706001305060003A3870042
S11312B8670003009387A7FF93F7F70F13077000DE
S11312C86364F700230105021305F00F678000002B
S11312D80347250293074001631EF704130101FF26
S11312E823248100232291002326110023010502CF
S11312F81304050093840500EF10500F63000502E2
S11313088397E400034784012317F40083C7040187
S11313189387F7FFB387E7402308F4008320C100CD
S113132803248100832441001305F00F13010101F4
S1131338678000001305F00F6780000083C7C500AD
S1131348130101FF23248100232611001307200120
S113135813040500638CE7008346C5001307C00027
S1131368638AE606038715026356E00603475402B8
S1131378631207068347040203C71502B387E740CD
S11313889397870193D787412300F4026348F002B7
S11313980347C4009307C0006314F700EF408003B9
S11313A89307F0FF2306F4001305D00F8320C10030
S11313B80324810013010101678000001305040060
S11313C8EF10100893074001A302F4021305F00F6D
S11313D86FF0DFFD130710001305F00FE398E7FC27
S11313E8930740062303F4026FF05FFC834725024A
S11313F8130740016398E700034785011307570063
S1131408230CE500A302C502A3010502638E0700AD
S11314189387F7FF137636002301F5022302C502EA
S11314281305F00F678000009307F0FF2306F5000B
S11314386FF01FFF130101FE232E11002326A100C4
S1131448EF3050790325C1009307F0FF2306F50018
S11314588320C10113854180130101026F40505854
S113146883C6C5001307E00F6394E606130101FF62
S1131478232611008347C5001307F0006394E7028D
S11314889387C1D403C7D700B387E700038737001E
S11314986358E0021307F7FFA381E700EFF09FF911
S11314A86F00000213070001639CE7009387C1D40F
S11314B803C7D700B387E70083878700E340F0FEBC
S11314C88320C1001305F00F130101016780000098
S11314D81305F00F67800000130101FE2328210182
S11314E8232C81002324410113040500138A0500D9
S11314F893050500138501D2232A9100232631017F
S113150823206101232E110023225101130B06000D
S1131518EF10C05203C7A18093072000938901D21A
S11315289384A1806310F70203C7C9009307F00FDF
S1131538631AF700930740002380F4009307E0013F
S11315482301F40283C70400930A1000638A570B2B
S1131558638A070413073000638EE70A9306400082
S1131568639ED700834724029387F7FF93F7F70F07
S11315782301F402639407002380E4008347640290
S11315882302040283C6C9006398070003C6040043
S113159813074000631AE61293077000A301F402CC
S11315A86F00C0139305300013050B00EF50404C37
S11315B81375F50F631A55011306100093050A00F5
S11315C813050400EF10405B0317EA008317E400D7
S11315D8B387E740938777011307E002E360F7FADC
S11315E88307040183060A01B387D74093877701E9
S11315F8E366F7F8930710002380F4006FF01FF8F0
S113160893050000138501D2EF30900C9307200056
S11316186FF09FFE9305500613050000EF508032CB
S1131628131905019305300313050000EF508031A9
S11316388317E4000317240113158501135909417D
S1131648135585416318F700830644010307040111
S11316586388E6002319F40083470401230AF4008D
S113166883162401231724012308A4000307440133
S1131678830794016314D90413170701131505018B
S113168813570741135505416308A7009307200022
S11316986344E50093073000A30CF4009305D003DA
S11316A813054001EF50002A1375F50F2303A40214
S11316B8A302A402238004006FF05FEC3329D9004D
S11316C8934719006FF05FFD030794011306100098
S11316D86302C706634AE602630807048320C1015C
S11316E80324810183244101032901018329C100C1
S11316F8032A8100832A4100032B01001305F00FFC
S11317081301010267800000930720006300F704B7
S113171893073000E314F7FC93076000E38006E8BE
S1131728930730006FF09FE7E39A06E693074000BB
S11317386FF0DFE66394060093074000A301F40208
S1131748930710002302F4026FF05FF99307500027
S1131758E38606E4930720006FF05FE4130101FFBA
S1131768232481002326110083C7C5001307100111
S1131778130405006394E702930740062301F50266
S1131788130740002385E1808320C10003248100DE
S11317981305F00F1301010167800000E39607FEAB
S11317A803C7A18093074000E310F7FE834755025F
S11317B8E39C07FC834705029387F7FF2300F502A0
S11317C893074006A302F502EF108047830704023B
S11317D8E39C07FA9307F0FF2306F4002386F1D26B
S11317E86FF09FFA130101FD23248102232C410188
S11317F8232611022322910223202103232E3101BF
S1131808232A51011304050003455502138A0500D0
S1131818630C050093053000EF5080251375F50F10
S113182893071000630AF514834714036386070AB1
S1131838834624030306A40203C891D513972600FC
S1131848B77600009386062CB386E60093D7370054
S11318581306A6FF3306F60083A606008305940242
S1131868131606019307000013070000333800011C
S113187813560641138541D1EF30901593070000A4
S113188813072000030604018355E400032481029E
S11318988320C102832441028329C101032A8101CF
S11318A8832A4101130686FF9385C5FF138541D119
S11318B803290102B7760000131606019395050162
S11318C8130800009386C6021356064193D50541B2
S11318D8130101036F30D00F83470404834A0403C0
S11318E893041000638E07008347C406130710008F
S11318F89304000093F7F70E6394E70093C41A0067
S1131908830994019305300013850900EF50C0281A
S1131918B7770000330595009387472F3385A700D1
S113192893B4140003470500330595008347150055
S1131938E38A0AF49305600013050A002326F100DC
S11319482324E100EF5000121375150003278100CA
S11319588327C100E31805F293F9F90F93061000E1
S113196863E83601130717001377F70F6FF09FF139
S1131978930710006FF01FF18320C1020324810232
S113198883244102032901028329C101032A810115
S1131998832A41011301010367800000834775010D
S11319A883468501130700043307F74093070002B1
S11319B8B387D7409397870193D78741230AF500C4
S11319C82308F50093073000A30CF50093072000C3
S11319D82300F5029307F00F2316F5089307F0FF89
S11319E82300F5042306F5068387E1D42319E500CB
S11319F82317E500A3020502A30805026356F000B5
S1131A08930710002306F508678000008387D1D464
S1131A1863820704034705049307F00F631CF70266
S1131A28130101FF93050000130545032326110044
S1131A38EF30004A377500001305C533EF40500BEB
S1131A488320C100377500001305C5321301010155
S1131A586F400079678000008347C5061307F00FBD
S1131A686392E7088345C508638EF506930720004B
S1131A786392F5068347D508638607069387F7FFBD
S1131A88A306F508130101FF2324810013040500AC
S1131A981305050623261100EF3080430347C408C5
S1131AA8930720006310F702930710002300F4083B
S1131AB88357E4002317F406834704019387C7FF79
S1131AC82308F4068320C1000324810013010101C3
S1131AD86780000093073000E396F5FA9305100138
S1131AE86FF05FFA6780000083475502638607003A
S1131AF89387F7FFA302F50283471503638A070058
S1131B089387F7FFA308F5021305F00F6780000019
S1131B18130101FE232C81002328210123263101EE
S1131B28232E1100232A9100130405000319E5004C
S1131B3883040501930540001385C1ABEF40002DD4
S1131B486318051293940401930580001385C1ABAF
S1131B5893D40441EF40802B630805009384E4FF89
S1131B689394040193D40441930520001385C1ABD5
S1131B78EF40C029630805001309E9FF1319090197
S1131B8813590941930510001385C1ABEF40002890
S1131B986308050013092900131909011359094198
S1131BA8930500011385C1ABEF40002C63060500C3
S1131BB813050400EFF09FE5930500021385C1ABFC
S1131BC8EF40802A6306050013050400EFF0DFE800
S1131BD88347040423080402638C07060317E400FC
S1131BE8830704016314270163849706930610008E
S1131BF82308D402831624019394840193D4844142
S1131C086396E600830644016386F6002319E4001C
S1131C18230AF400831624012317240123089400BB
S1131C2803074401830794016318D90413170701B0
S1131C38939404011357074193D40441630897000C
S1131C489307300063D4E40093072000A30CF40046
S1131C588320C10103248101832441010329010153
S1131C688329C1001305F00F1301010267800000E6
S1131C78938424006FF01FED3329D900934719008A
S1131C886FF0DFFC8387050103070501938777005D
S1131C9863D4E72283C7350263900722130101FE48
S1131CA8232C8100232A9100232E1100930710006E
S1131CB8A381F5029307C003A308F50283C7E500CF
S1131CC8130405009384050093872700A304F502F1
S1131CD883C70501938767FF2305F5020325C5021A
S1131CE8930760000347050E6310F70AEF10C06AF4
S1131CF893075000630C050893071000631CF50252
S1131D08377500001305C531EF40805E3775000054
S1131D181305C530EF40C04C930780002309F40233
S1131D288320C10103248101832441011301010299
S1131D3867800000930770002309F4021385C181AA
S1131D48EF40004A83070402130700006358F000B9
S1131D589387F7FF139787011357874113050400E7
S1131D682300E4021386040093050400EF00506D79
S1131D780325C402032481018320C1018324410172
S1131D88130101026F10C06783C705022309F40217
S1131D988347240313072000639AE70613073000D8
S1131DA8A306E408930500001387F7FF1377F70FDA
S1131DB89306200063EAE6061387C1D48346270006
S1131DC82306F408938616002301D700B77600008B
S1131DD813972700938606303387E6008325C7FFC9
S1131DE8130760006396E7069387C1D403C7D70037
S1131DF8B775000093850524B387E70003C78700F8
S1131E08130717002384E7006F008004930500007C
S1131E18E39C07F893061000B7750000A386D1D495
S1131E28938585006FF05FF8130740006390E70619
S1131E3883C7C1D4B77500009385452E93871700CF
S1131E489397870193D787412386F1D42300F4021B
S1131E58377500001305C5312326B100EF4040490A
S1131E68377500001305C530EF408037EF308056D2
S1131E780325C402032481018325C1008320C101F1
S1131E8883244101130101026F20400F13075000FE
S1131E98E398E7F49387C1D403C7D700B775000064
S1131EA8938585FAB387E70003C73700130717003C
S1131EB8A381E7006FF0DFF967800000130101FFD9
S1131EC823248100232611002322910003C7C5007F
S1131ED893073000130405006318F702835725019C
S1131EE82317F500834745012308F500EFF09FD930
S1131EF88320C10003248100832441001305F00FCB
S1131F08130101016780000083871502938405008B
S1131F18638A0702834755026396070283470502CB
S1131F2813860500930505009387F7FF2300F50240
S1131F38EF0010511385C181EF40802A9307E00117
S1131F48A302F40203C7C400930740006316F70210
S1131F589307F0FF2386F400830704020387C1D4A0
S1131F68938717006354F700930707002300F402CC
S1131F7813854181EF40C02603C7C400930720009E
S1131F886316F7029307F0FF2386F4008347D40807
S1131F98130730006374F700930730009387370002
S1131FA8A306F40813854181EF40802303C7C400C6
S1131FB893075000E31EF7F29307F0FF2386F4001B
S1131FC89387C1D403C7D700B387E70003C7370093
S1131FD813071700A381E700EF30C03F37750000EF
S1131FE81305C531EF40C030377500001305C530FF
S1131FF8EF40001F0325C402B7750000938585FAD6
S1132008EF10D0776FF0DFEE83C7C5001307E00F3A
S11320186390E70283D725011307F00F2397F50090
S113202883C745012388F50013050700678000006E
S1132038638C07009387F7FE93F7F70F9306100056
S11320481307F00FE3E2F6FE9307F0FF2306F5000B
S1132058830705021307D00FE358F0FC13F7F70FB3
S11320686FF09FFC130101FE232C8100232E110025
S11320780347250293074001130405006314F70678
S1132088838795010387050183D5E5009396270087
S1132098B77700009387C734B387D70083860700D0
S11320A82326C100B386B6002317D50083C61700BC
S11320B83307D7002308E50003C72700A30AE50070
S11320C883C73700230BF500377500001305C5389F
S11320D8EF400022377500001305C535EF40401066
S11320E80326C100830654010357E40083472402EE
S11320F8A302C4023307D7002317E400834664010C
S1132108034704019387F7FF93F7F70F3307D700C3
S11321182301F4022308E400639607009307F0FF01
S11321282306F4008320C101032481011305F00F61
S1132138130101026780000003C7C500930720014B
S11321486314F704130101FF2326110023248100DB
S113215823000502232E050013040500EF30802711
S11321680345E4008345040103C681A893060000DF
S1132178EF30804A8320C100032481001305F00F47
S113218813010101678000001305F00F6780000048
S1132198130101FF2322910083C491D523248100D4
S11321A8130405009384140093F4F40F9385040036
S11321B81305E00123202101232611001309060039
S11321C8EF4050039305050013050900EF40D008BC
S11321D8631A05000347440293071000B387E740D6
S11321E82302F4029305500013050900EF40500838
S11321F81375F50F631205148347240263900706C9
S11322089385040013050001EF40C07E2301A40256
S11322189305500013050000EF40C0721375F50FC5
S113222837790000131515001309C93B3309A900B0
S11322388345090013850400EF401016A30AA4007F
S11322488347290083451900138504009397870061
S1132258B3E5B700EF405014230BA40083472402CE
S11322681306E0060345E4009387F7FF2301F4020D
S113227883477401930520003306F64083475401CD
S113228813168601135686413305F5001315850187
S113229813558541EF300065834784011306E00335
S11322A8931405013306F64003450401834764018A
S11322B813168601135686413305F5001315850157
S11322C89305200013558541EF30C0618317E4005E
S11322D8031724011315850193D40441135585412B
S11322E86318F70083064401030704016388E600C2
S11322F82319F40083470401230AF40083162401F4
S1132308231794002308A4000307440183079401B6
S11323186392D404131707011315050113570741D2
S1132328135505416308A700930720006344E5009B
S113233893073000A30CF4008320C1000324810018
S113234883244100032901001305F00F130101013F
S113235867800000B3A4D40093C714006FF09FFDF6
S113236893773600639E071A130101FF2326110091
S113237823248100232291002320210103472502DD
S11323889307B0006318F70093071000A30AF50039
S113239823010502834625028317E5000307050187
S11323A8639E060283065501638A06028396E50046
S11323B863D6D7021388C7006342D8029306100075
S11323C82301D502A30A0500838505019306D0FFDE
S11323D863C4E50093063000230BD50013040500FD
S11323E89375F70F13F5F70F93040600EF30001EEB
S11323F813090500830504010315E400130680008E
S1132408EF304051631805001379D90F9307400042
S1132418631AF902835724018346240203075401EB
S11324282317F400834744012308F4008307640155
S11324386396060C3307E040B307F040A30AE400B0
S1132448230BF4000316E4008307540183060401F4
S11324580347640183152401B307F6003387E600B4
S1132468939707011317870193D707411357874198
S11324786396C500830544016386D5002319C40007
S1132488230AD400831524012317F4002308E40045
S11324980306440183069401639EB7069317060155
S11324A81317070193D70741135707416388E700B8
S11324B8930630006354F700930620009387418203
S11324C8A30CD400B387D70083C707001385F4FF90
S11324D89305E0012302F402EF40C051A301A402D2
S11324E88320C100032481008324410003290100BF
S11324F81305F00F1301010167800000133717005B
S113250893B71700A30AE400230BF4002301040281
S11325186FF05FF3B3A7B70093C617006FF01FFA05
S11325281305F00F6780000013761600630A060689
S1132538034725029307B0006318F7002301050237
S113254823000502230B0500830605010307050282
S11325581306100093F7F60F6308C7041308200046
S1132568630A0707631807028395E5000317E50064
S113257863C2E50213078700634EB7002300C50250
S11325881306F0011307E0FF6344D6001307200085
S1132598230BE50003476501B387E7002308F5002B
S11325A81305F00F678000001387F7FF1377F70F01
S11325B893066003E3F0E6FE830665011307200033
S11325C82300E50213071000E354D0FC1307F0FFBF
S11325D86FF01FFC1387F7FF1377F70F9306600359
S11325E8E3FAE6FA23000502230B05006FF09FFACD
S11325F80307050293071000631CF70483C7C5008B
S11326089306E00F6386D700930690006392D7047D
S1132618930620002300D502830665016354D00085
S11326281307F0FF230BE500130790006392E702FA
S1132638130101FF1385818223261100EF30503ADC
S11326488320C1001305F00F130101016780000006
S11326581305F00F67800000834745021307100035
S1132668638EE70883C7C5006376F7001307100174
S11326786396E708130101FF2324810093071000E0
S113268823261100232291002302F50213850183D6
S113269813840500EF30D0340347C40093071000B7
S11326A81385C1AC6312F7049384C1AC03C7040E49
S11326B893075000631AF702EF104076630A050087
S11326C8930550001385C1ACEF10007C2380040EE1
S11326D88320C10003248100832441001305F00FE3
S11326E81301010167800000EF0010239305F00F28
S11326F81385C1ACEF00D0246FF09FFD1305F00FD4
S11327086780000083869501130610000397E5008F
S113271883870501638AC6066346D602638806046E
S1132728834725029387F7FF93F7F70F2301F502F1
S1132738639607009307F0FF2306F5001305F00FCF
S11327486780000093052000638EB604930530006B
S1132758E398B6FC1307F7FF938767002317E50090
S11327682308F500A301C5026F0080011307E7FEE3
S11327789387C7FF2317E5002308F500A301050283
S1132788230205026FF0DFF91307B7009387C7FF29
S11327982317E5002308F500A30105022302D50247
S11327A86FF01FF81307B7FF9387A7FE2317E500F9
S11327B82308F500A301C5026FF05FFE8307050235
S11327C86396070013761600A301C5021305F00FDC
S11327D86780000083C7C5001307E00F639EE70006
S11327E883D725012397F50083C745012388F5007E
S11327F81305F00F6780000013071001E39AE7FE42
S113280883070502E38607FE130101FF23248100E1
S1132818232611009387C1AC2300050203C7070EC2
S1132828930770006310F7021385C1ACEF10406280
S1132838630A05001385C1ACEF00100E138581836C
S1132848EF30101A8320C100032481001305F00F10
S113285813010101678000008307050263960706D8
S1132868130101FF232481001304050013850500C7
S11328789305040023261100EF0040376316050270
S11328880347740193078000630AF702B7770000CF
S11328989387C73D232EF400930710002300F40206
S11328A813850184EF30D0138320C10003248100F1
S11328B81305F00F1301010167800000B7770000CA
S11328C89387873C6FF01FFD1305F00F67800000A6
S11328D803C7C5009307E00F631EF70083070502CB
S11328E8638A070083D725012397F50083C7450129
S11328F82388F5001305F00F6780000083C791D57E
S1132908130101FF232481002322910023261100AF
S1132918232021011304050093040000638C07009D
S11329280347C50093077000930410006314F7006D
S113293893042000034774026308070293F7150001
S1132948030604018315E4001307F7FFB7760000B4
S1132958A303E40213880400130700009386464087
S1132968138541D1EF20D0060349C4009307F00F23
S11329786304F906034554026310050403488402FA
S11329888315E400030604018326C40103473402C3
S113299883474402631E0804032481008320C10082
S11329A8032901001388040083244100138541D1BD
S11329B8130101016F20007C1305F5FF1375F50F52
S11329C8A302A40293053000EF40800A1375F50FA3
S11329D893071000E314F5FA8320C100032481004F
S11329E883244100032901001301010167800000C9
S11329F81308D000631E09031308C0FF930880FF5F
S1132A0803248100B38505018320C1000329010043
S1132A1813880400832441009395050133061601A5
S1132A2893D50541138541D1130101016F20407AE3
S1132A3813080000930800006FF09FFC8347C5004B
S1132A489306F00F638CD70083476502638C0700F5
S1132A589387F7FF2303F5029307F00F1385070005
S1132A686780000003234500E30803FE67000300B2
S1132A78130101FF2322910023261100232481003E
S1132A888347C5009304F00F638E9704832685005B
S1132A98130405009307F00F63860604E780060015
S1132AA80347C40093070500631697001307A000A3
S1132AB8A303E4021307D00F6396E7028385E1D4E6
S1132AC89307100013050000B3A5B70093852500EC
S1132AD8EF3050679377F50F138581843305F5003C
S1132AE8834705008320C100032481008324410017
S1132AF8138507001301010167800000638606043B
S1132B082319B500230AC500031725012317B500A7
S1132B182308C50083064501830795016318B70494
S1132B281397060113160601135707411356064156
S1132B386308C700930730006354E6009307200036
S1132B48A30CF500678000000317E5008316250130
S1132B58830705016396E60083064501E386F6FAD2
S1132B682319E500230AF5006FF01FFAB3A7E5005F
S1132B7893C717006FF0DFFC838605018317E50010
S1132B888395E5001307060003060501B385B740DE
S1132B98635AB002B387E7409397070193D7074175
S1132BA823020502B306D640635CD0023306E6402E
S1132BB81316860113568641930600009385070071
S1132BC86FF0DFF3E38005FEB307F700939707017F
S1132BD89305100093D707412302B5026FF09FFCB9
S1132BE8E38C06FC3306C7006FF09FFC8316E500F0
S1132BF8834775010396E500B387D700635EF60241
S1132C0803C77501930700003307C70063D2E602C0
S1132C188306050103478501038605013307D700A9
S1132C286358E60083C78501B387C700B3A7F600D6
S1132C381385070067800000930700006FF05FFFAB
S1132C48130101FE232C8100232E1100232A910055
S1132C58232821012326310103C7750183C7E50011
S1132C6883C60501135717003307F7008347E600A7
S1132C78130405003307F7408347760193D71700F9
S1132C883307F74083C78501131787011357874113
S1132C9893D71700B387D70083460601B387D74075
S1132CA88346860193D61600B387D7409397870146
S1132CB89356F74193D7874133C6E60093D5F74136
S1132CC83306D640B3C6F500B386B64063D8C60A01
S1132CD893040000130500FF6354E000130500018A
S1132CE8834774011306F006930500003306F64083
S1132CF88347E40013168601135686413305F5000D
S1132D08131585011355854103099401EF20903D5E
S1132D188347840193090500034504011306F0035E
S1132D283306F6403385A40013168601131585016E
S1132D38135686419305000013558541EF20903AB8
S1132D4813168501939509011305040093060000E1
S1132D581356864193D50541EFF05FDA8320C1010C
S1132D68A30C2401032481018324410103290101C3
S1132D788329C1001301010267800000930400FF46
S1132D886354F00093040001130500006FF05FF52D
S1132D9813071003930730006368B7021307700220
S1132DA8930710006362B7021307D001930700006A
S1132DB8636CB70013073001930730006366B700EC
S1132DC893B5A50093C715002302F5026780000098
S1132DD8130101FF2324810023229100930700009B
S1132DE89304050013070004138541D193060008D2
S1132DF8130600009305000023261100EF20003578
S1132E08B7860000138541D1938606B013064001A6
S1132E189305A002EF20804103C60400B786000092
S1132E28138541D1131636001308000093070000D8
S1132E3813072000938686CD1306A6029305200265
S1132E48EF204033B7860000138541D1938646AFFF
S1132E581306A0029305A002EF20403D138541D13B
S1132E68032481008320C100832441009386C1A2E6
S1132E78130620039305A002130101016F20003BF0
S1132E88130101FF23248100B78600002322910047
S1132E981308000093070000130700009386C6B0C8
S1132EA81306B0009305300293040500138541D13D
S1132EB823261100EF20002CB78600001308000019
S1132EC89307000013070000938686AC130670006E
S1132ED89305C004138541D1EF20C029EF20804A0F
S1132EE863160508B7860000938646A11306A00258
S1132EF89305A002138541D1EF20403393860185C1
S1132F08130620039305A002138541D1EF20003254
S1132F18EF204047630E0500B7860000938646CE2F
S1132F281306A0039305A002138541D1EF200030B6
S1132F3803C60400138541D1032481008320C10002
S1132F488324410013163600B786000013080000D6
S1132F589307000013072000938686CD1306A60264
S1132F6893052002130101016F20C020B7860000D9
S1132F78938646AF6FF09FF7130101FF2324810066
S1132F881386050013040500930545001305F50988
S1132F9823261100EF10505F938741D11307400493
S1132FA8238407002393E7000346440A83C5A1A8A2
S1132FB8032481008320C10003C591A813010101E2
S1132FC86F10107E8327850A232CF50A8327C50AE8
S1132FD8232EF50A8327050C2328F50C8327450C93
S1132FE8232AF50C67800000130101FF23248100C4
S1132FF8130405001305F50923261100EF10904F5B
S1133008930500011385C1ABEF2010666304050224
S11330188347040A130504002308F4089307F0FF00
S11330282308F406032481008320C100130101014D
S11330386FF05FF98320C1000324810013010101AB
S113304867800000130101FE232E1100232C810048
S1133058232A910023282101232631012324410115
S11330689307F00F6388F5029307050F9304000094
S11330789306F00F1307800003C80700139A84010E
S1133088135A8A41630CD802938414009387C702A5
S1133098E394E4FE130AF0FF8320C10103248101B1
S11330A813050A0083244101032901018329C1006E
S11330B8032A81001301010267800000130405003C
S11330C893890500138504009305C00213090600BB
S11330D8EF30902C1305450E938509003305A400A1
S11330E8EF10105F9305C0028319E90013850400EB
S11330F8EF30902A3305A4002319350F0309090179
S11331089305C00213850400EF3010293305A40089
S1133118230A250F6FF05FF89307050F1307400183
S1133128130505259306F0FF03C607006314E6009C
S11331382380D7009387C702E398A7FE678000001F
S1133148130101FE23282101232E1100232C8100C1
S1133158232A9100232631019307F00F13890500D0
S11331686394F50003C981A81304050F9304052586
S11331789309700183470400639C37018345440025
S1133188034524009306500013060900EF20C048A5
S11331981304C402E31094FE8320C10103248101B3
S11331A883244101032901018329C1001301010278
S11331B867800000930710006392F502B747000088
S11331C8938707A8232CF50AB7370000938787E865
S11331D8232E050A2328F50C232A050C67800000F2
S11331E8B7760000130800009307000013070000D7
S11331F8938686411306C00193058003138541D144
S11332086F10507703C791D593073000631CF702FA
S11332189307050F1307052593068001130500007E
S113322803C607006318D600038647011305100078
S1133238630E06009387C702E394E7FE134515005F
S11332486780000013051000678000006780000095
S1133258130101FF23248100232611001304050010
S113326863DC050683C791A89387F7FF230EF40848
S113327883C7A1A8A30EF40893070007A300F40AC0
S113328813050400EFF01FF8A30CA40C03C601A84F
S11332988345D4090345C409EF20804993071000E6
S11332A82301F40AB74700009387C7CD232CF40AF7
S11332B8B7570000A30D040C93870786232E040A2E
S11332C82328F40C232A040C8320C100032481003E
S11332D813010101678000009307F00663D8B70063
S11332E883C791A8938717006FF05FF863500602AD
S11332F883C791A8230EF50883C7A1A89387F7FF6E
S1133308A30EF408930700046FF05FF79307F00324
S1133318E3D8C7F683C791A8230EF50883C7A1A8E5
S1133328938717006FF0DFFD130101FF2324810049
S113333823261100130405008327040B0325450BDA
S113334813F717003305A4006308070003270500D3
S1133358B307F70083A7F7FFE78007008327840BE9
S1133368638407020327040B2328F40A8327C40B66
S11333782324E40A0327440B232C040A232AF40AEB
S11333882326E40A232E040A8320C100032481008F
S113339813010101678000001307050F9306052533
S11333A893070000130500009305000093083000FC
S11333B81303100003460700631A16030348770132
S11333C81306F8FF133616006318680063880500AF
S11333D813052000678000009305100093871700E9
S11333E83305A60093F7F70F1375F50F1307C702F4
S11333F8E312D7FC3385A7403335A000678000006B
S11334089307050F130730001305052583C6070026
S11334186394E600A38B07009387C702E398A7FE8B
S1133428678000009307050F13075001130505254E
S113343883C607006394E600238CB7009387C7020A
S1133448E398A7FE67800000832745091317260021
S1133458130101FBB387E70003D7070093972500FF
S1133468232A5103B387E70083DA070023261104CC
S1133478232481042322910423202105232E3103AC
S1133488232C4103232291032320A103232EB101DA
S113349823286103232671032324810383C70A0095
S11334A8938405008345450A1304050013050600A3
S11334B82320F10093890600EF30006E3385A400C1
S11334C8930510001375F50FEF10D06493871A0055
S11334D8930405002300040E2302042413090000A6
S11334E8130A00002322F100930A1000930C200011
S11334F8130D0003930DC00183274100131619000F
S1133508131B89013386C70083270100135B8B4192
S1133518634CFB029305C00213050B00EF30C06730
S11335283305A400930670001307F0FF1305C502C2
S113353863C6662993071B00139B87012302E50CC6
S1133548135B8B416FF09FFE034706009305C0028F
S113355813050B00137CF7012324C100935B570068
S1133568EF3080631305450E3308A40013050800E3
S113357893050C0023260101EF1090150326810002
S11335889305C00213050B00034616002324C1004B
S1133598EF308060032681003305A4000328C100AE
S11335A893551640131626001376C60393F585071C
S11335B82319B50E230AC50E0346442463160600D0
S11335C813065CFF133636002302C4249307400114
S11335D86310FC04638A0B029305C00213050B00F5
S11335E8EF30805B3305A40013078000A30DE50EBC
S11335F89305C00213050B00EF30005A3305A400ED
S113360893070001230EF50E130919006FF0DFEE7E
S11336189307E0006312FC04032C84099305C00299
S1133628939B1B0013050B00EF300057B30B7C0171
S113363883C60B003305A4009305C002231BD50ED3
S113364813050B00EF30405583C71B003305A40056
S1133658230CF50E6FF05FFB930730016316FC042F
S1133668638C040C9305C00213050B00EF30C052A1
S11336783305A400834B450F2320051023020510AE
S11336889305C00213050B00EF3000513305A40065
S11336980345250F930600001386090093850B0044
S11336A8EF1090776FF05FF613063000631CCC02BE
S11336B89305C00213050B00EF30004E3305A40038
S11336C823027511E38204F49305C00213050B0069
S11336D8EF30804C3305A40093071000A303F510C2
S11336E86FF09FF2130660016310CC02E39E04F0AE
S11336F89305C00213050B00EF30004A3305A400FC
S1133708230275116FF05FF01306F0006306CC0016
S1133718130650006312CC02638004029305C002AE
S113372813050B00EF3040473305A4009307F0FF5F
S11337382308F50E6FF05FEDE3880BEC2300740F9C
S113374863965B03E38204EC9305C00213050B0044
S1133758EF3080443305A4009307F0FF2308F50EE7
S11337682300040E138A04006FF01FEA1387EBFF8B
S11337781377F70FE3EAECE8E38804E81305080095
S1133788930530002300040EEF1080749305C002E3
S113379813050B00EF3040403305A400A303551173
S11337A82319A50F9305C00213050B00EF30C03E83
S11337B83305A400230AB50F6FF01FE51307F0FFC4
S11337C82386E1D263060A0013050400EFF0DF94B0
S11337D80347040E93075000631CF700638A040030
S11337E82300040E9305100013050400EFF09FC393
S11337F8834744246384070663840404130504008C
S1133808032481048320C10483244104032901047B
S1133818032A8103832A4103032B0103832BC10257
S1133828032C8102832C4102032D0102832DC10143
S1133838938509008329C103130101056FF05F9083
S113384837850000130545D8EF20902A138541A336
S1133858EF20101993074006230FF4088320C104AE
S11338680324810483244104032901048329C10313
S1133878032A8103832A4103032B0103832BC102F7
S1133888032C8102832C4102032D0102832DC101E3
S11338981301010567800000130101FE232C810038
S11338A823263101232E1100232A910023282101E4
S11338B8232441011304050093890500EF10D03334
S11338C81387C1D40347D700130620009387C1D4B4
S11338D81307F7FF1377F70F6374E60C37870000B5
S11338E81307478523A6E1A8378700001307C7D421
S11338F8232AE40837870000130747D7232CE40852
S1133908A38607001307700083C7D7002302E40ABD
S11339181397170093878185B387E70003C50700CA
S113392883C5170003C681A8A384A1A82385B1A8C9
S1133938EF10106083C681A803C6A1A883C591A807
S113394813050400EFF05FB013054400EFE00F85A2
S1133958638E0906B74700009387C7462328F40AED
S1133968B7470000232A040A9387876E2324F40C9C
S11339782326040C0346440A0324810183C5A1A811
S113398803C591A88320C1018324410103290101AE
S11339988329C100032A8100130101026F104073B7
S11339A8377700001307C74223A6E1A8378700002A
S11339B8130707CF232AE40837870000130747D6DD
S11339C8232CE408130780006FF01FF4B7470000A6
S11339D8938707A82328F40AB737000023000400B4
S11339E8232A040A938787E86FF05FF8130101FF1D
S11339F823229100232481009305800013040500E9
S1133A081385C1AB23261100EF200046630E050081
S1133A18230004008320C10003248100832441007F
S1133A281301010167800000930540001385C1ABB1
S1133A38EF20804363080500930710002300F40077
S1133A486FF05FFD930500011385C1ABEF20C04102
S1133A58E30205FC834504001305040003248100E4
S1133A688320C100832441009385F5FFB335B0005A
S1133A78130101016FF05FE2130101FF232291009A
S1133A882324810093050001130405001385C1ABA9
S1133A982326110023202101EF20003D630C050299
S1133AA8834704006390070A930500001305040084
S1133AB8EFF09FDEB74700009387C746232CF40A2C
S1133AC8B74700009387876E232E040A2328F40C33
S1133AD8232A040CEF10100B3339A000930580003F
S1133AE81385C1AB13091900EF200038630E0500D4
S1133AF88347040013F7F70F6314070093071000B4
S1133B089387F7FF2300F400930540001385C1ABA6
S1133B18EF208035630C0500834704009387170062
S1133B286354F900930709002300F4008320C100BB
S1133B3803248100832441000329010013010101A6
S1133B486780000013072000E396E7F823000400C9
S1133B58EF10D0136FF01FF88347350A13070002DC
S1133B689387F7FF93F7F70FA301F50A639EE7140A
S1133B7803274509130101FFB787000023248100A7
S1133B88232611002322910023202101938707CFA4
S1133B98130405006316F700B78700009387C7D49A
S1133BA803278409232AF408B7870000938747D694
S1133BB86316F700B7870000938747D703A6C1A801
S1133BC8232CF408B77700009386C7429387C7422B
S1133BD86316D600B78700009387478523A6F1A804
S1133BE80349C4099384C1D46392D702930530006E
S1133BF813050900EF20D0671375F50F630E050050
S1133C0893074000A386F4006F0040033787000041
S1133C1813074785E396E7FE83C7D400130500001E
S1133C28639C07009305300013050900EF20906397
S1133C38130515001375F50FA386A40083C7D400D4
S1133C488345D409B337F00003C681A89387770066
S1133C582302F40AA38421A9130509002385B1A822
S1133C68EF10102D83C681A80346D4098345C409DF
S1133C7813050400EFF04FFD0346440A8345D409B5
S1133C880345C409EF10C04413054400930610000B
S1133C981306100293059003EFE05FE693073000E4
S1133CA8A30EF4009307F0FF2302F4042308F40698
S1133CB88320C100032481008324410003290100D7
S1133CC81301010167800000639407006FF08FAF50
S1133CD867800000130101FF2324810023261100BB
S1133CE823229100232021018347150A1304050088
S1133CF89387E7FFA300F50A8347250A638C070027
S1133D0883C601A80346D5098345C5092301050AC5
S1133D18EFF08FF38347140A6396070E9307100096
S1133D28230CF40C0347C40983C791A81305440062
S1133D3813890600637EF7080306440193061000FE
S1133D4893050007EFE09FDB8347B4011306C00621
S1133D58030524013306F6401316860113568641DB
S1133D6893054000EF1010388347C4011306C003BD
S1133D782319A4003306F6400305440113168601EB
S1133D881356864193054000EF10D035230AA4004A
S1133D988345D4090345C4090346440A2385B1A8C5
S1133DA8A384A1A8EF10C0329307F0FF2302F40400
S1133DB82308F40613050400032481008320C100AA
S1133DC88324410003290100130101016FF08F9F2F
S1133DD863FAE70093061000030644019305000004
S1133DE86FF05FF60347D40983C7A1A8831524019C
S1133DF89306100013060004E366F7F413060000A4
S1133E086FF05FF48320C100032481008324410000
S1133E180329010013010101678000009307050FBE
S1133E28130750011305052583C607006396E600AA
S1133E3883C68701638A06009387C702E396A7FEB1
S1133E481305100067800000130500006780000058
S1133E589307050F13078001130505259306100022
S1133E6803C607006316E60003864701630AD60003
S1133E789387C702E396A7FE130510006780000026
S1133E881305000067800000130101FE232C810044
S1133E98232A910023263101232E110023282101EE
S1133EA813040500938905009307050F9304000084
S1133EB89306F00F1307800003C6070013998401C3
S1133EC8135989416304D606938414009387C7025F
S1133ED8E394E4FE1309F0FF1379F90F9305C00284
S1133EE813050900EF20504B3305A4009307000382
S1133EF82319F50E9307C001230AF50E9305C00292
S1133F0813050900EF2050493305A4002302351195
S1133F188320C10103248101832441010329010170
S1133F288329C10013010102678000009305C002C0
S1133F3813850400EF2050461305450E9305300001
S1133F483305A400EF00D0789305C002138504005C
S1133F58EF209044835724013305A4009305C0023D
S1133F682319F50E13850400EF20104383474401F9
S1133F783305A400230AF50E6FF01FF6930720F803
S1133F88232EB50CA30DF50C67800000130101FF67
S1133F98232481002322910093060007930405003B
S1133FA813060000138541D1930500009307000010
S1133FB81307600023261100EF104019138541D11F
S1133FC80324810083A6C40D8320C10083244100F7
S1133FD81306100093051000130101016F1000254A
S1133FE8130101FF232291002324810023261100B9
S1133FF8938741D113040500239307002384070002
S11340088327840C0325C50C938441D113F7170027
S11340183305A4006308070003270500B307F70066
S113402883A7F7FFE78007008327840C374700003E
S113403823930400238404001307876E6388E7002E
S113404837570000130707866394E7020327C40C55
S113405863040700639E07000327C40DB7870000A5
S1134068938787AE6316F70013050400EFF01FF279
S11340788327040D638C07020327840C2324F40C80
S11340888327440D2320E40C0327C40C2326F40CB3
S11340988347840D2322E40C2328040C232A040CCC
S11340A863860700EF105002230C040C8320C10020
S11340B80324810083244100130101016780000067
S11340C8130101FB232A51032328610323248103B9
S11340D893070509130C450EB74A0000374B000037
S11340E8232481042322910423202105232C410322
S11340F8232671032322910323261104232E31033B
S11341082320A103232EB1011304050093040C00FA
S1134118130A0000930CF00F130945002326F1003D
S1134128930B8000938A0AB6130B4B7E83C7C40093
S1134138638697159305090013850400EFE01FAB08
S11341486308050483C7C4001307E0006394E722E7
S113415883D72401230EF40883C74401232C540B6A
S1134168232E040AA30EF40893070004A301F40AF7
S11341782328640D232A040C83A7040013060900CA
S11341889305090083A7870013850400E7800700C7
S11341989309840383C7C900638297079385090039
S11341A813850400EFE09FA4630A050483A70400B1
S11341B8130609009385090083A787001385040063
S11341C8E78007009305050013860400130504001F
S11341D8EFE05FE783A7090013060900938504004D
S11341E883A7870013850900E78007009305050066
S11341F81386090013050400EFE0DFE48327C100F8
S11342089389C902E39837F903C7C4009307900058
S11342186316F70693090C00130D0000930D900024
S11342286306AA0503C7C9006312B7059385090085
S113423813850400EFE09F9B630A050203A70400AB
S113424813060900938509000327870013850400D2
S1134258E700070003A70900130609009385040073
S11342680327870013850900E700070093071D004B
S113427813FDF70F9389C902E3147DFB130A1A008F
S1134288137AFA0F9384C402E3127AEB0347040700
S1134298930720016318F7021306440093044406A5
S11342A813050600938504002326C100EFE01F943C
S11342B80326C1006308050093850400130506005E
S11342C8EFD0DFBF938701D283C7C7006396070285
S11342D81306440093050600138501D22326C10062
S11342E8EFE0DF900326C10063080500938501D23F
S11342F813050600EFD09FBC830544010315240170
S113430813060000EF10006163000514834584015F
S113431803456401EF10802B8317240163DA070A2D
S11343289307C00063EEA702B7270000938797801E
S1134338B3D7A70093F717006384070283074401E0
S113434863D6070A9307C00063ECA700B7170000F9
S11343589387D70033D5A700137515006318050A8A
S1134368835764012319F40083478401230AF40062
S11343786F00C00913073001638AE700938717FFAA
S113438893F7F70F130710006362F7020387040219
S113439893071000E312F7DE835764012319F4002E
S11343A883478401230AF4006FF01FDD1306090014
S11343B89385040013050900EFD05FB09305050049
S11343C81306090013050400EFE0DFC76FF0DFDA16
S11343D81307F006E354F7F69307B000E3E2A7F8EF
S11343E8B71700009387D7806FF09FF41307F00383
S11343F8635EF7009377D50F638A0700130555FFAB
S11344081375F50F93071000E3ECA7F48320C10498
S11344180324810483244104032901048329C10357
S1134428032A8103832A4103032B0103832BC1023B
S1134438032C8102832C4102032D0102832DC10127
S113444813010105678000008345440103452401E5
S1134458EF10C0171375D50F93074000E318F5FA4A
S11344686FF01FF0130101FE232C81002326310174
S113447813040500938905001305B0039305000090
S1134488232E1100232A91002328210123244101EA
S11344982322510123206101EF00D067630C05003A
S11344A89307A000A30DF40CB7870000938787AE89
S11344B8232EF40C8347E409638A07029387F7FFE2
S11344C8230FF4088320C1010324810183244101BB
S11344D8032901018329C100032A8100832A410099
S11344E8032B0100130101026780000093050001FA
S11344F81385C1ABEF109011630005068347A40D23
S1134508130720039387170093F7F70F230DF40C71
S11345186396E704834704091307F00F638AE702E5
S11345282300F40A9387F7FFA30FF408B7370000B2
S1134538938707FF232CF40AB7370000938707F8FB
S1134548232E040A2328F40C232A040C6FF09FF763
S1134558A30F04086FF09FFD230D040C13094400F6
S1134568138609009305090013050900EFD0CFD776
S113457883475403E39807F493048403930A0409D0
S1134588130BF00F83A70400930509001386090091
S113459883A7470013850400E7800700130A050072
S11345A89305050013850400EF009012630E6A0159
S11345B883D7E4009387C7FF2397F40083C70401D4
S11345C89387C7FF2388F4009384C402E39C54FBB5
S11345D89304440E130A442483A704001386090091
S11345E89305090083A7470013850400E7800700A3
S11345F813860400930505009384C402130504007C
S1134608EFE05FA4E31A9AFC13050400EFF05FAB34
S1134618830544010315240113060000EF10802FBD
S1134628630A0500030644018315240113050400E5
S1134638EFE01FC2830744026346F002230004002C
S1134648EF009056B74700009387479F232CF40A3E
S1134658B7370000938787DD232E040A2328F40C38
S1134668232A040C0347040E930630009307F7FF2C
S113467893F7F70FE3E8F6E49306040F130604250B
S11346889305700083C706009387A7FF93F7F70F76
S1134698E3FAF5E29386C602E316D6FE9307100002
S11346A8631CF70013050400EFE01FA7EF00905206
S11346B82300040E6FF01FE19307200093055000B8
S11346C8630AF70093074000930560006304F7004A
S11346D89305400013050400EFF00FFB6FF05FFD36
S11346E8130101FE232C81002328210123263101F3
S11346F8232E1100232A910023244101232251014E
S11347081304050013890500EFE0DFAF93090500E2
S11347186306050003C581A8EF0090759304440E51
S1134728130A4424930A80016396090083C7C400CA
S1134738639C570183A704009305090013850400AB
S113474883A70700E78007009384C402E39E44FD1F
S1134758930444009305090013850400EFD08F885F
S11347689305090013058403EFE04F998327440652
S1134778930509001305440683A70700E78007008B
S113478893050900138501D2EFE04F978347B40DD1
S1134798638A07009387F7FFA30DF40C130504003D
S11347A8EFF0CFFE938741D12384070003248101CE
S11347B88320C101032901018329C100032A81003F
S11347C8832A410013070007138504008324410149
S11347D82393E700130101026F00003E130101FF58
S11347E8232481002326110013040500EFF05FEF52
S11347F80347340A938741D123930700238407008E
S11348089307000263F6E700930700043387E74041
S1134818131717001377F70F935717000324810012
S1134828130600023306F6408320C1009377F70786
S113483893050004B385F540931617009307000009
S113484893F6C60F1376F60F93F5E50F138541D14A
S1134858130101016F00900F130101FD23202103AF
S1134868232C4101232611022324810223229102AD
S1134878232E3101232A51012328610123267101A2
S1134888232481010347C50983C791A81309050097
S1134898138A05006374F7108347150A1304000785
S11348A83304F44093040000139B8401938741D19B
S11348B8135B8B4123938700238467018347990DF6
S11348C8938A41D1638C0714631604146394041403
S11348D8130500009309F0FF2393AA00930700002F
S11348E8638A040093996900B384990093978401B7
S11348F893D78741130509002384FA00EFE09F90BA
S1134908930905006306050003C501A8EF00505686
S11349189304490E930B4924130C800163960900F0
S113492883C7C400639C870183A7040093050A0016
S11349381385040083A70700E78007009384C40253
S1134948E39E9BFC130949001305090093050A001B
S113495823938A0023846A01EFC0DFE893070007E2
S1134968032481022393FA0023840A008320C102CA
S1134978832441028329C101032A8101832A410135
S1134988032B0101832BC100032C810013050900AB
S113499803290102130101036F00002263FCE700ED
S11349A80344150A130404F91314040113540441A9
S11349B86FF05FEF0347D50983C7A1A8637CF700AD
S11349C88347150A93040004B384F44013040000D5
S11349D86FF09FED93040000E3FAE7FE8344150AA1
S11349E8938404FC9394040193D404416FF01FFE50
S11349F8E30004EE9309F0FF93050007138509000B
S1134A08EF20801933058500131505011355054159
S1134A186FF09FEC03C581A8EF009045634604003E
S1134A28E3D804FC63060400930910006FF0DFFC6C
S1134A3823930A00930910006FF0DFEA130101FDC4
S1134A48232481022322910223202103232E3101CE
S1134A58232C4101232A51012328610123267101B2
S1134A6823261102930405001389050093090600FF
S1134A78138A060013040000930B3000630C4405EA
S1134A883337340193950401930700001308000099
S1134A9813471700938641A41306090093D50541CB
S1134AA8138541D1EF00006D9387440093F7F70F06
S1134AB8631A740113094900938444FF1379F90FA5
S1134AC893F7F40F130414001374F40F938407007A
S1134AD86FF0DFFA8320C102032481028324410298
S1134AE8032901028329C101032A8101832A41017F
S1134AF8032B0101832BC10013010103678000000C
S1134B08130101FE232C8100232A9100232821016B
S1134B182326310123244101232251012320610149
S1134B28232E1100930905001384050013090600B8
S1134B38138A060093040000130B2000638A4405BB
S1134B4893150401930700001308100013070000CD
S1134B58938609001306090093D50541138541D1AD
S1134B68EF0000679307440093F7F70F639A640113
S1134B7813098900130484FF1379F90F9377F40F49
S1134B889384140093F4F40F138407006FF01FFB4D
S1134B988320C101032481018324410103290101E4
S1134BA88329C100032A8100832A4100032B0100C1
S1134BB81301010267800000130101FF2322910001
S1134BC8930700002320210113070004130905009B
S1134BD8930600011306000093050000138541D1D4
S1134BE82326110023248100EF00405683C6C1D434
S1134BF8034609029305100013051000EFF01FE4A3
S1134C088346C9089307F00F638AF6029397260030
S1134C18B7860000938646E2B386F60083D606007C
S1134C281308100093070000130700001306F00090
S1134C3893057000138541D1EF00805913080000D3
S1134C4813070000930700009386C1A41306D0003D
S1134C5893051000138541D1EF00C0511384C1D4CA
S1134C688347D40013060003B307F40083C6370050
S1134C78930510001385C1A3EFF09FE88346D90874
S1134C88378500001306E00193050000130505D9D4
S1134C98EFF01FE78347D4003304F400830784004C
S1134CA8638E0702032481008320C10003290100C5
S1134CB8138541D183244100B786000013081000EE
S1134CC89307000013070000938646DC130670015F
S1134CD893050000130101016F00804F8320C10078
S1134CE803248100832441000329010013010101E5
S1134CF867800000130101FF232291008384E1D41B
S1134D082326110023248100232021016382040621
S1134D181304050093058000138541ABEF10C014FC
S1134D28630E05008347040013F7F70F63140700A5
S1134D38930710009387F7FF2300F40093054000BE
S1134D48138541ABEF104012630E0500834704003E
S1134D589384F4FF9387170063D4F40093870400C3
S1134D682300F4008347040093871700A300F4008A
S1134D788320C10003248100832441000329010006
S1134D881301010167800000130101FE232A910029
S1134D98232E1100232C81002326310123225101C3
S1134DA893070007232821012324410123206101BB
S1134DB8138441D1930A0500138505002313F400D5
S1134DC823040400EFF05FDF938641A51306200057
S1134DD893058001138541D123130400EF00004596
S1134DE89387C1D4838717009389C1D46384070246
S1134DF8B78600001308100093070000130700008B
S1134E08938606EC1306C00293056000138541D10E
S1134E18EF00003C378A000013040000130ACAEDAF
S1134E28838729006352F4089305F00013050400EE
S1134E38EF10905683C70A00131905011359090185
S1134E48639687021306A9001316060113080000C7
S1134E589307000013070000938641A613560641E2
S1134E6893058001138541D1EF00C0301304140069
S1134E7893162400B306DA001306C90083A60600B5
S1134E881316060113081000930700001307000007
S1134E98135606419305E001138541D1EF004033D1
S1134EA81374F40F6FF0DFF78320C1010324810129
S1134EB883244101032901018329C100032A8100B4
S1134EC8832A4100032B01001301010267800000BB
S1134ED89307F00F6384F50C130101FFB7870000F3
S1134EE823248100232611001304050013972500A9
S1134EF8938707202306B400A301040223020402B3
S1134F08A30204022303040223190400231A04003D
S1134F18230B0400B387E70003C6270003C7070071
S1134F2883C617002301C40283C73700138505000D
S1134F389305C000B337F0002304F40293574740A5
S1134F48938717001377F700A30BF40013071700D0
S1134F5893D7464093F6F6002300F402230CE400AA
S1134F68A300D402EF105043B78700009387C7FE0D
S1134F783385A700835705008320C100232EF4003E
S1134F88835745002322F400835785002324F40023
S1134F980324810013010101678000006780000079
S1134FA8130101FD232291022326110223248102E5
S1134FB823202103232E3101232C4101232A5101CB
S1134FC823286101232671012324810123229101CD
S1134FD82320A1019384C1D403C4D40093073000CF
S1134FE863EC870A93090600938A0500130A0500EF
S1134FF8938641A71306200093050000138541D129
S113500813143400EF008022930C0000B38484004E
S1135018130C1000B78B0000130B000413F4FC0FDF
S11350289385090013050400EF10D023137DF50FB1
S11350389385090013050400EF10902393D73C408F
S1135048B387F40083C7C7011374740033148C0046
S11350581375F50F3374F400631645011307100034
S113506863065D0133378000131717009315250075
S113507813062D00130800009307000093864B5B6A
S11350881316260093852500138541D1938C1C00A3
S1135098EF00400EE3946CF98320C10203248102DB
S11350A883244102032901028329C101032A8101BE
S11350B8832A4101032B0101832BC100032C8100A6
S11350C8832C4100032D01001301010367800000B4
S11350D8130101FF232291002326110023248100B8
S11350E8232021019384C1D403C9D4009307300039
S11350F863E22705130405001385050093050600DC
S1135108EF1090293305A4001375F50F131939000E
S113511893573540B3842401B384F40013757500A0
S1135128930710003395A70083C7C4013365F500BE
S1135138238EA4008320C10003248100832441001A
S11351480329010013010101678000000308850099
S113515833060601035865000325050013160601E6
S1135168B3850501939505011356064193D5054169
S11351786F009017130101FE232E110003438500CD
S113518803556500138E0600330366003385A500B6
S11351989306F00F93158301131505012320D100FD
S11351A893080800930600001388070013060E00EE
S11351B89307070093D5854113070000135505414C
S11351C8EFB00FD88320C1011301010267800000EA
S11351D8130101FE232E11000343850003556500C6
S11351E8138E0600330366003385A5009306F00F7B
S11351F893158301131505012320D1009308080092
S1135208930600001388070013060E00930707008F
S113521893D585411307100013550541EFB04FD2BC
S11352288320C1011301010267800000130101FCFE
S1135238232C8102232A91022328210323263103C4
S1135248232441032322510323206103232E7101C4
S1135258232E110203C70600130A050093890500CB
S1135268130B060013841600930BF00F938481A785
S11352781389C1A7B78A00006308770793571700F3
S11352881377170093060900630607001307C0FF86
S11352989386040083458A0003556A00232001008D
S11352A8B305BB00B385E5003385A9009395850153
S11352B813150501130700009308100013080000D4
S11352C813860A5C93D58541135505419389590082
S11352D8EFB00FC7939989010347040093D9894113
S11352E8130414006FF05FF98320C10303248103BE
S11352F883244103032901038329C102032A810268
S1135308832A4102032B0102832BC10113010104E7
S1135318678000009387C1D4638A050003C7D70058
S1135328630607001305A5021375F50F1357350017
S1135338B387E70083C7E7001375750033D5A70063
S113534813751500678000001387C1D40347D7007D
S11353589387C1D4630607001305A5021375F50FD7
S113536813573500B387E70013757500130710004A
S11353783315A70003C7E7003365E5002387A700B3
S113538867800000130101FF1305000423261100A0
S1135398EF1040158320C1001305F5FA13351500E5
S11353A81301010167800000130101FF9305100533
S11353B81305000423261100EF10801E8320C1006A
S11353C81306C0039385C1D4130510041301010106
S11353D86F10402883C5A1A803C591A8130101FF34
S11353E823261100EF00001BEFF01FF68320C100F5
S11353F8130101016FF05FFB130101FF2326110064
S1135408EFF05FF8630E05008320C1001306C003A4
S11354189385C1D413051004130101016F10C01240
S11354289387C1D41307200023A0E70023A2070011
S113543823A40700239607009385C1D4930700008B
S11354481307E000B386F500238706009387170047
S1135458E39AE7FE93870502238E0500A38E0500D1
S1135468238F0500A38F050023800502A38005026E
S113547823810502A381050293858500E39EF5FC3B
S11354888320C1001301010167800000130101FF9B
S1135498930500001305000423261100EF104010A3
S11354A88320C100130101016FF01FF5130101FEF0
S11354B8232C8100232A9100232821019308060024
S11354C8232E110003C391D5930405001386050008
S11354D837890000639E08046310030A2326B10079
S11354E813850600930570002324D100EF1040585B
S11354F81375F50F13071000832781000326C100D5
S11355086312E5081308000013078000138541D1CE
S1135518032481018320C101930649609385040013
S11355280329010183244101130101026FF09FC47F
S11355389307700063FC1703938788FF139717007A
S1135548B78700009387875FB387E70003C707001F
S113555883C7170013080000E30A03FA1388B8FF87
S113556813383800134818006FF05FFA13870800DF
S1135578930700006FF01FFE130700009307000055
S11355886FF0DFFD13070000930700001308000005
S11355986FF0DFF783A7C1A8130101FF232481005B
S11355A823261100130405001385050083C527006D
S11355B8EF10805E3305A4008320C100032481001A
S11355C81375F50F1301010167800000130101FF32
S11355D8232481001304050013D5450093057000A6
S11355E82326110013544400EF10005B3304850094
S11355F81374F40F83C781A8138581D833058500F4
S11356088320C100032481003305F5000345050008
S11356181301010167800000130101FE232C81009E
S11356281304050013D5450093057000232E1100BB
S11356382326C1002324D100EF1000560326C100FD
S11356481354440033048500938781D8832681004A
S11356581374F40F3386C700330686008320C10110
S1135668032481012300D60013010102678000008E
S1135678130101FD232E31012324810223229102E7
S1135688232A5101232861012326110223202103FF
S1135698232C4101130B050013040000930400009C
S11356A8938981D8930AC001B3078B00B387F900A3
S11356B803C60700137AF40F9305700093071600C6
S11356C813050A00B384F4002326C100EF108039BF
S11356D8131545001379F50F9305700013050A0097
S11356E8EF1000390326C10093F4F40F1315450095
S11356F893860400930509001375050F1304140019
S1135708EFF0DFDAE31254FB8320C10203248102A1
S113571883244102032901028329C101032A810147
S1135728832A4101032B010113010103678000004F
S1135738130101FD2320210303A9C1A82326110273
S11357482324810223229102232E3101232A510189
S1135758232C4101034A2900938A05008345390013
S11357689304050013050A002326C100EF10C04264
S11357789379F50F93850A0013050A00EF10C041C9
S11357883385A4001375F50F93161500B306D900D5
S113579803D7460093971900938747003387E70098
S11357A8131707019389F9FF0354090013570701D5
S11357B80326C100635A350103D466003384870085
S11357C813140401135404013304E440131414009F
S11357D81308C6011374F40F1378F80F9307000025
S11357E83309E900130EF000938581D863FC870A16
S11357F813D717403307E9008346070013F317004C
S113580813D746006304030013F7F60093861700C2
S1135818631AC70713D716403307E900034707007D
S113582893F6160013554700638406001375F700B2
S11358389386270093D61640B306D90003C70600FB
S113584893584700630403009378F700130706008E
S113585813053500B306C74093F6F60F634CD5001D
S1135868930617003387E5002300170113F7F60F93
S11358786FF05FFE9387370093F7F70F130607005F
S11358886FF0DFF6637A0601930716003386C500C6
S11358982300E60013F6F70F93F7F60F1307060035
S11358A86FF0DFFD8320C1020324810283244102B7
S11358B8032901028329C101032A8101832A4101A1
S11358C81301010367800000138781A8938701A847
S11358D88346070003C607002380D7002300C700B8
S11358E867800000930705001387050063D4A500AB
S11358F81307050013178701135787411375F60F0C
S11359086358C70013F5F50F63D4F50013F5F70FC3
S113591867800000930705001305100063C207029F
S113592863C00502B387C7001307F006634AF7008C
S1135938B385C50013A50504134515006780000049
S113594867800000130101FF23248100232611002E
S113595813040500EF0090089307000123100400C6
S1135968231104002302F400230304008320C1004C
S1135978032481001301010167800000130101FF62
S1135988232481002326110013040500EF00505F2F
S1135998834754001377F50F03456400B307F740B2
S11359A893F7F70F63000502A303F400230304002D
S11359B8130500008320C1000324810013010101A1
S11359C86780000083464400E3E6D7FE930710008F
S11359D82303F40083570400A302E4001305100012
S11359E8938717002310F4006FF0DFFC13150501EB
S11359F8135505019307F00763ECA7049395050174
S1135A0893D505019307F00363E4B70413F775000E
S1135A1893F5850F9395450093071000B305B500DA
S1135A28B397E70093950501938601DC93D50501A7
S1135A38B386B60093F7F70F83C60600138701DC15
S1135A48630A0600B3E7F600B305B7002380F50040
S1135A586780000093C7F7FFB3F7F6006FF0DFFE27
S1135A68130101FD2324810223229102232021030F
S1135A7823261102232E310113890500B304D6000D
S1135A8813040000634406001304060013140401FD
S1135A9813540441930900049387040063D49900C0
S1135AA8930700046354F4029315040113060700D2
S1135AB893D50541130509002326E100EFF01FF3F0
S1135AC8130414000327C1006FF01FFD8320C102D3
S1135AD80324810283244102032901028329C10189
S1135AE81301010367800000130101FD23248102CF
S1135AF82322910223202103232E3101232C410147
S1135B0823261102930405001309060093090700CC
S1135B1813840500338AD500635A440313870700A6
S1135B2893050400938609001306090013850400ED
S1135B38130414002326F10013140401EFF05FF298
S1135B48135404418327C1006FF01FFD8320C10251
S1135B580324810283244102032901028329C10108
S1135B68032A81011301010367800000B335B000E3
S1135B78B305B04093F5F50F93070000138701DCD4
S1135B88930600403306F7002300B60093871700F6
S1135B98E39AD7FE67800000930500006FF01FFDAD
S1135BA83308D500634208181308F007634EA81693
S1135BB83308B700634A08161308F0036346B81697
S1135BC813D8F541B348B800130101FFB38808415D
S1135BD8137878003308B800232681002324910021
S1135BE8232221012320310193F8780013583840E7
S1135BF863D80500930580001308F8FFB38815419E
S1135C08935E37001377770063040700938E1E00B2
S1135C1813137800B305A300138301DC130F80006A
S1135C28130708003303B300B38E0E01930FF0FF7C
S1135C381304F007B3041F41930210001309700002
S1135C486388EE0C6306E70D6348F70B130E000038
S1135C58930303086352DE0AB305AE00634EB40827
S1135C6863C005066302F70B3308C601034808003E
S1135C78B309C3018385090033181801131888016F
S1135C881358884163925704B3E505012380B9008A
S1135C9863880802630627033308C601034808001B
S1135CA8B389C301838509003358984013188801C0
S1135CB81358884163965702B3E505012380B90058
S1135CC8130E1E006FF01FF9639807001348F8FFBE
S1135CD8B3F505016FF09FFBB3C505016FF01FFB1A
S1135CE8639807001348F8FFB3F505016FF01FFD2B
S1135CF8B3C505016FF09FFC1307170013030308CE
S1135D083306D6006FF0DFF3E39808F86FF05FFB13
S1135D180324C1008324810003294100832901004D
S1135D2813010101678000006780000037860000C6
S1135D3893050500930710001307000193068005D7
S1135D4813068673130540016FF09FE59305000061
S1135D58138501DC6F00D015130101FE232C81008B
S1135D68232A91002328210123263101232E1100FF
S1135D789304050093890500130400FF1309900197
S1135D8813850400EFF05FE113050400E7800900C0
S1135D981385040013041400EFF05FFB13140401CB
S1135DA81305F00013540441EF00D01AE31A24FD3C
S1135DB8032481018320C1018324410103290101B2
S1135DC88329C10013050019130101026F009018FB
S1135DD8B7650000938545D36FF01FF8130101FFE1
S1135DE8232611002324810013040500EF00406FCB
S1135DF813050400EFF09FF5130504000324810044
S1135E088320C100130101016FF09FFC130101FEFF
S1135E18232E11002326B100EF0010138325C1009F
S1135E288320C1013375B5003305B540133515001A
S1135E381301010267800000130101FF232481007C
S1135E48232611008347250013040500A301F50048
S1135E58EF00900F2301A4008320C10003248100D4
S1135E68130101016780000083473500B3F7F5008B
S1135E78639A07000345250033F5A5003335A000D0
S1135E88678000001305000067800000130101FF0C
S1135E98B79700002324810023261100938707D78E
S1135EA8130405002320F5002322050013058500AB
S1135EB8EFF05FA9B7870000938707732320F400E6
S1135EC89307100023280400231AF400230BF4007A
S1135ED8A30B04008320C1000324810013010101E2
S1135EE8678000001305F007634AB51E1305F00325
S1135EF86346C51E130101FA232C81041305080007
S1135F081384050093055000232821052326310511
S1135F182322510523206105232A9103232E1104EA
S1135F28232A910423244105232E7103232C81035E
S1135F382328A1032326B103930C0800138B07001D
S1135F48930A07009389060013090600EF00D0445A
S1135F58330585006356A01493973C00B387270143
S1135F686350F0149305500013850900939C0C01A9
S1135F78EF00904293DC0C01B787000033848C0057
S1135F8833862C019387877E1314040113170601A3
S1135F98338DA70013540401930D00001308500017
S1135FA81357070113036000130D1D008346FDFFFB
S1135FB863940D0193060000B30894419398080173
S1135FC893D8080193040700130A800093F7160076
S1135FD8930B0B0063840700938B0A0063940B00F4
S1135FE863065B09338C9441131C0C01135C0C018C
S1135FF813890800630C89069317090193D707418D
S113600893090C00638C34059395090113850700E3
S113601813860B0093D5054193891900232E61003B
S1136028232CE100232A01012328D100232611016E
S11360382324F10093990901EFF05F9B93D9090197
S1136048832781008328C100832601010328410195
S1136058032781010323C1016FF0DFFA1309190033
S113606813190901135909016FF0DFF8130AFAFF2C
S1136078B384940193940401137AFA0F93D6160007
S113608893D40401E3140AF4938D1D0033848C0023
S11360981314040193FDFD0F13540401E3966DF0EA
S11360A88320C105032481058324410503290105AF
S11360B88329C104032A8104832A4104032B01048C
S11360C8832BC103032C8103832C4103032D010378
