S02B0000433A5C55736572735C44616E5C417070446174615C4C6F63616C5C54656D705C61726475696E6F5F9D
S113040097A100009381016797A40000938404429C
S113041017A40000130404F06F00C00023000400BC
S113042013041400E31C94FE17A40000130444E313
S113043097A40000938404E3138900006F00000173
S11304400325040013044400E7000500E31A94FEA6
S10B0450930009006F00C007CE
S1130458130101FF1385418A2326110023248100F7
S11304682322910023202101EF50D03A93059000D4
S11304781385C18AEF5090041384C18D13050401B8
S1130488EF40001813058401EF40D06A1305A40354
S1130498EF40805A9304000013042407130900064C
S11304A83305940093848400EF50C045E39A24FFF5
S11304B88320C1000324810083244100032901000F
S11304C81301010167800000130101FF2324810047
S11304D8370400002326110013040400EF6050477A
S11304E8EF008007EF40C005E30E04FE970000000C
S11304F8E780C0B06FF01FFF3306C500630CC5006A
S11305089385150083C7F5FF13051500A30FF5FEA2
S11305186FF0DFFE67800000130720008347650043
S11305286386E502130730006388E50063920502D9
S1130538138507006780000003459500131515000F
S1130548B387A70093F7F70F6FF09FFE93971700F1
S1130558034595006FF0DFFE130101FF2326110008
S1130568EF6080388320C100930580021385418A97
S1130578130101016F505040130101FF2322910020
S113058823248100B77500001384C18D13058406E4
S11305981306A0069385055423261100EFF0DFF512
S11305A81385C18D1306C00093050000EF60505EEB
S11305B8930730002303F4008320C100032481003F
S11305C8832441001301010167800000130101FF26
S11305D83786000023248100938605001304050050
S11305E81306C6B793053002130590052326110098
S11305F8EF60D02213060400032481008320C10085
S113060893060000930530021305700613010101D7
S11306186F60D020130101FF232481001385C18A50
S1130628930520051306A00123261100EF50101D81
S11306381385C18A032481008320C1009305F00136
S1130648130101016F50901A130101FE232C81003C
S11306581384C18D232A91002328210123263101E3
S1130668232441012322510123206101232E110057
S1130678130B0500930400009309240713090006CB
S11306888347E4008316A4063385990013070B00F7
S11306981386018A9385418A93848400EF508029C4
S11306A8E39024FF8320C1010324810183244101B1
S11306B8032901018329C100032A8100832A4100F7
S11306C8032B01001301010267800000130101FFDD
S11306D82324810013065003232291009305500616
S11306E8930405001385C18A23261100EF501011C5
S11306F8930500001385C18AEF505011930500003B
S11307081385C18AEF5000749307300663E2970299
S1130718930500001385C18AEF50C07293079000B7
S113072863E89700930500001385C18AEF50807130
S1130738938504001385C18AEF50C0701385C18A5C
S1130748032481008320C100832441009305100001
S1130758130101016F50900B130101FF2322910033
S11307689384C18D232481001384A40313050400F6
S113077823261100EF40002D130545F99307400186
S113078863E4A70403C794009307A000631EF70259
S113079813050400EF40002B93053000130545F9B9
S11307A8EF609022931515009385550293F5F50F84
S11307B813050400032481008320C100832441001D
S11307C8130101016F40003C930550026FF05FFE76
S11307D8130101FE9305A000232E1100232C810090
S11307E8EF60903CB77500009385C55AB385A500A2
S11307F81306A00013054100EFF01FD00346410083
S11308081384C18E130504009385418AEF30106167
S11308188345510013050400EF30D0668345610019
S113082813050400EF3050658320C10103248101BE
S113083813010102678000001385C18DA300050020
S11308482301050093051000130585016F50C006A8
S1130858130101FF23248100232291002326110080
S113086893078000930405001384C18D6308F50A77
S11308789307A0006316F50C930700000346F405DC
S11308882301F400130710008347D4058346E405C5
S1130898631AE6080346240603473406B387C700E9
S11308A82301F406B307D700A301F40683472406FB
S11308B8A30F040423000406A300F40683473406A4
S11308C8A30104062301F406834754062302F4060D
S11308D88347640623030406A302F406930730003F
S11308E82303F4009307A000639EF4001305040196
S11308F8EF305051930740006316F500930710003A
S11309082307F400A30494008320C1000324810076
S11309188324410013010101678000009307B00696
S11309286FF0DFF50346540603476406B387C70030
S1130938A302F406B307D7002303F4066FF01FF7E6
S1130948EFF09FEF93079000E3EE97FA37770000F4
S11309589397240013074743B387E70083A7070047
S113096867800700930710002307F406130700287D
S1130978239CE18683C7C18CE39607F8379500006A
S1130988130505D5EF5010406FF0DFF7EF50506AAC
S1130998EF50505013070028239CE1866FF09FF610
S11309A8130700486FF05FFF930710002301F4005A
S11309B86FF05FF5130101FF232481001305000084
S11309C8232611001384C18DEFF09FE8EFF0DFBAFE
S11309D89307F0FF1305240793050000230BF40C79
S11309E8EF40D0741304A403B77500001305040082
S11309F89385456413066001EFF01FB013050400E6
S1130A08032481008320C1009305C003130101015D
S1130A186F40C016130101FE232C8100232A910084
S1130A28232821012326310123244101232E1100E7
S1130A3823225101937725009309050013890500A2
S1130A48138A060093846191638207049305000066
S1130A5813850400EF40401693F919006380090ACE
S1130A68032481018320C101032901018329C100D1
S1130A78032A8100832A4100138504008324410149
S1130A8893051000130101026F40001393F725002A
S1130A98638C070413856191930A0600EF30907AFA
S1130AA8930750FF6346F50213856191EF309079FF
S1130AB8E3D4AAFA9305200013856191EF40C00F8F
S1130AC813856191EF400015EFF01FC96FF0DFF84F
S1130AD8138561919305F007EF40400A1305000060
S1130AE8EFF01FD76FF05FF713856191EF30507BFC
S1130AF893072000E312F5F66FF05FF513791900F8
S1130B081385040063020904EF30D0736344AA0414
S1130B181385040093053000EF40000A1385040090
S1130B28EF40400E032481018320C1018324410145
S1130B38032901018329C100032A8100832A410072
S1130B48130101026FF05FC1EF3090759307300015
S1130B58E308F5F08320C1010324810183244101C2
S1130B68032901018329C100032A8100832A410042
S1130B7813010102678000009387C18D130780FC6D
S1130B882381E700130720F8A389E704130710005B
S1130B98238CA7042389B704238B0704A38BC704D6
S1130BA8A38CE704678000009387C18D2381E70045
S1130BB813071000238DA7042389B704238B070484
S1130BC8A38BC704A389D704A38CE7046780000018
S1130BD81387060093060600130610006FF0DFFC67
S1130BE8130101FF232611009387C18D13073006D3
S1130BF81306C00D9385C18D13055006A3870700FE
S1130C082380E700EF5050658320C1009306400617
S1130C1813068005930510001305600513010101EF
S1130C286FF01FFB130101FE23282101232A9100E1
S1130C38232E11009384C18D232C81002326310196
S1130C48232441010394A4061385A403EF30905F81
S1130C5883C7E4003304A4401314040113540401A7
S1130C681389C18D639607048347F9061307200186
S1130C7893879700B307F4009397070193D7070165
S1130C886366F70013051000EFF09FBC834709075C
S1130C981307200193879700B307F400939707017C
S1130CA893D707016366F70013053000EFF05FBAC6
S1130CB89309290713850900EF405046130A0500D4
S1130CC86302050A13850900EF40D04493073400F2
S1130CD83305F50013150501135505019307200184
S1130CE863E2A708930640061306E005930510007F
S1130CF813058004EFF0DFED930500001385090068
S1130D08EF40D0421306F000930550001385418A42
S1130D18EF50403C9305050013856191EF30107D39
S1130D2837940000130544D2EF50D01883C4C18C03
S1130D3863980400130544D2EF50D00493040A00C6
S1130D488320C101032481011385040003290101BF
S1130D58832441018329C100032A8100130101026C
S1130D6867800000930784F69397070193D70701D8
S1130D7813072001636AF70013078002238DE186B5
S1130D88930410006FF0DFFB938601871387818635
S1130D98930700009308340093052001130394007B
S1130DA81308300003D6060013F5F70F3386C8007E
S1130DB8131606011356060163E0C502130515024E
S1130DC8930640061306E005930520001375F50FF6
S1130DD8EFF01FE06FF0DFFA035607003306C30095
S1130DE8131606011356060163E6C5048344E90095
S1130DF8638E0400930640061306800693052000BC
S1130E0813059004EFF0DFDC6FF09FF337A70000C1
S1130E181307072793864180B386F600B307F700C4
S1130E2803C6060003C5070093052000EFF0DFD4CE
S1130E386FF01FF593871700938626001307270082
S1130E48E39207F71304B4F91314040113540401C7
S1130E5893040000E3E685EE93071000A307F90066
S1130E68230109006FF0DFF1930606001307000061
S1130E78130610006FF05FD3130101FE232C8100C9
S1130E88232821019387C18D232E1100232A910041
S1130E98232631012324410183C7B70D1309050013
S1130EA81384C18D6382070813072000638EE71A31
S1130EB893772900638E07008347B40D1307300026
S1130EC8638607009387F7FF13F7F70FA30DE40C66
S1130ED893771900638007028347B40D93063000A3
S1130EE8130700006386D7009387170013F7F70FDB
S1130EF8A30DE40C13790902630809009307F0FFB2
S1130F08230C040CA30AF40C8320C10103248101DB
S1130F1883244101032901018329C100032A810093
S1130F2813010102678000001305A403EF30903A0F
S1130F389377890093896191638407028347340D09
S1130F48130720006378F7009387F7FFA309F40CCD
S1130F586F0000010347240D63180702E39607FE98
S1130F6893774900638407048347340D13071000FB
S1130F786362F7021305F5FF63DAA7029387170084
S1130F88A309F40C6F0080021307F7FF2309E40C8C
S1130F986FF01FFD0347240D9306470063C8A60896
S1130FA83387E7001305F5FFE34AA7FC93770901A4
S1130FB8E38007F08347340D8345240D1385090026
S1130FC8B385F50093F5F50FEF30903793072000BC
S1130FD863F4A70613075000E36CA7EC1305D5FFC9
S1130FE89374F50F130710006380E4066386F40610
S1130FF8834714069387A700A300F4069385040087
S113100813850900EF301046938504001385090001
S1131018EF30D02AE31E05E88347340DE38A07E856
S11310289387F7FFA309F40C6FF09FE813071700E1
S11310382309E40C6FF09FF7930505001385090055
S1131048EF30D0386FF0DFE69305400113850900CF
S1131058EF30D0496FF09FFA8347640093871700F5
S11310682303F4006FF09FF993778500638A0702DE
S11310788344640D130AA4039384340093F4F40F93
S11310888347640D63FE970093F934009385090040
S113109813050A00EF30102063040504230B340DF4
S11310A893774900E38607E08344640D130AA40395
S11310B89384140093F4F40F8347640D93873700E3
S11310C8E3C897DE93F934009385090013050A00F1
S11310D8EF30501C630C0500230B340D6FF05FDDFB
S11310E89384F4FF93F4F40F6FF09FF9938414003E
S11310F893F4F40F6FF05FFC834705001387C18DE9
S113110893F70703638607002301070023000500FC
S113111893B71700A30CF704678000000347050082
S11311289387C18D630C0700A387070023810700F9
S1131138A38C0704230005006780000003C7270069
S11311481307F7FF2381E70013071000A38CE704B4
S113115867800000130101FE2326310193891500DD
S11311682328210193990901131905012322510107
S11311781359094193D90941232C8100232A910049
S11311882324410123206101138A0600130B05005F
S113119893040600138706001385418A9306060004
S11311A813840500138609009305090093070000BA
S11311B8232E1100EF5000311307FAFF9386E4FF42
S11311C8930710001377F70F1386090093051B0084
S11311D81385418A93F6F60FEF50C02213140401C5
S11311E813540441B304990037860000930504009E
S11311F81305090093060000130606AB938484FFC5
S1131208EF50D05F9394040193D4044193050400F0
S11312183786000033044401138504009306000054
S11312281306C6AB130494FFEF50505D1314040166
S1131238135404413786000093050400130509007C
S113124893060000130686A9EF50505B930504002B
S1131258032481018320C101032901018329C100D9
S1131268032A8100832A4100032B0100138504000B
S1131278832441013786000093060000130646AA1A
S1131288130101026F509057130101FE232A9100A4
S1131298930405001385050093059000232E11007F
S11312A8232C81002326C10013541600EF60C00FBD
S11312B893070004B38787400326C1009306B5004B
S11312C81395870193F6F60F9305F0FF135585419F
S11312D8EFF05FE893058004B38585409395850115
S11312E81385C18A93D5854113065000EF401051E8
S11312F81385C18A032481018320C10193850400D5
S113130883244101130101026F40504E130101FE71
S1131318232C81002326B10013D4150093059000D3
S1131328232E1100EF60400893070004B387874019
S11313380326C1009306B500139587019305F0FFB2
S11313481355854193F6F60FEFF0DFE09305A004FB
S1131358B3858540032481018320C10193958501C8
S11313681306500093D585411385C18A13010102E0
S11313786F40D048130101FF232481009305050021
S113138813040500130510002326110023229100DD
S1131398EFF0DFF7135414009305C004B3858540B8
S11313A8939585011385C18A93D585411306500009
S11313B8EF40D044032481008320C1001385C18AEF
S11313C8832441009305E001130101016F40104299
S11313D8130101FE13066000930500001385418A7A
S11313E8232C81002328210123263101232E1100D7
S11313F8232A9100EF40104E930965001304050059
S113140893F9F90F138961916378340793056000A0
S113141813050400EF5010639374F50F93850400CB
S113142813050900EF30406A63020504938504003C
S113143813050900EF3040691306F5FF1376F60F1C
S11314489385040013050900EF30C0788320C10197
S11314580324810113850400032901018324410124
S11314688329C100130101026780000013041400DA
S11314781374F40F6FF05FF9930400006FF01FFD0D
S1131488130101FE13064000930500001385418AE9
S1131498232C81002328210123263101232E110026
S11314A8232A9100EF4010439309450013040500D3
S11314B893F9F90F138961916372340793743400B3
S11314C89385040013050900EF30C05C630205042A
S11314D89385040013050900EF30C05B1306F5FF7C
S11314E81376F60F9385040013050900EF30006C9A
S11314F88320C10103248101138504000329010108
S1131508832441018329C10013010102678000007B
S1131518130414001374F40F6FF01FFA93040000FB
S11315286FF01FFD130101FC232821031385418A51
S1131538232E1102232A910223244103232C8102FE
S1131548232631032322510323206103EF40D02CA7
S1131558A301A1001385418AEF40502D9387C18DC3
S113156883C797001307A00093846191636EF70EF5
S113157837770000939727001307C745B387E70019
S113158883A70700930905001384C18D67800700AA
S11315988347840D639A07288347F400034724008C
S11315A8639A0728630A07009307800C1305310020
S11315B86304F70EEFF09FB68347310013F7070271
S11315C86306070013071000230CE40C8346240069
S11315D81307800C6388E60293F727006382070CDD
S11315E89305000013850400EF30005D8347310044
S11315F893F71700638807149305100013850400F4
S1131608EF30805B8347310093F7870063800702DC
S1131618034724009307800C631CF71E8347640563
S1131628638607009387F7FF230BF404834731008D
S113163813F7470063040702834624001307800C4A
S1131648639EE60003476405834674051306270072
S11316586356D60013071700230BE40493F7070116
S113166863840700EFF00FDC13850400EF30C06DCE
S11316788320C10303248103832441030329010331
S11316888329C102032A8102832A4102032B01020E
S11316981301010467800000EFF01FA66FF0DFF16B
S11316A893F729006386070893052000138504002F
S11316B8EF30805013850400EF30C0389307C0031F
S11316C863D8A70013850400EF30C0546FF01FF2ED
S11316D88317A4061307E00F634EF702930520004F
S11316E81385418AEF401015631805008357840653
S11316F8938717002314F4068357C4069387270097
S11317082316F4068357A406938717002315F406B3
S11317186FF0DFED1307F00FE39AE7EC138504008D
S1131728EF30403293072000E3D2A7EC6FF09FF923
S113173813850400EF30C03693072000E318F5EA58
S11317486FF01FEA93F91900638A090A93053000B8
S113175813850400EF30404613850400EF30802ED3
S11317689307B00363C8A70013850400EF308049CA
S11317786FF05FE90317A406930720F5634EF70299
S1131788930520001385418AEF40D00A63180500A9
S1131798835784069387F7FF2314F4068357C406F4
S11317A89387E7FF2316F4068357A4069387F7FF66
S11317B82315F4066FF01FE58347E400E39407E478
S11317C813850400EF3000289307F007E3DEA7F839
S11317D80349E406930550FF13850400EF30003AEB
S11317E8130550001309F9FF1379F90FEFF04F8629
S11317F813050900EFE0DFFD6FF0DFE01385040057
S1131808EF30002A93073000E31EF5DE6FF0DFDEC9
S1131818EFF04FC1E31C05E09305100013850400A5
S1131828EF30C0376FF09FE003453100EFF0CFE4AD
S11318386FF09FE383473100631E070C13F787009B
S1131848630A07000347740D630607001307F7FFCD
S1131858A30BE40C93F747006386070213055006AD
S1131868EF50C0088347740D638A070013073006D6
S1131878631AE500130710006366F70093871700DF
S1131888A30BF40C8347310013F707026304070022
S1131898A307040093F70701E38807DC8347740D63
S11318A813071000638EE7046388070213072000F8
S11318B8E39CE7DA1306C00D9385C18D1305500622
S11318C8EF500009930640061306400693051000DE
S11318D81305C0046F00400213055006EF500001C1
S11318E893073006631AF5069306F00F130680066D
S11318F8930520001305A004EFF08FAD6FF0DFD639
S11319089306E00F13064005930520001305B00461
S11319186FF09FFE13071000A30CE40413F70702EB
S113192863060700A30704002301040093F70701D3
S1131938E38C07D28347740D6380070213071000F2
S1131948E394E7D2A3070400230104002307040057
S1131958EFF04F866FF05FD1EFF08FA86FF0DFD014
S11319688347840DE39207EC8347240063860700CA
S113197813053100EFF08FFA8347310013F787001E
S11319883336E000630E0700034744009306600003
S1131998630607001307F7FF9376F70F2302D400B3
S11319A8A303C40013F747003336E00063000702BB
S11319B803474400930550009306000063E6E500DE
S11319C8130717009376F70F2302D4002304C400E7
S11319D813F707026306070013071000230CE40C2F
S11319E893F70701E38207C883474400B7750000EB
S11319F89385C54F93972700B385F50013064000D8
S1131A0813050101EFE05FAF8347010113091000DB
S1131A1863802707638C0702130720006380E71E8F
S1131A280349310113850400EF30C002636A2507B6
S1131A381306C004930520001305F004EFF0CFC289
S1131A4893072000A304F4006FF01FC2834511011B
S1131A5813850400EF30C005E31425FD9306400602
S1131A681306E005930520001305D0046FF0DFE8A2
S1131A7883451101138504009385350093F5F50F0B
S1131A88EF30800493075000E31CF5F893064006F2
S1131A9813068005930530001305E0046FF0DFE5B5
S1131AA893064006130660049305200013050005F9
S1131AB86FF09FE493071000A30CF40483473100EC
S1131AC893F707016388070683474400B775000046
S1131AD89385C54F93972700B385F50013064000F7
S1131AE813050101EFE05FA137990000130509F61A
S1131AF8EF40503C130509F6EF40D0288347010115
S1131B0863840704130710006388E704138504003B
S1131B18EF20507483453101B305B5409395050111
S1131B2893D5050113850400EF3040069307100090
S1131B38A304F4008347310093F70702E38607B24E
S1131B48930710006FF01FF08345110113850400FB
S1131B58EF30800E6FF09FFB83451101138504005D
S1131B68EF30C00E6FF09FFA8347840DE39E07CAD7
S1131B78834724006386070013053100EFF00FDA6A
S1131B888347310013F78700630E070603473400C1
S1131B9893064000630607001307F7FF9376F70FD1
S1131BA813071000A301D400A303E40013F74700AC
S1131BB86302070603473400130630009306000047
S1131BC86366E600130717009376F70F13071000F0
S1131BD8A301D4002304E40013F7070263060700F3
S1131BE813071000230CE40C93F70701E38E07A6F0
S1131BF803493400930940006316390313050000B0
S1131C086F00403103477400E30207FAA30304009A
S1131C186FF0DFF903478400E30007FC23040400A2
S1131C286FF09FFB9305A00013050900EF50C077E0
S1131C38B7770000938787513385A700034A550077
S1131C489305090013850400EF20D064631205028C
S1131C5813850400EF2090606376450393064006DD
S1131C681306600493052000130530056FF0DFC8E0
S1131C789306400613066005930520001305100516
S1131C886FF09FC71306A0049305200013052005D1
S1131C98EFF08F9DA30434016FF01F9D930710008C
S1131CA8A30CF4048347310093F70701638E0706F6
S1131CB837990000130509F6EF40D01F130509F6FC
S1131CC8EF40500C834934009305A00013850900A4
S1131CD8EF50806DB7770000938787513385A7004D
S1131CE8034955009385090013850400EF20907378
S1131CF813850400EF209056B305254193950501FB
S1131D0893D5050113850400EF20D0680347640DBB
S1131D1893073000A304F4009307F00F6316F70049
S1131D2883473400230BF40C8347310093F70702ED
S1131D38E38C0792930730006FF0DFD0138504001B
S1131D48EF205050930750006312F5021306200049
S1131D58930500001385418AEF40C03763140502D8
S1131D68EFE09FAD93076000A304F400034531003E
S1131D7893061003130640FF93850900EFE09FC9FB
S1131D886FF09F8EEFE05FAB9307700093064006F9
S1131D98130620089305100013054005A304F40056
S1131DA8EFE01FE36FF09FFC8347840DE39E07A6D3
S1131DB883472400130770066382E71C636EF708E1
S1131DC8130750066386E712636AF7166398077C5D
S1131DD803453100937705026386070093071000D3
S1131DE8230CF40C938509009306100313060000D2
S1131DF8EFE05FC2834731009389418F93F707016E
S1131E08638A074603471400834764006374F746EC
S1131E181385418FEF305022631E05448347140015
S1131E28639A073AB79A000013858AD3EF4090085B
S1131E3813858AD3EF40007513850400EF20D05B27
S1131E481385418FEF30901B834714009387170045
S1131E58A300F4006F0000421307A006638EE73264
S1131E68636CF704130780066384E7161307900668
S1131E78E390E7F693071000A30CF40483473100BA
S1131E8893F70701638207FE13050401EF208077A7
S1131E98930505001305B405EFE00FE8631E052A52
S1131EA88345740613850400EF2050649307B00635
S1131EB82301F4006F00C005138717F99306C003C4
S1131EC8E3E8E6F0034731009387F7FF93F7F70F4A
S1131ED82301F40013770701631607001307F006BC
S1131EE86394E7F8930750062301F4006FF0CFF7E3
S1131EF893071000A30CF4048347310093F70701F8
S1131F08638407F60347B4059307F00F6318F700D3
S1131F1813058000EFE0DF936FF00FF58347C405E6
S1131F2863860700930760066FF01FFC83477406F7
S1131F38638C07F2930790066FF01FFB930710005A
S1131F48A30CF4048347310093F70701638E07F069
S1131F580347B4059307F00FE30CF7FA8345C40568
S1131F68930780062301F4001305040193078000F6
S1131F78A302F400EF2080716FF00FEF93071000B5
S1131F88A30CF4048347310093F70701638E07EC2D
S1131F9893078006130904012301F40013050900BB
S1131FA893078000A302F400EF20C06593050500A1
S1131FB81305B405EFE04FD6930505001305090092
S1131FC8EF20C06CA3000406230204066FF0CFE9D7
S1131FD883475400930A100063F2FA04B799000087
S1131FE8138509FCEF40006D138509FCEF40805907
S1131FF80345540013751500EF4050359305400010
S11320081385418AEF40001A630005E683475400AC
S11320189387F7FFA302F4006FF00FE59309040117
S113202813850900EF20805E130A0500631A051062
S1132038379B000013050BF7EF40C06713050BF738
S1132048EF4040541305A000EFE09F800345E406E9
S11320589305A0001305F5FFEF500035B775000090
S11320689385C55AB385A5001306A000130541003E
S1132078EFE08FC813850900EF20C058930740008C
S11320886308F50813063000930500001385418A98
S1132098EF40400463ECAA000346C1008345B10045
S11320A81385418AEF400003130A0500B7071CFF94
S11320B89387B7FC2328F100B7075B009387A7FE33
S11320C8232AF1001306C0009307D00E93050000DD
S11320D81385418A231CF100A3054401EF30907F46
S11320E89307400063E6A70293070102131515003E
S11320F83385A700835505FF930924071385090031
S1132108EF3050029305100013850900EF301002D8
S11321180346A100834591001385418AEF30907BE3
S113212893050500A30AA40413850400EF20503E78
S113213893071000A30CF404930740066FF0DFDA4A
S113214813850900EF20004C930505001305B40519
S1132158EFE08FBC63060500930770066FF0DFD8C5
S113216813850900EF20004A93074000E312F5DACB
S11321788345C4059307A0062301F40093D72500DB
S1132188230CF4041385040093071000A30CF4042F
S1132198EF20D0396FF04FCD93071000A30CF4044F
S11321A88347310093F70701638007CC1385040044
S11321B8EF20D009E31E05D4379400001305C4CCDE
S11321C8EF40404F1305C4CCEF40C03B13059000CB
S11321D86FF05FD41385418F1306010193850400C2
S11321E8EF30C01E1385418FEF3000696318050076
S11321F8034701019307F00F6304F70613850900E9
S1132208EF30806763040514379A000013058AD3F6
S1132218EF40404A13058AD3EF40C036130A000042
S1132228930A500093050A0013850900EF304014FF
S1132238EF201074630A050093050A00138509004A
S1132248EF300013EF209076130A1A00137AFA0F6E
S1132258E31A5AFD13850400EF20101A6FF0DFBE4D
S1132268930640061306E005930510001305500570
S1132278EFE01F968347140063820708034764004E
S113228863FEE70613850900EF30005B6318050653
S11322988347310093F78700638207061385040098
S11322A8EF20407A634C050413850400EF208079FD
S11322B89307A00363C4A704379A000013058AF39D
S11322C8EF40403F13058AF3EF40C02B1385040009
S11322D8EF2040779305D00013057500EF40D06ECA
S11322E89375F50F13850900EF308008EF20906A85
S11322F89305100013850400EF20500A1385090084
S1132308EF308057631C05020347140083476400B9
S11323186316F7021306B4059385040013850900B0
S1132328EF30C00A83473100230D040493F70701F3
S113233863820702930750062301F4009385418AB8
S113234813850900EF30C0466FF00FB2834764006D
S11323586FF01FB09307B0FA6FF01FFE8347310088
S113236893F707036388070013058000230D04040B
S1132378EFE00FCE0345310093061003130640FF28
S113238893850900EFE00FE993071000A30CF40408
S11323986FF08FAD834724009309C006638837051F
S11323A863EEF9081307B0066390E7AC0345E40647
S11323B89305A0001305F5FFEF40107FB7750000E3
S11323C89385C55AB385A5001306A000130501011A
S11323D8EFE08F9203464101834531011385418A19
S11323E8EF30504F2305A400230134019307100054
S11323F8A30CF4048347310093F70701638607A607
S11324088347A400638E070437990000130589F4F1
S1132418EF40402A130589F4EF40C0168345A40011
S11324289307D0062301F400138504009307800062
S1132438A302F400EF20D0146FF00FA31307D00603
S11324486386E7021307E0066390E7A29307100088
S1132458A30CF4048347310093F70701638607A0AC
S1132468EFE08FBD930760006FF0CFDD03455400A4
S113247893071000E3E0A7B813850400EF20005D7C
S1132488E30C05D213050401EF20C01793072000BD
S1132498E318F5FC13850400EF20C063130A050054
S11324A813850400EF2000689309050013850400D0
S11324B8EF20C06463160A0063940900E30205FA76
S11324C813066000930500001385418AEF3090409D
S11324D8E31805F863140A00638C0900EFE05FEF62
S11324E89307E0062301F400230CA4046FF0DFE94A
S11324F8EFE01FF99307E0062301F40013056500D4
S11325086FF09FFE93071000A30CF4048347240084
S1132518130710006380E704130720006384E700AF
S11325286FF08F9413850400EF20C05A130405003C
S113253813850400EF20005F63140400630405009E
S1132548EFE01FE913850400EF201009EFE0CF82C4
S11325586FF0CFEA8347310093F7070163940700CC
S11325686FF08F90930720006FF01F988347840DB6
S113257803453100639C07AA8347E40093060008D7
S11325886384070093061003130640FF938509002C
S1132598EFE04FC883472400638807001305310020
S11325A8EFE0DFB76FF04F8C8347310013F7070272
S11325B86306070013071000230CE40C93F7870045
S11325C8638807009305100013850400EF20005D5D
S11325D813850400EF2000479307F00763DAA70286
S11325E80345E406930715002307F406EFE04F9E1E
S11325F89305000013850400EF2040581385040058
S113260893055002EF20005813055000EFE04FA443
S11326188347B400639407006FF00F8513850400A3
S1132628EF204042930700056304F5006FF0CF8361
S11326388345B40013850400EF2080698347B40000
S1132648A3050400230AF4048347C400A30AF4047A
S1132658930740062301F40037940000130544D27D
S1132668EF40400583C7C18C638407006FE0DFFF38
S1132678130544D2EF3010716FE01FFF130101FFFF
S11326881385418A23261100EF3010191387418BD3
S11326986302050283470700638607009307C007A0
S11326A82300F70083470700639A07009307100085
S11326B82300F70083470700638007029387170006
S11326C893F7F70F2300F7001307D0076396E70083
S11326D8130720002389E18A8320C1001301010123
S11326E867800000130101FF130620009305000012
S11326F81385818B23261100EF40904937950000FC
S1132708130585FDEF30107B8320C1003795000049
S1132718130505EE130101016F30D066130101FFA3
S1132728232481001385418A232611002322910042
S1132738EF30900E930405001385418AEF30100F93
S11327489387818B83C727001384818B6386070053
S11327589387F7FF2301F400137545006304050606
S1132768834704001307F0006366F7009387170094
S11327782300F400834714001307F0016366F7008D
S113278893871700A300F40093F70401638A0700F2
S1132798EF40000AEF301070130740002389E18AE4
S11327A893F4040263860400930780122311F4004F
S11327B88320C10003248100832441001301010103
S11327C867800000230004006FF0DFFA130101F8AA
S11327D8232E7105232E1106232C8106232A910604
S11327E823282107232631072324410723225107BD
S11327F823206107232C8105232A91052328A10579
S11328082326B10503CB0600937BFB07938B1B00A0
S113281833857501634805341305F0076344B534FB
S113282883C8160013F5F803130515003308C5000B
S1132838634A08321308F0036346C8329359F641D1
S113284813D86840B3CAC90093988801B38A3A4137
S113285893D8884193F97900B389C90023261101D3
S1132868135B7B001378180093FA7A0093D93940E4
S1132878635A060063880A00130680009389F9FFE7
S1132888B30A56411306100033165601135E350079
S11328982328C1001375750063040500130E1E0078
S11328A893F71700130A000063840700138AFBFFD9
S11328B8938C0600B7A60000138C0500130670005D
S11328C89308000113050000130D0000930D000088
S11328D8930E100013834181130F7000930FF0FFC0
S11328E8938686429302100063DECD279305100079
S11328F893D338009393030193D30301B3837C00E8
S113290883C3030013F4780093841800B3D383407B
S11329189394040193F3130093D40401638C030088
S1132928938515009395050193D505419388040073
S11329386FF01FFC6390D51993D53400B385BC00A0
S113294803C9050093F4740033599940938428000B
S113295813791900939404011309190093D40401F9
S1132968930800006302191F630E0B00B305C3002C
S113297863160800B305CF40B305B30083C505004B
S11329883365B5001306F6FF1376F60F9305F00FBB
S11329986314B61A630A050E3384B9011314840147
S11329A81354844163428F0E33064C019305F00798
S11329B863ECC50C83250101232EE102232C51026B
S11329C8232AD1022328F1032326E10323246102C5
S11329D82322D10323201103232E0101232CF100E8
S11329E8232AC101EF40501C131505011355050195
S11329F8032E4101832781010328C1018328010291
S1132A08832E410203238102032FC102832F010372
S1132A1883264103832281030327C103634A0402F3
S1132A2893157400B3858501B38545019313850116
S1132A383386D50093D3834103060600630A070C43
S1132A48B3E3C30093F3F30FB385B6002380750093
S1132A58638C0A02630AE4036348F403130414004E
S1132A681314740033048401330444013306D4007A
S1132A7803460600135585006302070A3365A6005A
S1132A88338486002300A4000326C100635406008F
S1132A9813481800130D1D0063880708130AFAFF6A
S1132AA863487D09938D1D00138AFBFF130D0000F5
S1132AB86F0000089385F5FF3399BE0013091900C8
S1132AC8131909011359090193030000E3DAB3E860
S1132AD893D83400B3881C0183C8080013F4740025
S1132AE8B3D8884093F81800638A0800B3987E0026
S1132AF8330919011319090113590901938414009D
S1132B089394040193D40401938313006FF01FFC7E
S1132B1893C3F3FFB37376006FF0DFF21345F5FF49
S1132B283375C5006FF0DFF563587D03130A1A0087
S1132B381306700013050000938818009398080181
S1132B4893D808016FF01FE2338B6241137BFB0FAC
S1132B58938804006FF05FD9938D1D00130A000059
S1132B686FF0DFF48320C10703248107832441071E
S1132B78032901078329C106032A8106832A4106FA
S1132B88032B0106832BC105032C8105832C4105E6
S1132B98032D0105832DC10413010108678000007A
S1132BA8130101FE232C8100377400001304C4654B
S1132BB8232A9100232821012326310123244101BA
S1132BC8232E110093044401B7990000130AA5FFAA
S1132BD8835504008347240013070000B305BA0093
S1132BE893950501B337F000938609A913062001CC
S1132BF893D505411385018A13044400EFF01FBDE2
S1132C08E39884FC8320C1010324810183244101C6
S1132C18032901018329C100032A81001301010248
S1132C2867800000130101FC232A91021385C18DDA
S1132C38130505012328210323263103232E11021A
S1132C48232C810223244103EF10D01B9307400057
S1132C58130905009384C18D9309F0056314F500E5
S1132C689309F0071304E0FF378A00006354340320
S1132C7813050400130404019306000013064AA76D
S1132C889305200313140401EF40403713540441FF
S1132C986FF0DFFD930740006302F902B786000076
S1132CA89307000013071000938686CC130660036D
S1132CB8930500071385018AEFF05FB11386018538
S1132CC8930600009305B0FF13057007EF40003327
S1132CD81386018593060000930500001305C007B9
S1132CE8EF40C031B7374A689387A7202322F10001
S1132CF8B7270000938787E22314F1009307D000D5
S1132D082305F100B727131D03C5E4069387E7E1FC
S1132D182326F100B73700009387C7E22318F10090
S1132D289305A000930770021305F5FF2309F1002A
S1132D38EF408067B77500009385C55AB385A50031
S1132D481306A00013054101B7940000EFD0CFFA91
S1132D58130400009384C4A1130980008347D1019C
S1132D68B3D7874093F717006388070293172400A3
S1132D78B387F40003A607009307C100B38787004D
S1132D8883C5070093074100B387870003C507007D
S1132D9893060000EF40802813041400E31024FD78
S1132DA88320C103032481038324410303290103EA
S1132DB88329C102032A81021301010467800000E8
S1132DC8130101FF23248100B78600002322910008
S1132DD8232021019307000013090500130710009D
S1132DE81385018A938646281306200093840500D8
S1132DF89305D00423261100EFF05F9D1385018A03
S1132E0893070000130710009306090013068000B7
S1132E189305F005EFF09F9BB78600001385018AA0
S1132E289307000013071000938606FC130610028C
S1132E3893051005EFF09F99B79600001385018A52
S1132E489307000013071000938686B01306300317
S1132E5893051005EFF09F97B786000093070000CD
S1132E681385018A13071000938686DE1306E00192
S1132E7893055000EFF09F951384C18D8347840D0B
S1132E886390070483457400379600009306000096
S1132E98130606BF93C5150013051002EF4000166C
S1132EA8834584003776000093060000B335B000EC
S1132EB8130606679385B50313051002EF40001443
S1132EC893054005130650031385C18AEF30001398
S1132ED89305C001639404009305D0011385C18A46
S1132EE8032481008320C1008324410003290100B5
S1132EF8130101016F30800F130101FD23248102A6
S1132F08232E3101130405009389050013050600D7
S1132F189305A0002322910223202103232C41019D
S1132F28232A51012326710123248101232291019B
S1132F382320A101139C09012326110223286101DE
S1132F4813140401EF40404637790000130D0500BF
S1132F58135404019304000013098951B78C000029
S1132F68135C0C41B78A000093894900130A500086
S1132F78B3079D00B307F9009315040103CB0700B9
S1132F88130710009307000093860CD113060C0056
S1132F9893D505411385018AEFF05F831305340047
S1132FA8131505011304D40093060B0013860AB500
S1132FB893850900135505411314040193841400DF
S1132FC8EF40C00313540401E39444FB8320C1027B
S1132FD80324810283244102032901028329C101B4
S1132FE8032A8101832A4101032B0101832BC10098
S1132FF8032C8100832C4100032D010013010103DC
S113300867800000130101FA232441052322510596
S1133018232E7103B77A0000939B0501232C8104A6
S1133028232A91042326310523206105232C8103B7
S1133038232A9103232E1104232821052328A103DD
S11330482326B10393040500130B060013040000A0
S1133058138A418F938A4A6B93DB0B41B78C000028
S1133068938945009305040013050A00EF204030B6
S113307893050500130640001305C101EF40002F16
S11330881305C101EF208028130905001305C101A8
S1133098EF204027130D05001305C101EF20400D53
S11330A82326A1001305C101EF200021930D05007B
S11330B8131529003385AA00832605009307000009
S11330C81307100013860B00938504001385018AE7
S11330D8EFF0CFEF0328C100631E0800639C0D00C6
S11330E893060D0013860CB59385090013853400E7
S11330F8EF30D07013041400B3049B001374F40F5E
S11331089307500093F4F40FE31EF4F48320C105ED
S11331180324810583244105032901058329C10466
S1133128032A8104832A4104032B0104832BC1034A
S1133138032C8103832C4103032D0103832DC10236
S11331481301010667800000130101FF2324810095
S11331582322910093060500938405001385018AB0
S1133168930700001307100013061002930580004C
S113317823261100EFF08FE51385018A03248100CB
S11331888320C10093860400832441009307000030
S1133198130710001306D0029305700013010101F0
S11331A86FF0CFE2130101FF23248100B7860000EA
S11331B89307000013071000938686AC13061001CA
S11331C89305F0021385018A232611002322910016
S11331D823202101EFF08FDF3789000093070000D7
S11331E813071000930649CF1306A0019305B002F4
S11331F81385018AEFF08FDD930700001307100091
S1133208930649CF1306A001930590041385018AF8
S1133218EFF0CFDB9384418B83C70400639E0704DC
S113322813071000930649CF1306A0019305A003C2
S11332381385018AEFF08FD9B78600009307000041
S1133248130710009386C6AD1306E0029305A00188
S11332581385018AEFF08FD7032481008320C100EE
S11332688324410003290100930510001385418A32
S1133278130101016F30402DB78600001385018AC0
S113328893070000130710009386C6EA1306A001EB
S11332989305A003EFF08FD3B78600001385018A46
S11332A89307000013071000938646B11306E00243
S11332B89305C002EFF08FD103C504009305F00015
S11332C81304F004EF3050771379350093040000A9
S11332D8E38424F9131504011304240013061000CD
S11332E89305100313550541938414001314040122
S11332F8EF20507493F4F40F135404016FF05FFD3E
S1133308130101FF23229100B77600009307000000
S113331813071000938606741306600093050000D3
S11333281385018A2324810023261100EFF00FCA94
S11333389387818B03C71700930700021384818B3B
S11333486312F702B7860000930700001307100002
S11333589386466B13065003930500031385018A6D
S1133368EFF0CFC683472400638E070083463400FA
S1133378379600001306C6B8930580031305800723
S1133388EF30D047032481008320C1008324410007
S1133398930510001385418A130101016F30C01A87
S11333A8130101FB23248104232021059387C18D64
S11333B82326110423229104232E3103232C4103B1
S11333C8232A510323286103232671032324810319
S11333D8232291032320A103232EB10183C797003D
S11333E81307A0001384C18D130910006366F73E08
S11333F8B776000013972700938686483307D700CB
S1133408032707006700070083148406B7990000A0
S11334181309F00793E4C4FF13850400938444005C
S11334289394040193060000138649A893050000A9
S113343893D40441EF30903CE35099FE83148406FE
S1133448379A000093E404F8379B0000930AF00FBE
S113345813890900938504009307000013071000DB
S113346893068AC4130600001385018A9394040101
S1133478EFF0CFB593D404019385740393950501B4
S1133488930700001307100093068AC41306D0FF9D
S113349893D505411385018AEFF04FB39385A405AD
S11334A893840408939505019394040193070000F9
S11334B8130710009306CBC51306300093D50541B6
S11334C81385018A93D40441EFF04FB0E3D49AF8FA
S11334D88387A1871307F0049384A187634AF708B5
S11334E83707FFFE130707F02322E100370701021D
S11334F81307F70F2324E100130720002306E10034
S1133508370700809395070113077700938707040B
S1133518B3F7E7000315A406B78600003796000042
S113352893D5054163D807009387F7FF93E787FF8F
S11335389387170013070101B307F700838747FF31
S1133548130585F6130700003305F5001315050167
S113355893070000938606CE130646C71355054104
S1133568EF30902883C704009387F7FF2380F40083
S11335780315A406EFF0CFE213050000EFD0CF8CBB
S11335880355A4068344F406B79600003786000062
S1133598B384A4009394040193D404011385F4FD23
S11335A81315050193070000130700009386469638
S11335B81306C6129305400013550541EF30D02277
S11335C81385A4FD37860000131505019306000032
S11335D8130686739305600113550541EF301022D5
S11335E81385A400B786000037960000131505015B
S11335F89307000013070000938606B3130606BD5D
S11336089305C00013550541EF30101E8347E400AD
S1133618638207021385A4FF37760000131505019A
S1133628930600001306C667930540021355054127
S1133638EF30D01C0355A40683440407B796000052
S113364837860000B384A4009394040193D404013E
S1133658938964FE9399090193D90941930700005A
S1133668130700009386869B1306C6219305100052
S113367813850900EF30501713856401378A000059
S1133688131505019306000013060A679305000243
S113369813550541EF309016138534FD13150501B4
S11336A89306000013060A679305000213550541A3
S11336B8EF30D01437960000930600001306868670
S11336C89305100113850900EF3050138347E40074
S11336D8638207021385A4FF3776000013150501DA
S11336E8930600001306C667930540021355054167
S11336F8EF30D01013051000EFC01FF58314A40693
S113370893050003930AF00713850400EF30D02BC8
S1133718930500FDEF305049938404FDB3049500EC
S11337289394040193D40441377A0000B7990000B4
S113373863C89A0213850400938404039307000062
S11337481307000093060A69138689B59305F002E6
S113375893940401EF30500993D404416FF05FFD52
S11337680315C406B70700809387F7003375F5007F
S1133778635805001305F5FF136505FF13051500C8
S1133788130505FF9314050193D40441377A000007
S11337989309F007138504009384040193940401A6
S11337A89306000013060A6F9305200393D404417B
S11337B8EF30D004E3D099FE1386018A9306000003
S11337C89385418A1305A403EF10006B13052000A9
S11337D8EFC09FE71309000083C78187938481871B
S11337E86388070693090000130B0008930A000472
S11337F883C60400139609011307000013560641F3
S1133808930500001385418AEF20903283C6040093
S1133818138619009389290013160601939909013F
S11338281307000013560641B305DB401385418A8C
S113383893D90901EF20D02FE39C59FB83C70400D7
S11338486388070003C71400B387E7402380F400A4
S11338588347840D638A0706930600041306A004AD
S11338689305F0FF13057003EFD0DF8E13061000E5
S11338789305A0041385C18AEF20407893060000BD
S11338881386C1819305200013051004EF300077D7
S11338989306000013864182930520001305400710
S11338A8EF30C0758347B40D130A100093840900E0
S11338B86386477B638C076213072000E38EE70265
S11338C813073000E388E70E8347F400638407088E
S11338D8834724006390070813055006EF3000015E
S11338E89309050093073006130520006394F90033
S11338F81305300093058005EFD05FA1130640003F
S1133908930580021385C18AEF20406F93057000E8
S11339181385C18AEF20806D930730066398F900F8
S1133928930580001385C18AEF20406C0345740D0C
S113393893059000EF3050279305550093950501A2
S1133948930600001386418293D505411305E001CF
S1133958EF30C06A83479405638E070A0345A405BC
S1133968834724001307800CE31E050CE396E70E37
S11339789305200813052000EFD05F991306500023
S1133988930580001385C18AEF2040678347640547
S1133998834584051385C18AB385F500938545025B
S11339A893F5F50FEF2080649305A0001385C18A71
S11339B8EF20C04483476405834584051385C18A81
S11339C8B385F5009385550293F5F50FEF20006252
S11339D883476405638C07009306000013860183FC
S11339E89305500013054007EF304063834764058F
S11339F8034774059387270063DCE70093060000F8
S1133A08138681839305300113054007EF30006165
S1133A18A30C0404032481048320C10483244104E3
S1133A288329C103032A8103832A4103032B010346
S1133A38832BC102032C8102832C4102032D010232
S1133A48832DC10193050900032901041385418AC3
S1133A58130101056F200063834744003785000084
S1133A689305100013972700B77700009387C74F73
S1133A78B387E700130585ED83C43700EFF04FB42F
S1133A8883474400130750006370F702130760006C
S1133A986388E7161305A403EF00D07BEFC01FC3A8
S1133AA8130910006FF05FD39305500013850400C9
S1133AB8EF3080789375F50F37950000130505BA34
S1133AC8EFC0DFB08344440093072000B7860000AA
S1133AD863E0970A93070000130710009386066EA5
S1133AE813063001930550001385018AEFE01FCEB9
S1133AF8834744009386018413972700B7870000FF
S1133B08938707E7B387E70083A407001307000038
S1133B189307000013067000930580011385018A3A
S1133B28EFE0DFCA93070000130710009386040030
S1133B3813067000930580011385018AEFE01FC9FD
S1133B488347440037870000130787E593962700C7
S1133B58B7870000938707DD3307D700B387D700FB
S1133B688325070003A50700EFF00FDE6FF09FF22F
S1133B781385018A93070000130710009386066EC5
S1133B881306300193055000EFE05FC4B7890000C5
S1133B98938609721385018A9307000013070000AE
S1133BA8130600019305D000EFE05FC293070000FD
S1133BB813070000938609721385018A130600010E
S1133BC89305C0029384D4FFEFE05FC093F4F40F2D
S1133BD83789000093860400130609F593058000CD
S1133BE81305D000EF30804393860400130609F5CB
S1133BF8930580001305C002EF3040426FF05FF474
S1133C08B7960000379600009307000013070000DA
S1133C189386C6BF130686A39305300213053005A1
S1133C28EF30803CB78600001385018A93070000B3
S1133C38130710009386C6E71306A0009305F00047
S1133C48EFE0DFB8B79600009307000013071000F1
S1133C589386C6C8130620029305C0001385018AFB
S1133C68EFE0DFB66FF01FE337850000930500002F
S1133C781305C5EFEFF0CF94834434009307300065
S1133C8863E097089305A00013850400EF30C07122
S1133C98B7770000938787513385A70037870000DB
S1133CA8B7870000938787E493942400130787EC6D
S1133CB833079700B3849700832507000349550009
S1133CC803A50400EFF04FC893055000130509003D
S1133CD8EF3080569375F50F37950000130585BBB3
S1133CE8EFC0DF8E034634009305B000130550007F
S1133CF8EFF08FA01305A403EF0050566FF01FDAFE
S1133D08B7960000379600009307000013070000D9
S1133D189386C6BF130686A39305300213053005A0
S1133D28EF30802CB78600001385018A93070000C2
S1133D38130710009386C6E71306A0009305F00046
S1133D48EFE0DFA8B7960000930700001307100000
S1133D589386C6C8130620029305C0001385018AFA
S1133D68EFE0DFA66FF01FF9938797FF93F7F70F3C
S1133D7813071000637AF7001306D0009305A00018
S1133D8813050000EFF00FA8379600009306000013
S1133D981306C6CB9305000013054003EF30002635
S1133DA8834714008346640037760000130646717F
S1133DB8B386F64093F6F60F9305200013058003A7
S1133DC8EF30C025EFE01FE6930610001386018A42
S1133DD89385418A1305A403EF10000A9386C18AC8
S1133DE81386018A9385418A13050401EF00101A8A
S1133DF883471406638E07009306000013868185A3
S1133E089305000013054004EF3040216FF05FC9AB
S1133E1883474406E38607C8930600001386018691
S1133E286FF01FFEEFE01FE01305A403EF009041BD
S1133E3837760000930600001306866D930520026A
S1133E48EF30C01B9386C18A1386018A9385418A01
S1133E5813050401EF0090136FF09FC4930500014C
S1133E681385418AEF200034630E05008347D4008C
S1133E78130740009387170093F7F70F6384E70647
S1133E88A306F4008347E40063820702B7860000B0
S1133E9893070000130710009386C69D1306C001FC
S1133EA8930500041385018AEFE05F92EFE09FD742
S1133EB8930610001386018A9385418A1305A40387
S1133EC8EF00907B8347B400E38C07BC379600006F
S1133ED88346D400130646AE9305A0021305D00505
S1133EE86FF09FF2A30604006FF0DFF9930500005A
S1133EF81385C18AEF20800F1305A403EF00903DBA
S1133F08938A619163160500EFC0CFF06FF0DF9BD1
S1133F181385C18A130620019305F003EF20000ED0
S1133F28830B240D130B000093090000938C0B00E2
S1133F38130D20009307500063CA970B13FAFC0F64
S1133F4893050A0013850A00EF001038130C0500C6
S1133F58630605069307300063EE370593055A0395
S1133F6893F5F50F1385C18AEF20400863429D0736
S1133F7813850A00EF005033B3876B016316F5020B
S1133F889305900013850900EF300042930525013D
S1133F9893950501930600001386818493D5054102
S1133FA813057007EF3080079305A0001385C18AB5
S1133FB8EF10D0649389190093F9F90F130A1A00C2
S1133FC8931C8A01130B1B0093DC8C416FF09FF642
S1133FD81385C18A93051000EF20400193050C0056
S1133FE81385C18AEF1010666FF01FFC63860902FF
S1133FF80345340D93059000EF30003B93056501AC
S113400893950501930600001386C18293D5054153
S11340181305B003EF3080008347240D638E070037
S11340283786000093060000130646DC9305D0008B
S11340381305A005EF20907E93075000E3F6378917
S11340483786000093060000130606F29305A003C2
S11340581305A005EF20907C6FF01F8793052000BF
S11340681385C18AEF1090781306E0009305F003D6
S11340781385C18AEF109078930530001385C18A9F
S1134088EF10D0761306E0009305D0061385C18A95
S1134098EF10D0769304A40313850400EF00101BDB
S11340A8930505001385C18AEF10D06113850400B8
S11340B8EF00D01A930505001385C18AEF109060AC
S11340C813850400EF00101A930505001385C18AAF
S11340D8EF10505F13850400EF00D0179305050017
S11340E81385C18AEF10105E8345E4061385C18ADF
S11340F8EF10505D6FF04FFD930540001385C18AA2
S1134108EF10D06E0346640D9307F00FE30EF6DE4E
S11341189305F0001305C003EFE01FDE1305A403A5
S1134128EF00D01D930A0500930910046364AA00E4
S11341389309900413060002938509001385C18A24
S1134148EF10D06B8345640D1385C18A9385B5033D
S113415893F5F50FEF109069130690029385090003
S11341681385C18AEF1090698345640D1385C18A4C
S11341789385F50393F5F50FEF1050679307100037
S113418863F457F53786000093060000130646DCEF
S11341989305100213051007EF20506837860000B6
S11341A893060000130606F29305C00213051007D0
S11341B86FF05FEA930550001385C18AEF1010630E
S11341C88347940013078000E360F7D4331AFA0096
S11341D8137A0A16E30A0AD21306E0009305E003E9
S11341E81385C18AEF109061930560001385C18A15
S11341F8EF10D05F1306E000930520061385C18AEB
S1134208EF10D05F930404019385C18A13850400D9
S1134218EF0000509305A0001385C18AEF10103EEB
S113422813850400EF00803E930505001385C18AB9
S1134238EF10504913850400EF00C03D93050500B5
S11342486FF0DFEA6386E7F2034634058345240505
S1134258EFD08F836FF0CFFB034794009306500091
S11342681307B7FF1377F70F63E4E6FAB77600008E
S1134278131727009386464B3307D70003270700F5
S1134288670007009387B7F993F7F70F13075000F0
S11342986360F7F837770000939727001307C74C34
S11342A8B387E70083A70700678007008344B40542
S11342B89307800363EA97049307300363F2F406D1
S11342C89307300063E697F493850181B3849500DE
S11342D803C50400EFD00F8A1385C18A93059000A3
S11342E8EF10D0508345B4051385C18A9385B5036F
S11342F893F5F50FEF10904F930510021385C18ABB
S1134308EF10D02F6FF0CFF09307F00F6392F4F013
S113431813058005EFD00F869305A0006F004002B7
S11343289387D4FC13F7F70F93878180B387E7004B
S113433803C50700EFD00F849385040193F5F50FA7
S11343481385C18A6F0000039305C0071305100085
S1134358EFC0DFFB9305B0001385C18AEF10104945
S11343688345C4051385C18AEF10D02D9305C00079
S11343781385C18AEF1090476FF08FE99305C00742
S113438813051000EFC09FF89305D0001385C18A68
S1134398EF10D04513050401EF00C026930505006E
S11343A81305B405EFC04F97930505006FF09FFB05
S11343B89305C00713051000EFC05FF59305E000EF
S11343C81385C18AEF109042834574061385C18A08
S11343D8EF1050279305F0006FF09FF99305A0079D
S11343E813051000EFC09FF2930500011385C18ADD
S11343F8EF10D03F834584051385C18AEF109024BC
S1134408930510016FF0DFF61307B00663E2E7E0E7
S11344181307C0066374F7041307E006639AE7DE1C
S11344289305A00713052000EFC05FEE9305400134
S11344381385C18AEF10903B834784051307500006
S11344481385C18A9385570393F5F50F6364F704BD
S1134458EF10D039930560016FF09FF193052008A0
S113446813051000EFC09FEA9385C18A1305040160
S1134478EF00002A930520011385C18AEF10103735
S11344888345A4001385C18AEF10D01B930530011E
S11344986FF01FEEEF109035930550011385C18A14
S11344A86FF01FFB8347E400638C07009305C00784
S11344B813052000EFC09FE5930570016FF05FE8D6
S11344C80347440583475405630A0702639A0702AE
S11344D89305E00613051000EFC05FE39305800120
S11344E81385C18AEF109030834544051385C18A2A
S11344F8EF105015930590016FF09FE7638A07D07A
S11345089305E00613051000EFC05FE093058001F2
S11345181385C18AEF10902D834554051385C18AEC
S1134528EF1050129305A0016FF09FE49305000764
S113453813052000EFC09FDD9305B0016FF05FE025
S1134548130101FF232481001385418A23261100C6
S1134558EF105047630E05081385418AEF10507F0A
S1134568EF20801CEF20400783C7218B13075000DE
S11345781384218B636EF70637770000939727001F
S11345881307474EB387E70083A707006780070030
S1134598238A018A930710002300F400EFE00F8EAA
S11345A8032481008320C100130101016FE09FBF30
S11345B8EFE04F93930730002300F400EFE00F96E9
S11345C8032481008320C100130101016FE05FD33C
S11345D8EFC04FBE930750002300F400EFC09FF4D0
S11345E8032481008320C100130101016FE05FDB14
S11345F88320C100032481001301010167800000A6
S11346086780000003450500678000000345150026
S1134618678000000345250067800000130101FF3F
S11346282324810023229100232021012326110021
S1134638138905002300C5002302050093045500CF
S1134648130485001306700193050000130509007F
S1134658EF1050282380A40093841400E39484FE6C
S11346688320C1000324810083244100032901001D
S11346781301010167800000A300B500A301B50080
S1134688678000002301B500678000008347250088
S11346981307000063F6B700B385F54013F7F50F69
S11346A8834715006378F700B387E740A300F50054
S11346B867800000A300050067800000130101FE65
S11346C8232C81001304050013850500930580003D
S11346D8232E11002326C100EF10D02C630E0500F1
S11346E8834744000326C1009387170093F7F70F05
S11346F8630CF6002302F4008320C1010324810122
S11347081301010267800000230204006FF0DFFE3A
S1134718130101FE93070500232E110083C6070029
S11347281307400013850500638CE6049306810093
S11347383798000023070100138657001387870062
S113474893850600130848048347060013061600D9
S11347589386260093971700B307F80083C80700C9
S113476883C71700238F16FFA38FF6FEE31EC7FC2B
S1134778EF1000698320C101130101026780000062
S113478893050002EF1090066FF0DFFE130101FE9F
S1134798232C8100232A9100232821012326310177
S11347A8232E1100232441018347050013074000E9
S11347B81304050093840500130906009389060071
S11347C8636EF704379700001307070393972700CE
S11347D8B387E70003A7070083474500670007007E
S11347E8B79600009397270093860654B386F6007D
S11347F883A606009307000013071000130620027F
S11348089305600513050900EFD05FFC130630001B
S11348189385040013050400EFF05FEAB7960000DF
S113482893070000130710009386461B1306000025
S11348389305900413050900EFD05FF903471400AA
S11348489307700063F0E71A034714009307700096
S113485863E2E71A034704009307400013061000B5
S1134868930500056314F7009305E0041385090014
S1134878EF10C07813050400032481018320C101CB
S11348888324410103290101032A81009385090036
S11348988329C100130101026FF09FE7B796000056
S11348A893972700938686136FF05FF4B7960000FA
S11348B8939727009386461AB386F60083A60600C4
S11348C89307000013071000130620019305B00492
S11348D813050900EFD09FEF130640006FF05FF354
S11348E81387C188B307F70083C50700379600000C
S11348F8930600001306C64B9385A5011305B0045F
S1134908EF20C0710347440093878188B387E70089
S113491883C50700B7960000379600009307000088
S1134928130700009386C6511306864993855501DB
S11349381305C004EF20406B37960000930600006F
S11349481306C64F9305A00213054005EF20006D1A
S11349586FF0DFEB13874188B307F70083C50700BF
S113496837960000930600001306461493855501F4
S11349781305D004EF20806A034744009387C18756
S1134988B387E70083C50700B79600003796000091
S113499893070000130700009386C6241306860CA9
S11349A89385E50113051004EF20006403474400D0
S11349B893870188B387E70083C50700B79600008B
S11349C837960000930700001307000093860646F5
S11349D8130606109385E50113056006EF20C060F1
S11349E86FF09FEF9305000213850400EF108066B3
S11349F8E30C05E4034514009305100213090000B1
S1134A08EF20901A83453400EF20007C130A050038
S1134A18E35249E59305B9041307100093062000EF
S1134A281306A0001385040013092900EF10D0070A
S1134A381379F90F6FF0DFFD93071000A306F50053
S1134A4867800000031565016780000003450500C1
S1134A5867800000034515006780000003452500B2
S1134A68678000008347E5001307400003453500CD
S1134A786380E70213972700B797000093870756C8
S1134A88B387E70083C727003305F5001375F50FCF
S1134A9867800000B305B50003C595006780000072
S1134AA80345D500678000000345E50067800000E2
S1134AB8B305B50003C5F50067800000B305B5006C
S1134AC803C5250167800000B305B50003C5F500DB
S1134AD8678000001307F5009307550113050000CC
S1134AE88346070063860600130515001375F50F42
S1134AF813071700E316F7FE6780000013079500F5
S1134B089307D50013050000834607006386060053
S1134B18130515001375F50F13071700E316F7FEB1
S1134B286780000083472501034735010345450194
S1134B38B387E7003385A7001375F50F6780000076
S1134B481307F5009307000013050000930660009F
S1134B5803460700630806006380F502938717007D
S1134B6893F7F70F130515001375F50F13071700BF
S1134B78E310D5FE1305F00F67800000231BB50072
S1134B88678000002302B50067800000A300B50019
S1134B98678000002301B50067800000A303B50007
S1134BA8638405002304050067800000B305B5008D
S1134BB8A384C500678000008347D5006386B700D7
S1134BC8A306B500A3020500678000002307B5000B
S1134BD8678000009307300063EAB7008347E50065
S1134BE86396B700930740002307F5003305B50023
S1134BF8A307C500678000009307C0002303F500DE
S1134C08678000008357650193871700231BF5000D
S1134C1867800000835765019387F7FF231BF5001E
S1134C2867800000B305B50083C795009387170014
S1134C38A384F50067800000B305B50083C7F500B9
S1134C4893871700A387F5006780000093853500D4
S1134C583305B5008347F50093871700A307F500CC
S1134C6867800000938535003305B5008347F50058
S1134C789387F7FFA307F50067800000130101FE7F
S1134C88232C8100130405001385050093050600F1
S1134C98232E11002326D100EF10C050630E050007
S1134CA8834754008326C1009387170093F7F70FAF
S1134CB8638CF600A302F4008320C101032481015C
S1134CC81301010267800000A30204006FF0DFFEF5
S1134CD883471500B385B70093F5F50F63F4F50022
S1134CE89305F00FA300B500678000008347050013
S1134CF813074006B385F5009387050093F5F50F70
S1134D086374B700930740062300F500678000002A
S1134D1883472500B385B70093F5F50F63F4F500D1
S1134D289305F00F2301B500678000008347050051
S1134D3863F8F500B387B7402300F50067800000E7
S1134D48230005006780000083477500638007021D
S1134D5883478500130740019387170093F7F70FDC
S1134D682304F5006394E700A30305008347650063
S1134D78638607009387F7FF2303F5006780000025
S1134D88130101FF232481002322910013840500C9
S1134D982326110093040500EFF0DFCC93050000EF
S1134DA8637685003304A4409375F40F83C7040025
S1134DB863F0F502B387B7402380F4008320C10071
S1134DC8032481008324410013010101678000004A
S1134DD8238004006FF09FFE930740062300F5002C
S1134DE88347250093D717002301F500834715004F
S1134DF893D71700A300F5009307C003231BF500FE
S1134E0867800000130101FE2326310193890600FF
S1134E189306070013070000232C8100232A91001E
S1134E282328210123244101232E11001304050002
S1134E389384050013090600138A0700EFD01F990D
S1134E4813050400032481018320C10193070A0088
S1134E5893860900032A81008329C10013060900E7
S1134E6893850400032901018324410113071000D9
S1134E78130101026FD09F95130101FD23248102C0
S1134E882322910223202103232E310123261102F8
S1134E98232C4101232A51012328610183477500EA
S1134EA8130405009384050093090600138906007A
S1134EB86384070603478500B79700009387C754A0
S1134EC8B387E70003CA07000347D400034B640011
S1134ED8931A0A019377D70F9387F7FF93B71700AD
S1134EE893DA0A4163120B0C9306100063FAE60284
S1134EF89306300063E4E60493064000130620009A
S1134F0893850400130504002326F100130B3000D5
S1134F18EFF0DFD66F004002034A45006FF0DFFA76
S1134F2893063000130660009385040013050400FB
S1134F382326F100EFF09FD48327C10003475400D0
S1134F48B79600009386C65F3307670113172700D7
S1134F58B386E600379600001306C65A83A60600F1
S1134F68831564013306E6000327060013860A0046
S1134F7813850900EFF01FE98346E4009307400016
S1134F88638AF60A8347D400130710006380E71680
S1134F9863880704130730006382E7169307000049
S1134FA8130650006F0000050357640193051000B1
S1134FB863960700B70501009385D5FFB305B700CD
S1134FC8B796000037970000939505011307875893
S1134FD89386C67913860A0093D505416FF05FF965
S1134FE883475400130650006386070093070000A4
S1134FF8130640009395260037970000B7960000E3
S11350081307075A9386C67B3307B700B386B600DF
S1135018835564010327070083A6060093852500AA
S1135028939505013306CA4093D5054113850900B4
S1135038EFF05FDD83477400638A070E035564014C
S11350483796000093060000130525001315050183
S1135058135505411306C6579305E0026304090A6C
S1135068EF10D07BB7960000379600009307000036
S1135078130700009386865C1306867C930500005C
S113508813050000EF1050760347040093077000DF
S113509863F4E70C034704009307700063FAE70816
S11350A8034504009307400663F4A700130540066C
S11350B8930530001375F50FEF2000181379F50FD9
S11350C813040000637624079305040113071000F2
S11350D893062000130630001385040013042400EB
S11350E8EF10801C1374F40F6FF0DFFD8347540036
S11350F863860700930710006FF09FEF9307100073
S11351086FF01FEA032481028320C1028324410231
S1135118032901028329C101032A8101832A410148
S1135128032B0101130101036F10506EE31C09F2F4
S11351388320C1020324810283244102032901023A
S11351488329C101032A8101832A4101032B010117
S1135158130101036780000093050002138504000E
S1135168EF00506FE30805F26FF09FF367800000CB
S11351780345350067800000A301B5006396050068
S1135188A300050067800000930790002300F50042
S1135198678000008347350093C71700A301F50013
S11351A863940700A300050067800000230005003E
S11351B8A301050067800000130101FF2324810077
S11351C82320210123261100232291008346050070
S11351D8B7A70000138747833307D700138905004F
S11351E8834507001307F00F130405006388E508D7
S11351F81305090093844783EF00D07A63040504F8
S113520883471400130790009387170093F7F70F49
S11352186386E704A300F400034704009307170018
S113522893F7F70F2300F400B387F40083C607004D
S11352389307F00F6398F602834714006384070208
S11352482300E4008320C100032481008324410057
S1135258032901001301010167800000A300040071
S11352686FF09FFB13066000930500001305090007
S1135278EF0050662301A4006FF0DFFC834735007C
S1135288E38207FC9305200013050900EF009071E1
S1135298E30A05FA8347140013079000938717005D
S11352A893F7F70F6386E700A300F4006FF09FF904
S11352B8A30004006FF01FF903470500B7A7000017
S11352C893874783B387E70003C50700130515F0E1
S11352D83335A0006780000003470500B7A7000026
S11352E893874783B387E70003C707009307F00F43
S11352F86316F700034535006780000013051000A6
S113530867800000034525006780000003451500F9
S1135318678000003306C500630CC500938515003B
S113532883C7F5FF13051500A30FF5FE6FF0DFFE25
S113533867800000130101FF2324810023229100C8
S113534823261100130405009304450113050400E2
S113535813044400EFF09FE1E39A84FE8320C10024
S113536803248100832441001301010167800000A4
S1135378939525003305B500678000001385050063
S1135388930700006382C7049387170093F7F70F06
S1135398B386F500138707006316C70013051500C5
S11353A86FF05FFE03C806008348050063761801A2
S11353B82380160123000501130717001377F70F3D
S11353C8938616006FF05FFD67800000130101FAF1
S11353D89307A05023244105130A050013850500EB
S11353E8232C8104232A9104232631052312F10056
S11353F8232E110423282105232251052320610586
S1135408232E7103232C8103232A91032328A10328
S11354182326B1039389050013040600232C0100F5
S1135428231E010023030100EFF00FE89307400057
S113543893040000630CF50013850900EFF0CFE630
S1135448930701023385A700834445FE9307F0FFC1
S1135458130B81002300F400A300040023010400BB
S1135468A30104002306040013090A00930B4A014C
S1135478930A0B0013050900EFF0DFE82300AB00E3
S113548813094900130B1B00E3962BFF93850A00AD
S113549813050A0013065000EFF05FEE9305300081
S11354A813850900EFF00FDF6308050683479100B1
S11354B8034781006302F7060347A100638EE704EC
S11354C88347B100630AF7040347C1006306F7047E
S11354D837A9000093073000130909842300F40056
S11354E8130640009305490213051400EFF09FE2E8
S11354F8034504009305A000EF10106B3305A900C1
S113550883479500B387F4002306F400930720002B
S11355182302F400A302F40037AB000013090000CF
S1135528130B0B84930D7000130D4000137CF90FBB
S113553893050C0013850900EFF0CFD56306050E1B
S11355489305A00013050900EF101066B30CAB0017
S11355581306500093850C00930B050013050101F5
S1135568EFF05FDB130650009305010113050A00F1
S1135578EFF0DFE0834721016388B70B834601011D
S1135588034781006392E60A8346110103479100A9
S1135598639CE6080347A1006318F7080347310131
S11355A88347B1006312F708034741018347C100E9
S11355B8631CF70693856B002300840113064000DF
S11355C8B305BB0013051400EFF0DFD483C79C00B8
S11355D82306F40063160C00930710002302F4005A
S11355E883471400B384F400A30094008320C10506
S11355F80324810583244105032901058329C10462
S1135608032A8104832A4104032B0104832BC10345
S1135618032C8103832C4103032D0103832DC10231
S1135628130101066780000013091900E310A9F1AA
S113563893070000130650003387FA000347070056
S113564893060102938717003387E600834687FF92
S113565893861600230CD7FEE390C7FE13050A00B1
S1135668130660009305810137AA0000EFF01FD1EB
S113567813090000130A0A84930C7000930B10009A
S1135688130C4000137BF90F93050B0013850900D5
S1135698EFF04FC0630805089305A000130509003F
S11356A8EF109050B305AA00930A050013065000A2
S11356B813050101EFF01FC683472101639497077F
S11356C88347D10163F0FB068347C10163FCFB04F4
S11356D883470101034791006386E7008346B100CD
S11356E86392F604834731016306F7000347B10068
S11356F8631AF70293856A002300640113064000C5
S1135708B305BA0013051400EFF0DFC093073000A7
S1135718E318FBEC930720002302F400A302F4002F
S11357286FF01FEC13091900E31E89F58347D101B3
S113573813075000639AE700930730032300F4002B
S11357489384D4026FF05FEA639A270193074003B6
S11357582300F4009384E4016FF01FE91307300079
S11357686398E7020347C10193072000631AF7000F
S1135778930770032300F400938494016FF0DFE629
S1135788930750032300F400938444016FF0DFE58A
S113579813072000E39CE7E40347C101E318F7E497
S11357A8930760032300F4009384A4006FF0DFE3FD
S11357B8130101FF232481002322910023202101C6
S11357C823261100138905001304050093044501D9
S11357D8130504009305090013044400EFF0DF9D4A
S11357E8E31894FE8320C10003248100832441002C
S11357F8032901001301010167800000130101FF5F
S11358082324810023229100232611001304050078
S1135818930445011305040013044400EFF01F9991
S1135828E31A94FE8320C1000324810083244100E9
S11358381301010167800000130101FF2324810083
S11358482322910023261100130405009304450123
S113585813050400EFF05FA6631605001304440063
S1135868E31894FE8320C1000324810083244100AB
S11358781301010167800000130101FF2324810043
S113588823229100232611001304050093044501E3
S113589813050400EFF05FA4631605001304440025
S11358A8E31894FE8320C10003248100832441006B
S11358B81301010167800000130101FF2324810003
S11358C82322910023202101232611001389050096
S11358D81304050093044501130504009305090006
S11358E813044400EFF05F89E31894FE8320C10099
S11358F803248100832441000329010013010101C9
S11359086780000093071000A302F5002303050035
S11359186780000003552500678000000345550093
S1135928678000002311B50067800000A302B5005A
S113593867800000034865006310E83803470500E2
S1135948130870001307E7FF1377F70F6366E83649
S1135958130101FE23244101138A0700B7A700009D
S113596893878786131727003307F70083270700D1
S1135978232C8100232A9100232821012326310185
S1135988232E1100138406009309060013890500C9
S113599893040500678007001384A6FF8356250037
S11359A893070000130700003304D4001314040100
S11359B813540441B7A600009386868B130610027D
S11359C89305040013850900EFC05FE0B7A6000043
S11359D89307000013071000938646A613061002C7
S11359E893050400032481018320C1018324410118
S11359F803290101032A8100138509008329C100B1
S1135A08130101026FC09FDC1394060113540401AF
S1135A18035525001309B4FE131909011359090183
S1135A283305A90037A60000131505011307000064
S1135A389307000093860189130686909305A000B6
S1135A4813550541EF10405A83D72400130534FF3A
S1135A5837A600003305F500131505019306000069
S1135A68130646919305200013550541EF1000597C
S1135A7803D5240037A60000930600003305A900C7
S1135A88131505011306468F930520011355054187
S1135A98EF10C05683D72400130544FE37A6000030
S1135AA83305F50013150501930600001306469700
S1135AB89305200213550541EF10405463000A165C
S1135AC803D52400130474FF37A600003305A4008B
S1135AD89306000013068688930540020324810177
S1135AE88320C10183244101032901018329C100C1
S1135AF8032A8100131505011355054113010102F9
S1135B086F10C04F0355250037A600009307000007
S1135B183385A600B7A60000130700009386C69D28
S1135B281306069B93052002032481018320C101E7
S1135B3883244101032901018329C100032A810027
S1135B481315050113550541130101026F10C049CE
S1135B58035525001384C6FF37A600003305A400A7
S1135B6893060000130606B0930520026FF01FF792
S1135B780355250037A60000930700003385A600C7
S1135B88B7A60000130700009386468D130606AED9
S1135B98930580026FF05FF9835525009307000091
S1135BA813070000B385B60093950501B7A6000056
S1135BB89386C6891306200293D505416FF09FE2A8
S1135BC8131404010355250083C644001354040127
S1135BD863060A061304C4FF37A6000033058500CC
S1135BE8130646A9930550021315050113550541DB
S1135BF8EF10C0419305800013050900EF00805A97
S1135C08630E050083C74400130730009387170009
S1135C1893F7F70F6380E7042382F4008320C1011C
S1135C280324810183244101032901018329C1003B
S1135C38032A810013010102678000001304B4FFE2
S1135C4837A6000033058500130646A193052002F4
S1135C586FF09FF9238204006FF05FFC83475500BF
S1135C68E38E07FA9305000213050900EF00803E4E
S1135C78E30605FA03D524001304B4FF83C64400DD
S1135C883305A400032481018320C1018324410135
S1135C98032901018329C100032A810037A60000D2
S1135CA813150501130686A09305B0021355054183
S1135CB8130101026F1080356780000093071000FC
S1135CC8A302B5002302F500A30005002301050083
S1135CD823000500A301F5006780000093870600F0
S1135CE8930600061307050063E2B604938505FED0
S1135CF893F6F50F9385170093F5F50F93958501A2
S1135D080307370093D585411315060193950501BB
S1135D1837A60000930710001355054193D5054194
S1135D28130686B16318F7006F10402F9385A5FDFD
S1135D386FF01FFC6F10802D130101FF23248100D5
S1135D4823229100232611002320210193F4F5072F
S1135D589307A00013040500830625006398F40242
S1135D68834715002300F50083475500B386F600E2
S1135D782301D5008320C10003248100832441002A
S1135D8803290100130101016780000003060500CF
S1135D981389050093850400EFF05FF4930700026C
S1135DA8638CF4009375F905930790046386F500F2
S1135DB893077002639AF4008347040093872700CB
S1135DC82300F4006FF01FFB9384E4FD93F4F40FB5
S1135DD81307300083470400637697001307C00451
S1135DE86396E500938737006FF09FFD03474400EF
S1135DF813073700B387E7006FF09FFC6FF0DFF3FA
S1135E08130101FF2324810023229100232611007A
S1135E18930405001384050083450400638A050080
S1135E281385040013041400EFF01FF16FF0DFFE74
S1135E388320C1000324810083244100130101014C
S1135E4867800000130101FD2324810223229102AB
S1135E58232E31012326110223202103930905004F
S1135E6893840500A30701001304F1009305A0001F
S1135E7813850400EF10003D1379F50F9305A00076
S1135E8813850400EF10403B1304F4FF13090903BE
S1135E989374F50F23002401E39A04FC930504008A
S1135EA813850900EFF0DFF58320C1020324810282
S1135EB883244102032901028329C1011301010337
S1135EC867800000130101FF2324810023261100A9
S1135ED813040500EFF01FF71305040003248100E1
S1135EE88320C1009305A000130101016FF0DFE4D2
S1135EF8130101FE232C8100232A91002328210168
S1135F08232E110023263101232441019304050083
S1135F181304060013890600130700086392050496
S1135F289309000837AA000083450400630809049C
S1135F38639C35058320C101032481018324410125
S1135F48032901018329C100032A810013010102E5
S1135F58678000009397870193D7874163CA070036
S1135F688347040013041400E30609FEE39AE7FEDA
S1135F789385F5FF93F5F50F6FF05FFA9397850115
S1135F8893D7874163C007049397850193D78741C3
S1135F9863D4070293F5F5079385F5FF930600008C
S1135FA81306CAC193F5F50F13850400EFF05FF4E7
S1135FB8130414006FF05FF713850400EFF0DFD7C4
S1135FC86FF01FFF032481018320C101032901010C
S1135FD88329C100032A8100138504008324410115
S1135FE893F5F507130101026FF01FD537A60000DA
S1135FF8930610001306C6D56FF09FEF2300B50073
S1136008A300B5002301C50067800000A301B50003
S1136018678000006F00C0128347350003452500E0
S113602893C7F7FF33F5A7006780000003452500F1
S11360386780000003550500130101FF23261100A2
S1136048EF10C01E8320C1001375F50F1301010161
S11360586780000003550500130101FF2324810014
S11360682326110013D41500EF10401C1375F50FE7
S11360783335A4008320C1000324810013010101E6
S113608867800000130101FF2324810013840500A5
S11360989305100023261100EF00004B631404023B
S11360A837A7000093070000130787429305F0FF02
S11360B8930600403386E7002300B6009387170051
S11360C8E39AD7FE8320C100032481001301010150
