S02B0000433A5C55736572735C44616E5C417070446174615C4C6F63616C5C54656D705C61726475696E6F5F9D
S113040097910000938181139794000093840417BB
S1130410179400001304849C6F00C00023000400A0
S113042013041400E31C94FE1794000013040487BF
S1130430979400009384C486138900006F00000120
S11304400325040013044400E7000500E31A94FEA6
S10B0450930009006F00800C09
S1130458130101FF1385818D23261100EF30D04548
S11304689387018F370700041385018F23A0E700C2
S1130478130780002392E7009306000093056504A0
S11304881308A50693084000130380001306C0123E
S1130498930705003387D500330ED80023100700CF
S11304A823010700A3011701231267001307C700DC
S11304B8E316C7FF9386C603E39CC6FC230E051404
S11304C89306051C130640001307800023900716A3
S11304D823810716A381C7162392E7169387C701BA
S11304E8E396D7FEB70700042322F5322314E53236
S11304F8232A0532230205341306500093854183C9
S113050813055534EF50404E8320C10013010101F7
S113051867800000130101FF2324810037040000D1
S11305282326110013040400EF40902DEF10904C83
S1130538EF205072E30E04FE97000000E78000AC41
S11305486FF01FFF130101FF23248100130405002A
S1130558035505008355440023261100130515008F
S113056813150501135505012310A400EF50403558
S11305781315050113550501631C050003452400E3
S11305888345340013051500EF5000322301A400FD
S11305988320C10003248100130101016780000046
S11305A8130101FE23263101831765008319A50071
S11305B8232C810023282101232E1100232A9100B2
S11305C82324410123225101130405003789000023
S11305D8639A371D93070000A30A05002328F50032
S11305E8835404009305600013850400EF50402DE4
S11305F81315050113550501631E0502032504019E
S1130608EF60007DB787000003A6875C83A6C75CFC
S1130618130A0500938A0500EF5090696350A02AD5
S113062883472400130750006366F7009387170075
S11306382301F4009305800113850400EF508027FB
S11306481315050113550501EF60101BEF40D02069
S1130658B784000003A6845D83A6C45DEF50C0562A
S11306681306000093060000EF50D05A8357040085
S113067893058001634A052613850700EF508023FC
S11306881315050113550501EF601017EF40D01C31
S113069803A6845D83A6C45DEF5000530326095C5A
S11306A88326495CEF504052EF6090008357640002
S11306B81315050103290402832444021355054133
S11306C82314A4009387A70013058500231FA400FF
S11306D893850400231EF40023070402130509006C
S11306E8EF7080249305000093090500EF5090698A
S11306F86346A000B7070080B3C937011385090012
S1130708EF60006DB787000003A6075E83A6475E07
S1130718EF50105A635AA020930710002304F402E0
S1130728A30404029385040013050900EF5010651F
S11307386356051EB787000083A5875A1305090069
S1130748EF50100F2320A4028347E402638C0700B0
S11307588347840193871700230CF4009307A000B0
S1130768231DF4008357A401638607009387F7FFCA
S1130778231DF400835704008320C101832441010D
S1130788938717002310F40003248101032901012E
S11307988329C100032A8100832A4100130101022D
S11307A86780000013071000A30AE50063DA370F17
S11307B8B787000003A5875983250401EF50500724
S11307C8B787000003AA075A9304050093050A0093
S11307D8EF50505B635EA000B787000003AA475A36
S11307E81385040093050A00EF505059634405002B
S11307F893040A00032AC4002328940013850900DB
S1130808EF60D00893050A00EF700012EF60405CB7
S1130818EF409000B787000003A6075B83A6475BF9
S1130828EF5090486352050213850400EF60405A64
S1130838B787000003A6875B83A6C75BEF60902693
S1130848EF70800F2328A4008325040113050A00F0
S1130858EF50007E2326A40093040500EF60405760
S1130868130A0500938A0500138504009305000004
S1130878EF50904A0326095C8326495C63480502C5
S113088813050A0093850A00EF500034EF604062B4
S113089813150501135505412313A4006FF05FD404
S11308A8B787000003A5C7596FF01FF113050A00A5
S11308B893850A00EF7080056FF05FFDB78700002D
S11308C803A6075D83A6475D13050A0093850A00FE
S11308D8EF50903DE35005D683472400E38C07D4BA
S11308E89387F7FF6FF0DFD413850700EF40907C00
S11308F81315050113550501EF600070EF40C0752D
S113090803A6845D83A6C45DEF50002C0326095C0E
S11309188326495CEF60907F6FF01FD9B78700008A
S113092883A5C75A6FF09FE183478402232094026A
S113093823040402A304F402E38807E08347A4021F
S1130948E38407E09305000013850400EF50904208
S1130958E31C05DE930710002307F40223050402B1
S11309686FF09FDE130101FE232E1100232C81005A
S1130978232A9100232821010349E50013040500D3
S113098893840500130509009305C0002326C100BC
S1130998EF50C007835704000326C1003305A400A1
S11309A8B384F40083572400231E9500A300050292
S11309B83306F600930710002300F502930780001E
S11309C8231FC500A30CF500930530001305190077
S11309D8EF40906D2307A4008320C1010324810103
S11309E883244101032901011301010267800000E6
S11309F883278500130101FE232C8100232E110077
S1130A08232A9100232821012326310113073000CA
S1130A18130405006388E710130740006382E71492
S1130A2813072000639CE706835705011307001E7C
S1130A38938717009397070193D707012318F500A5
S1130A486398E7001306E00093055000EFF09FF168
S1130A58035704019307002D631AF7001306900047
S1130A689305A00013050400EFF0DFEF035704011A
S1130A7893074038631AF7001306600093051000C3
S1130A8813050400EFF01FEE035704019307805287
S1130A9863F6E700930730002324F4009304640109
S1130AA81309A4039309500083C7A40063800702B1
S1130AB813850400EFF01FA983C7240063F8F90025
S1130AC883C7B40063840700238504009384C400A7
S1130AD8E39C24FD83572401638607029387F7FF69
S1130AE89397070193D707012319F400639C070020
S1130AF893071000A300F402A306F402A30CF40263
S1130B0823180400032584008320C10103248101E0
S1130B1883244101032901018329C100130101022E
S1130B2867800000835705011307807093871700B7
S1130B389397070193D707012318F5006376F70005
S1130B48930740002324F500EF4090749305A00018
S1130B58EF401057135535002313A4006FF01FF40A
S1130B688357C500938717009397070193D7070105
S1130B782316F50093F73700E39207F283576500CD
S1130B8803172500938717009397070193D7074105
S1130B982313F500B307F70013074004E350F7F0F5
S1130BA8930750002324F50093071000A300F502CF
S1130BB8A306F502A30CF502231805006FF01FEE37
S1130BC8A30605128346C5129307000013054500C2
S1130BD8130610001307500063F8D702231005000A
S1130BE8231105002322C50023140500230505004D
S1130BF8231605002317050023080500230E050006
S1130C0823040502230A05029387170093F7F70FB5
S1130C181305C503E392E7FC67800000130101FB99
S1130C28378700002320A103032D47582324810478
S1130C3823202105232E3103232C4103232A510386
S1130C4823286103232481032322910323261104E7
S1130C582322910423267103232EB10113090500CD
S1130C68138405002310051C130B050093090000C9
S1130C78130AF0FFB78A0000378C0000B78C000015
S1130C8883446B00638E042403278B00930620009F
S1130C986302D70863EAE600930610006302D70EDE
S1130CA8930400006F000023930630006302D70CFE
S1130CB893064000E316D7FE035704008314240068
S1130CC8231A0B001307E7FF2318EB00138504000E
S1130CD8EF60C03B832544009384D4FFEF50403534
S1130CE83787000083250758EF601044EF6000251C
S1130CF813150501135505412319AB0063569500D7
S1130D08130710002324EB00130720002301EB0032
S1130D186FF01FF9230B0B0013050B00EFF09F82F4
S1130D2883144B01130740016354970023030B00FA
S1130D3803550B0093055000EF4090381315050137
S1130D4813550501E31E05F48326CB0003172B0175
S1130D589384140083962600231A9B00938696FF97
S1130D68E350D7F4130717002319EB006FF05FF370
S1130D788326CB001307500003A686006316E600FB
S1130D8823030B006FF0DFF103D7260083D6660038
S1130D9803550B003307D700130797FF2319EB00FC
S1130DA8EF608025B787000003A6875883A6C75835
S1130DB8EF509006B787000003A6075983A6475942
S1130DC8EF409060EF408026EF60103793050D00E8
S1130DD8930D0500EF60500D93050000930B05007B
S1130DE8EF5080736344051813850B00EF50507E51
S1130DF803A60C5C83A64C5CEF40105DEF60400BCF
S1130E081315050113550541231AAB0003550B00AF
S1130E1813051500EF60401E03A68A5883A6CA5816
S1130E28EF50807F03260C5983264C59EF40D05944
S1130E38EF40C01F2324A10013850D002326B10011
S1130E48EF501079032681008326C100930D10000A
S1130E58EF5000666344A000930D000083568B0195
S1130E68230BBB0113076002E37CD7E213050B00D5
S1130E78EFF04FED0327CB008326870013073000DC
S1130E88E340D7E20347C400E31C07E00347E40058
S1130E98E31807E00325440093050000EF50806E33
S1130EA8E350A0E003164B018316040003170B015B
S1130EB83307C7001386F6FFE314C7DE13071000D1
S1130EC82307E400130740002324EB002318DB0066
S1130ED8231A0B0003578B0113071700231CEB007D
S1130EE803476B0083268B00630807000357091C1C
S1130EF8130717002310E91C63860400139A0901D9
S1130F08135A0A41639C06000357091C1307170068
S1130F182310E91C130730002324EB0093891900DC
S1130F2813070001130BCB01E39CE9D48320C1040C
S1130F380324810413050A008324410403290104BA
S1130F488329C103032A8103832A4103032B010351
S1130F58832BC102032C8102832C4102032D01023D
S1130F68832DC101130101056780000013850B005F
S1130F78EF501066B787000003A6075C83A6475C9A
S1130F88EF60D0186FF09FE78347A500130101FEB7
S1130F98232C8100232E1100232A910023282101C8
S1130FA8232631011304050063840710EFF08FD959
S1130FB8035504009377350063980700835764004A
S1130FC8938717002313F40003176400930720087A
S1130FD863D4E70023050400EF60C01637890000D6
S1130FE883258956B7840000B7890000EF50503133
S1130FF8EF50105EEF40400603A6045783A64457FB
S1131008EF60402A1306000093060000EF5080406A
S1131018835704006344050613850700EF608012B4
S113102883258956EF50D02DEF50905AEF40C002D7
S113103803A6045783A64457EF60C02603A6095C99
S113104883A6495CEF405038EF5090661305C500FD
S113105813150501135505412314A40013050000B5
S11310688320C1010324810183244101032901014F
S11310788329C1001301010267800000138507005A
S1131088EF60400C83258956EF509027EF50505459
S1131098EF30907C03A6045783A64457EF60802062
S11310A803A6095C83A6495CEF6050066FF0DFF97C
S11310B80355C5001305F5FF13150501135505015F
S11310C82316A400133515006FF09FF9130101FED0
S11310D8232C8100232E1100232A91002328210187
S11310E823263101232441012322510123206101B4
S11310F883476501130405006390070AEFF04FCA9C
S1131108032A4433A30E0414930404039309C41553
S113111813090000930A4000130B300013850400E0
S1131128EFF01F8D8347D41503C74401B387E70045
S1131138A30EF41463D44A01239804006354AB0047
S1131148130905009384C403E39A34FD9305C40189
S113115813050416EFF09FAC834764019309050057
S11311686388070C93040000832744331307500053
S11311786384E758930660006386D75C930640004F
S1131188639ED75C6314E910232A2433231604349A
S1131198930480006F0000070355050093052001A0
S11311A8930715002310F400EF408071131505010F
S11311B813550501631805008357840093871700A6
S11311C82314F4000317840093078001E3DAE7F299
S11311D893076000232AF43293070000230A0400CB
S11311E823150434230B04002320F4022322F402DD
S11311F823040402A304040223050402230704327B
S1131208930460008320C101032481011385040031
S113121803290101832441018329C100032A810090
S1131228832A4100032B0100130101026780000097
S113123883474401E38807F213054432EFF0DFD40F
S1131248E30205F28347E432639A0702EF4050044D
S113125893058001EF40C066930780FD3385A7405E
S1131268930710002307F432B717000093870796F3
S11312782315A432231204322318F4329307C0032B
S11312882310F434930440006FF01FEE0347640105
S1131298E31A07F66308F94C93C7F9FF9397070114
S11312A893D7070193D7F7002302F43463CA0904D8
S11312B89307A000231DF4009305C00113850900BA
S11312C8EF40C0743305A4000329C51683474901B8
S11312D89387F7FF93F7F70F230AF900639207023E
S11312E8EF40007B93058007EF40805D1305C5033D
S11312F8930710002319A9002324F90023180900CF
S113130883570434638407149387F7FF2310F43452
S11313188357A4016390071203477401930740009D
S1131328631AF710834754016396071083498401AD
S113133863820910930764169304000013070001DD
S113134883C607006396062A9305C0011385040023
S1131358EF40C06B3309A40093071000831A64009C
S1131368031A84002303F916930720002324F9168B
S1131378930704122326F9169305C0011385040064
S1131388EF40C0683305A400938A8A00130A7A00E0
S1131398231A051623185517231945179305C00151
S11313A813850400EF4080669307803E3305A4004C
S11313B8231CF51623100916230109168357043232
S11313C8938717002310F43293071002231DF400A7
S11313D8835784339389F9FF230C340193871700C7
S11313E8231CF4328347B433930420009387F7FF14
S11313F893F7F70FA30DF432639E07020347A43350
S1131408B7870000938647FDB386E60083C61600B7
S1131418938747FD6386060013071700230DE432FC
S11314280347A43393042000B387E70083C7070066
S1131438A30DF4328347E432E38607DC834764016F
S11314486380071C230A04006FF0DFDB0347840171
S11314588347D415B7890000938949FDB387E7000A
S11314680347A4333387E90003470700E3D2E7EAD5
S11314788357C4331387F7FF231EE432E39A07E83C
S1131488EF4000618347A433137935009305C00303
S1131498B389F90083C9090093077000130509008B
S11314A8B3B93701EF4080563305A40003278503F9
S11314B8930720009389290063C6E712034A450469
S11314C863723A1393076416930400001307000128
S11314D883C6070063900610B30724019305C0036D
S11314E81305090083CA5734EF4040523305A4005A
S11314F8031B25039305C00113850400EF40005125
S1131508B309A400930710002383F9169305C003B5
S113151823A4091613050900EF40404F13050503DA
S11315283305A40023A6A9169305C0011385040056
S1131538EF40C04D930790033305A400B387674178
S1131548938A8A002319F516231A051623185517A2
S11315589305C00113850400EF40404B3305A400F4
S1131568231C051623900916238109168357043270
S1131578938717002310F4329305C0031305090059
S1131588EF40C0483305A40003278503130A1A0053
S1131598230245059307100063CEE7009305C003B3
S11315A813050900EF4080463305A4009307200083
S11315B8232CF5028354E433EF40804D93058007D0
S11315C8EF4000303385A400231EA4329304300076
S11315D86FF01FD4938414009387C701E39AE4EE51
S11315E86FF09FF993071000231EF4326FF05FD257
S11315F8938414009387C701E394E4D46FF0DFDC89
S11316080315A43237890000EF50502883258957E1
S1131618EF401022EF50901283596400B30935410A
S11316280315C432938969FF93990901EF50102671
S11316388325895793D90941EF40901FEF50101023
S11316480359840093850900330925411309A9FF27
S11316581385090013190901EF40403B1359094147
S1131668930905009305090013050900EF40003AA2
S11316783385A900EF505018EF301043EF60C02BAA
S1131688378900008325C957130A050093091000F8
S1131698EF40D06E63440500930900008325C957C1
S11316A8230B340113050A00EF40506DE35C05B4C5
S11316B8930700002320F4022322F40223070432B0
S11316C82310040023040402A304040223050402CF
S11316D893076416130740001304643283A6270093
S11316E86394E600238007009387C701E39887FE85
S11316F8930450006FF01FB18357C434930400005F
S1131708138717002316E43413078007E37CF7AE26
S113171893076000232AF43293070000230A040085
S113172823150434230B04002320F4022322F40297
S113173823040402A3040402230504022307043235
S11317486FF05FAC8354A4349387140093B4541A91
S11317582315F43493C414006FF0DFAA9304000033
S11317686FF05FAA930470006FF0DFA9130101FF03
S113177823229100930400F003A50400232481008C
S1131788370401001355F5009305F4FF1375F503A9
S113179823261100EF20906403A504009305F4FFA9
S11317A8032481008320C100832441001355F500DC
S11317B81375F503130101016F20904A130101FE0B
S11317C8232C81002324410123225101138A06007A
S11317D8930A07001384018E1387E6FF9306E6FF36
S11317E8232A91002328210123263101930405008B
S11317F8138905009309060093C71A001386150078
S11318081377F70F9305150093F6F60F13050400E5
S1131818232E1100EF200050130504000324810136
S11318288320C10193870A0013070A00832A410011
S1131838032A810093860900130609008329C1003D
S11318480329010193850400832441011301010242
S11318586F204040130101FE232C81001384018E64
S1131868232A91002328210123263101232441011D
S113187893040600138A06001309050093890500DA
S113188813C7160093060600138605009305050082
S113189813050400232E1100EF20802613050400ED
S11318A803248101938614008320C1018324410108
S11318B813070A0013860900032A81008329C1003B
S11318C8930509000329010193F6F60F1301010298
S11318D86F101052130101FF930510001385018E38
S11318E823261100EF20404B3786000093060000A2
S11318F81306862C9305000013050000EF30804F73
S11319088320C1003786000093060000130606FFF3
S11319189305800313050000130101016F30804D06
S1131928130101FE232C8100232A9100232821017D
S1131938232631012324410123225101232E11009E
S113194893040500130485011309C5039309500082
S1131958378A0000B78A000083478400638007043D
S11319688347040063ECF90283C5640003476400F9
S113197803454400938505FFB385E50003C7440088
S113198893060A0613864ABB3305E50093F5F50F5B
S1131998138707001375F50FEF3080441304C40050
S11319A8E31C24FB8320C101032481018324410116
S11319B8032901018329C100032A8100832A4100E4
S11319C81301010267800000130101FD2320210394
S11319D82326B1009305C003232611021389018F1E
S11319E82324810223229102232E3101232C410135
S11319F8130A0500EF408001930905033305A90084
S1131A088347450383440503035425039305C0030F
S1131A1813050A00B384F400EF30507F3305A9009E
S1131A28834765030326C10093F4F40F3304F400D9
S1131A381374F40F9306000093050400138504003F
S1131A48EF30403B93073000B30939016316FA06B7
S1131A58939404011314040193D40401135404014A
S1131A681306E4FF138944011304F4FF1307000069
S1131A7893066000930509001385018E131404016D
S1131A88EF200010135404411306000093050400CA
S1131A9813050900EF10902E1306000093050400A7
S1131AA813857401EF10902D1306000093050400AC
S1131AB813859401EF10902C032481028320C10222
S1131AC88324410203290102032A810113850900A1
S1131AD88329C101130101036FF09FE4130101FD80
S1131AE823202103232A5101938A05009305C00367
S1131AF8232611022326C1001389018F232481027E
S1131B0823229102232E3101232C4101130A0500BB
S1131B18EF30D06F930905033305A90083474503C4
S1131B2803440503835425039305C00313050A00DE
S1131B383304F400EF30906D3305A900834765033F
S1131B488326C1001374F40FB384F40093F4F40FE0
S1131B58930700001307000013860A009385040006
S1131B6813050400EF30C02793071000B3093901A7
S1131B78630AFA04630A0A02930720006304FA0654
S1131B88032481028320C102832441020329010220
S1131B98032A8101832A4101138509008329C1018C
S1131BA8130101036FF0DFD7130700009306300019
S1131BB81386F4FF9305C4001385018EEF10507C3F
S1131BC86FF01FFC93070000130720009306200002
S1131BD81386E4FF930544001385018EEF208013D8
S1131BE86FF01FFA131404019394040113540401AD
S1131BF893D404011389018E1386D4FF9305F4004A
S1131C08130509001307000093063000EF109044F1
S1131C1813070000930620001386E4FF93051401BC
S1131C2813050900EF1010436FF09FF53786000085
S1131C38B7850000130101FF1306C61C938505CD63
S1131C481305000023261100EFF05FE93786000032
S1131C58B785000013068620938505D11305100067
S1131C68EFF0DFE737860000B78500001306462348
S1131C789385C5D313052000EFF05FE6B785000010
S1131C88938505D813053000EFF01FD4B7850000FD
S1131C989385C5DB13054000EFF01FD3378600009A
S1131CA8930600001306C60F9305300213050000BF
S1131CB8EF304014378600009306000013064611DF
S1131CC89305A00313056001EF30C0128320C100FF
S1131CD83786000093060000130646129305A003F6
S1131CE813051004130101016F30C010130101FE24
S1131CF8232E1100232C8100232A9100232821015B
S1131D082326310123244101232251012320610187
S1131D189387018F83A64733130720006392E6084D
S1131D2803D427349307300663E087081309C006F1
S1131D381306100113050900130700009306D000C9
S1131D4893054003EFF09FA713190901B794000006
S1131D589307900013590901938484CB63EC870497
S1131D68131424003384840003260400930600001B
S1131D789305700313056900032481018320C101BD
S1131D8883244101032901018329C100032A810015
S1131D98832A4100032B0100130101026F308005DF
S1131DA803D487336FF01FF8130960061306700114
S1131DB86FF05FF89305A00013050400EF30902F2F
S1131DC8131A05019305A00013050400EF30502FE2
S1131DD8131505011355050193073006130B390034
S1131DE8930A9900135A0A019319250063EC870290
S1131DF8131A2A00338A440103260A0093060000B2
S1131E089305700313050B00EF20D07E338434014F
S1131E1893060000032604009305700313850A0043
S1131E286FF09FF59305400613050400EF309028E2
S1131E381315050113550501131525003385A40051
S1131E4803260500930600009305700313050B0091
S1131E58EF20507A9305A00013050A00EF305026AE
S1131E681315050113550501131525003385A40021
S1131E7803260500930600009305700313850A00E2
S1131E88EF205077338434019306000003260400BE
S1131E98930570031305F9006FF01FEE130101FF9A
S1131EA8232481001384018F1305040323261100BE
S1131EB8EFE01FD193072000232AF4328320C100C6
S1131EC8032481001301010167800000130101FF4D
S1131ED823248100232611001385018FB7070001ED
S1131EE8232CF532B707B4009387470B232EF5321A
S1131EF89307A00F2313F5009307C0002314F500DC
S1131F08B787000083A707BB13074000232AE532DD
S1131F182326F500B787000083A7075AA30BE5001B
S1131F28231005342328F50093071000230AF5002D
S1131F38930700002320F5022322F5022302053427
S1131F482315053423160534A30A0500230B0500BD
S1131F5823010500230C0500231D050023040502A5
S1131F68A30405022305050213050503EFE05FC575
S1131F78130700009387018F9306001C3386E7003C
S1131F88230306161307C701E31AD7FE37270000F1
S1131F98130707C22398E732130780FD2395E73216
S1131FA81307C0002396E73213073000A383E732F0
S1131FB81307A0002394E73203C777012387073266
S1131FC83387E700034757342395E7001307A00531
S1131FD8239DE7008320C10003248100130101012C
S1131FE867800000130101FE930520001385018E0C
S1131FF823282101232E1100232C8100232A910058
S113200823263101EF2040031389018E630E05084E
S11320181384018F0325040293050000EF408056C2
S1132028634CA0020317A40083176400B387E74036
S11320381307F0006342F70283477401638E0700B5
S11320489387F7FF93F7F70FA30BF400B307F40094
S113205883C757342315F40093054000130509007A
S1132068EF10907D630805089384018F03C754011A
S113207883C78401630E07081307200013040000B4
S11320886370F70E9384018A03C404006316041072
S1132098378500001305C5C1EF20403693071000AB
S11320A82380F4006F00C00B93051000130509008A
S11320B8EF109078E30205FA1384018F03250402D4
S11320C893050000EF40004CE348A0F803176400B0
S11320D88317A400B387E7401307F000E34EF7F62D
S11320E88347740113073000E368F7F693871700F2
S11320F86FF05FF59305000113050900EF10D07325
S113210813040500E31205F62380018A6F004005D5
S113211883C9740113073000E36037F703C48402EA
S1132128E31C04F413072000E36EF7F403A5440248
S113213893050000EF400044631405029305C003AF
S113214813850900EF30900C3385A400031525038B
S1132158130410001305B5FEEF40507323A2A40224
S11321689305800013050900EF10106D630A05023A
S11321781384018F83475401638007048320C101BA
S11321880324810183244101032901018329C10016
S11321981301010267800000130400006FF05FFC64
S11321A89305000113050900EF101069E30805FC05
S11321B8E30004FC6FF09FFC0347740193073000AD
S11321C8E3EEE7FA83478402E39A07FA03478401B4
S11321D893072000E3E4E7FA03254402930500008B
S11321E8EF40403AE35CA0F8930700002322F4028E
S11321F86FF0DFF8130101FE232C81001384018E94
S113220813050400232E1100232A910023282101F9
S113221823263101EF10505F130504009305C00312
S1132228EF10002C1305F038EF2040599307700481
S11322381384018F6318F51413050039EF2000582F
S11322482311A4348344C4159305C003130910004F
S113225813850400EF30807BB7072C009387770041
S11322683305A4002328F5029305C003138504004D
S1132278EF30C079938914003305A40093F9F90F5A
S1132288232C25039305C00313850900EF30007838
S1132298B70734009387D7013305A4002328F50230
S11322A89305C00313850900EF3040769389240011
S11322B83305A40093F9F90F232C25039305C003D0
S11322C813850900EF308074B70728009387470304
S11322D83305A4002328F5029305C00313850900D8
S11322E8EF30C072938934003305A40093F9F90FD1
S11322F8232C25039305C00313850900EF300071CF
S1132308B70731009387B7043305A4002328F502DF
S11323189305C00313850900EF30406F9389440087
S11323283305A40093F9F90F232C25039305C0035F
S113233813850900EF30806DB7071C003305A4002E
S1132348938797062328F50293845400138509007C
S11323589305C003EF30806B230E9414232A24338F
S11323683305A4008320C10103248101232C250300
S113237883244101032901018329C10013010102B6
S113238867800000930570041305F038EF20404976
S11323989305000013050039EF2080486FF09FEA89
S11323A8130101FD2324810223202103232E31015B
S11323B813090500938905001385818D93C51600BB
S11323C823261102232291022326D1009304060016
S11323D8EF2000028326C1001385818D93850600B2
S11323E8EF208000930509001385818D1386090069
S11323F8EF10D07E1385818D032481028320C102CE
S1132408032901028329C10193850400832441021D
S1132418130101036F20503E130101FE23282101FB
S113242883D7418A232C8100232631011304000514
S113243893D91700330434411314040113540401C9
S113244893160401232E1100232A910093D60641E2
S11324581307D0001389418A6356D700938717005E
S11324682310F9009384018E93050000138504005A
S1132478EF1090121374F40F3786000093061000BF
S1132488130686B29305040013059001EFF05FF17B
S11324989305C4003786000093061000130686B31C
S11324A893F5F50F13052002EFF09FEF930504024F
S11324B83786000093061000130646B493F5F50F0B
S11324C81305F001EFF0DFED9305340293061000D5
S11324D81306200093F5F50F13058001EFF08FB76D
S11324E81306200733063641131606011307100096
S11324F893063000135606419305700113850400B2
S1132508EF10006893053007B385354193950501AD
S11325181306100093D5054113057001EF1000064A
S11325281306400733063641131606019305700156
S11325381385040013071000930630001356064150
S1132548EF1000649305000113850400EF10903424
S113255863080500A380018A2381018A23100900E6
S11325688320C1010324810183244101032901013A
S11325788329C1001301010267800000130101FED1
S1132588130700009306A0031306300793054000C1
S113259813057000232E1100232C8100232A910097
S11325A82328210123263101EFF04FA137860000AB
S11325B8930600001306C6B09305D0001305A001C6
S11325C8EFF01FDE9387018F03A74733930720009B
S11325D81384018F630EF70E37860000130606B0C6
S11325E893060000930580011305A001EFF05FDB5B
S11325F83786000093060000130686B1930530025F
S11326081305A001EFF0DFD9378600009306000018
S1132618130606B29305E0021305A001EFF05FD894
S11326289389318A03C509009305B0001389318A57
S1132638EF30C03D1306D500131606019384818D2F
S113264813081000930710001307000093060001F5
S113265813560641930500011385818DEF10502B05
S1132668938484009305000113850400EF109022DD
S11326786302050C37850000130545EDEF1010586B
S113268883C70900930620006384D7081307300022
S1132698638AE70813061000639EC70003264433C1
S11326A89387418A23900700631AD602232AE432C7
S11326B82381018A8320C1010324810183244101E8
S11326C8032901018329C100130101026780000065
S11326D837860000130646AF6FF09FF0930760003B
S11326E8232AF4329307000023150434230B04002F
S11326F82320F4022322F40223040402A304040280
S113270823050402230A0400230704326FF05FFA46
S11327189305F00F1305F038EF208010232A0432B4
S11327286FF01FF913071000A380E18A2392018A2E
S11327386FF05FF89305000213850400EF109015FD
S1132748630A050037850000130585FBEF10104B5D
S11327586FF01FF69305800013850400EF109013A3
S11327686304050213854189EF1050498347090022
S113277813073000638607009387F7FF13F7F70FF3
S11327882300E9006FF01FF393054000138504004C
S1132798EF105010E30005F213854189EF1010463D
S11327A883C709009387170093F737002380F9003C
S11327B86FF05FF083C7118A638407006FF0DFC589
S11327C8130101FB2320210583C7218A2326110431
S11327D82324810423229104232E3103232C41032F
S11327E8232A510323286103232671032324810305
S11327F8232291032320A103232EB1011389218AC3
S113280863800704032481048320C10483244104CE
S1132818032901048329C103032A8103832A410369
S1132828032B0103832BC102032C8102832C410255
S1132838032D0102832DC101130101056FF01FD47B
S11328489387018F03A74733930760001384018F8D
S113285863E8E702B786000093172700938686ABE0
S1132868B387D70083A7070067800700A381018A7D
S11328782392018A2311043493071000232AF43283
S11328888320C1040324810483244104032901040B
S11328988329C103032A8103832A4103032B0103E8
S11328A8832BC102032C8102832C4102032D0102D4
S11328B8832DC10113010105678000009387418AB4
S11328C803D70700930617002390D70093067007D1
S11328D863E0E606930500001385018EEF10C04BF4
S11328E8032481048320C1048324410403290104AB
S11328F88329C103032A8103832A4103032B010388
S1132908832BC102032C8102832C4102032D010273
S1132918832DC1013786000093060000130686F54F
S11329289305000113056003130101056F20804C12
S113293823900700032481048320C10483244104D1
S1132948032901048329C103032A8103832A410338
S1132958032B0103832BC102032C8102832C410224
S1132968032D0102832DC101130101056FF00FD35B
S113297883D7418A130790049384418A6366F700D6
S1132988938717002390F40003D70400930780016A
S11329989389018E63F8E712EFE0DFF303D50400AF
S11329A8130575FEEF404065B787000003A607B618
S11329B883A647B6EF305046EF20406783D704001C
S11329C82320A1001305500293D717003305F540BF
S11329D82322B100EF404062032601008326410010
S11329E8EF40500CB78700001306050093860500D6
S11329F803A587B683A5C7B6EF405071EF40404B97
S1132A089315850137860000930600001306063ED9
S1132A1893D5854113055001EF20C03DEFF00FA178
S1132A28EFF0CFAC9387818D03D587009305E0063B
S1132A38EF20106913150501135505019307500478
S1132A4863EAA70203D704009307600463F4E70268
S1132A58B7860000378600009307000013070000BC
S1132A68938646271306C6E1930510031305400110
S1132A78EF2000379305000113850900EF108061EA
S1132A88630E050037850000130545ED2390040007
S1132A98EF10D016930730006FF05FDE9305000245
S1132AA813850900EF10005FE30C05DC378500008F
S1132AB8130585FBEF109014930710002300F90009
S1132AC86FF01FDC032481048320C10483244104A0
S1132AD8032901048329C103032A8103832A4103A7
S1132AE8032B0103832BC102032C8102832C410293
S1132AF8032D0102832DC101930500001385018E66
S1132B08130101056F104029930500001385018EF8
S1132B18EF1080289387418A03D707009306C003E0
S1132B2863E8E600130717002390E7006FF05FD50A
S1132B3837850000130545EF23900700EF10100CAC
S1132B48032481048320C104832441040329010448
S1132B588329C103032A8103832A4103032B010325
S1132B68832BC102032C8102832C4102032D010211
S1132B78832DC101130101056FF04FB59307400080
S1132B88631CF70083478402638607008357A40104
S1132B9863940700EFF00FC51385018FEFE00FD39F
S1132BA81305F5FF9307700063E8A702B7870000D1
S1132BB8938747AD131525003305F50083270500D2
S1132BC86780070083C7E18B639807003785000097
S1132BD81305C553EF109002835704346396070610
S1132BE88347443463800704378500001305C5C64A
S1132BF8EF10D0006F004005378500001305C55459
S1132C086FF05FFD378500001305C5346FF09FFC36
S1132C18EFE0DFB56FF05FFCEF10902EEF10D012ED
S1132C286FF09FFB8347E402638807003785000041
S1132C38130505EC6FF0DFFB834794026380072ECE
S1132C48EF10102CEF105010EFE0DFC88347E43288
S1132C58638E0702834764328315C4320315A43292
S1132C6813972700B7970000938787D1B387E700A6
S1132C7883C70700B78600003786000013070000E3
S1132C88938606E7130606C0EF208015B79900005F
S1132C98EFE0DFF993040400EFF04F85130A041CF6
S1132CA8930A1000130B6002938909CEB78B0000B6
S1132CB8930C200083C764166386070683A78416CB
S1132CC863D2FA0603D58417636CAB0093056000DE
S1132CD8EF20103F131505011355050163F4AC04E7
S1132CE883C7641703C7241603C5041793972700DB
S1132CF8B387E70093F7F70F03C7441793972700A1
S1132D08B387F90083C7070083C524173305E50093
S1132D1893868BF3130700001386C1881375F50F88
S1132D28EF20000C9384C401E39644F983474401DB
S1132D3863800758834764010355040063860700CA
S1132D489307E00563E6A70493056000135515008F
S1132D58EF201037131505011355050193172500A6
S1132D6837950000130505D03305F50083470500A2
S1132D788315840003156400B786000037860000B5
S1132D88130700009386860A130646C5EF204005FC
S1132D98834764016398071E83472400835584008E
S1132DA80315640013972700B79700009387C7C9D2
S1132DB8B387E70083C7070093854500B7860000FB
S1132DC83786000093950501130700009386861340
S1132DD8130606F293D50541EF208000B78700005B
S1132DE883A9075C03AA475C93040000138B0900BA
S1132DF8930B0A00938A018E138C0900930C0A0022
S1132E08138D0900930D0A00832604021385060016
S1132E182326D100EF30D07B8326C1002320A100D4
S1132E282322B1001385060093050000EF30C06E1D
S1132E380327010083274100634E051013060B0086
S1132E4893860B001305070093850700EF20D057DE
S1132E58EF40000663DEA4449305300013850400A4
S1132E68EF2010261375F50F630005028355E4015E
S1132E780315C40113060000B385B4009395050136
S1132E8893D50541EF00806F638404088326040208
S1132E98138506002326D100EF3090738326C100E2
S1132EA82320A1002322B100138506009305000006
S1132EB8EF30806603270100832741006348050A31
S1132EC813060D0093860D0013050700938507006C
S1132ED8EF20904FEF30D07D1305F5FF639AA402DD
S1132EE80356E4018355C401130700003386C40064
S1132EF89385F5FF13160601939505019306300093
S1132F081356064193D5054113850A00EF0050472F
S1132F189384140093F4F40F6FF01FEF8347840233
S1132F28E38407D283C7E18BE39007D203254402E5
S1132F3893050000EF30006463180500378500002E
S1132F48130585C46FF0DFCA37850000130505CC67
S1132F586FF01FCA1386090093060A0013050700B9
S1132F6893850700EF40901A6FF09FEE13060C004C
S1132F7893860C001305070093850700EF4010198A
S1132F886FF05FF58359040013850900EF40C0060C
S1132F98B787000003A607B783A647B7EF30C06713
S1132FA8B7870000130605009386050003A587B7B5
S1132FB883A5C7B7EF409015B787000003A6875CC1
S1132FC883A6C75C130A0500938A0500EF30C04D39
S1132FD86340053A13050A0093850A00EF40D015AB
S1132FE8930B050013850B00EF30905EB787000044
S1132FF803A607B883A647B8130A0500938A0500F1
S1133008EF30004B635CA042034724009307200081
S1133018130C80FF63E4E700130C8000834464000E
S1133028EF20102793053000EF2090099384940033
S1133038B30495009305E00013850900EF20900779
S11330489379F50F03550400378D0000034B840072
S1133058EF30907A03260D5C83264D5CB78C000014
S1133068130B8B00EF400024EF10107F03A68CB8DD
S113307883A6CCB8338B690193F4F40FEF40802214
S113308813060A0093860A00EF40C02113060000C5
S113309893060000EF30C041137BFB0F83570400F5
S11330A8635EA02C13850700EF30107503260D5CB2
S11330B883264D5CEF40001FEF10107A03A68CB8EE
S11330C883A6CCB8EF40001E13060A0093860A00B4
S11330D8EF40401DEF30906D1376F50F93050B000C
S11330E89306000013850400EFE0CFF6B7870000CD
S11330F883A587B513850B00378B0000EF40C05AB2
S113310883254B5AEF3000486354A00C8344640071
S1133118EF201018930550009384840093F4F40F5F
S1133128EF20007AB3848401B304950003550400A6
S1133138378D0000034C8400EF30106C03260DB962
S113314883264DB9B78C0000130C8C00EF40801512
S1133158EF10907003A68CB983A6CCB993F4F40F3E
S1133168137CFC0FEF40001413060A0093860A0030
S1133178EF4040131306000093060000EF3040337D
S113318883570400635CA02213850700EF30D066E0
S113319803260DB983264DB9EF40C010EF10D06B4C
S11331A803A68CB983A6CCB9EF40C00F13060A0056
S11331B893860A00EF40000FEF30505F1376F50F47
S11331C89306000093050C0013850400EFE08FE8D4
S11331D8B787000083A5C7B513850B00EF40C04C23
S11331E883254B5AEF30003A6352A00C8344A4322F
S11331F8EF20100A93053000EF20806C8347C43217
S113320893845400B384A40003550400938767008F
S1133218B389F900B78B0000EF30105E03A60BB634
S113322883A64BB6378B000093F4F40FEF30C03EFF
S1133238EF10906203260BBA83264BBA93F9F90F61
S1133248EF40400613060A0093860A00EF40800503
S11332581306000093060000EF308025835704000E
S1133268635EA01813850700EF30105903A60BB648
S113327883A64BB6EF30403AEF10105E03260BBA24
S113328883264BBAEF40000213060A0093860A000D
S1133298EF404001EF3090511376F50F930600008C
S11332A89385090013850400EFE0CFDAEFE00FCC33
S11332B803274433930760006318F7180357A434AB
S11332C89307C0036316F70237850000130545C842
S11332D8EF10C012835584338357243463FAB7003C
S11332E82311B4341305003993F5F50FEF10405347
S11332F88357A4341307A012938737FC93970701C5
S113330893D70701636EF7D637860000930600004B
S1133318130646B09305700113058002EFF04F8839
S1133328032481048320C104832441040329010460
S11333388329C103032A8103832A4103032B01033D
S1133348832BC102032C8102832C4102032D010229
S1133358832DC1013786000093060000130686BA40
S11333689305700113053004130101056FF04F83B1
S1133378B787000083AB47B56FF0DFC61385070036
S1133388EF30904703260D5C83264D5CEF30907137
S1133398EF10904C03A68CB883A6CCB8EF3090708D
S11333A813060A0093860A00EF30D06FB70700802F
S11333B8B3C7B700938507006FF0DFD11385070003
S11333C8EF30904303260DB983264DB9EF30906D45
S11333D8EF10904803A68CB983A6CCB9EF30906C53
S11333E813060A0093860A00EF30D06BB7070080F3
S11333F8B3C7B700938507006FF01FDC1385070078
S1133408EF30903F03A60BB683A64BB6EF30C0202F
S1133418EF10904403260BBA83264BBAEF3090681A
S113342813060A0093860A00EF30D067B7070080B6
S1133438B3C7B700938507006FF0DFE5EF10402CA2
S1133448EF1080106FF0DFE6930500021385018EFC
S11334586FF04FE5130101FF232481001384018ECB
S11334681305040023261100EF00400A6306050231
S1133478EF108018EF10800013050400EF00903E51
S1133488EFF04FB313050400032481008320C10027
S1133498130101016F00502E8320C1000324810011
S11334A81301010167800000130101FF2324810037
S11334B82326110013040500EF001074930700017C
S11334C823100400231104002302F400230304003E
S11334D88320C100032481001301010167800000D7
S11334E8130101FF23248100130405001305803E02
S11334F823261100EF2000352302A4008320C100F5
S1133508032481001301010167800000130101FFF6
S1133518232481002326110013040500EF10101141
S1133528834754001377F50F03456400B307F74046
S113353893F7F70F63000502A303F40023030400C1
S1133548130500008320C100032481001301010135
S11335586780000083464400E3E6D7FE9307100023
S11335682303F40083570400A302E40013051000A6
S1133578938717002310F4006FF0DFFC131505017F
S1133588135505019307F00763ECA7049395050108
S113359893D505019307F00363E4B70413F77500A3
S11335A893F5850F9395450093071000B305B5006F
S11335B8B397E70093950501938601C493D5050154
S11335C8B386B60093F7F70F83C60600138701C4C2
S11335D8630A0600B3E7F600B305B7002380F500D5
S11335E86780000093C7F7FFB3F7F6006FF0DFFEBC
S11335F8130101FD232481021394060113540401C9
S1133608232E31019309060023202103232A510183
S113361813890500130504009305E0FF939A090133
S11336282326110223229102232C4101930407002B
S1133638138A0600232861012326710193DA0A01FB
S113364823248101232291012320A101EF20003C9E
S1133658B305540193950501131B05011386040052
S11336681305090093D50541EFF05FF1B3858A404E
S113367893950501130509001386040093D50541A4
S113368813190901EFF09FEF1359090133052401B8
S11336981315050113860400938509001355054184
S11336A8EFF0DFED3305894013150501930B100086
S11336B8131A0A011386040093850900135505415A
S11336C8B38B8B40135B0B41135A0A41EFF01FEB8A
S11336D8130400006354441563C80B02130B2B0036
S11336E893170B0193D70701130AFAFFB38B7701DA
S11336F8131A0A01139B0701939B0B01135A0A41DE
S1133708135B0B4193DB0B411304140013140401E2
S113371893190A011354040193D90901330D89003B
S1133728B38C3A01131D0D01939C0C0193DC0C41DD
S113373893171400135D0D419387170093850C00AC
S11337481386040013050D00330C8940B38B7701ED
S1133758131C0C01EFF09FE2135C0C4193850C00E1
S1133768B38C3A4113050C0013860400939C0C0196
S1133778EFF0DFE093DC0C4193850C001386040022
S113378813050D00EFF09FDF93850C0013050C0063
S1133798B30C3901338C8A0013860400939C0C0102
S11337A8131C0C01EFF09FDD135C0C4193DC0C41FE
S11337B893050C001386040013850C00B3093941E2
S11337C8EFF0DFDB9399090193050C0093D90941C4
S11337D8338C8A401386040013850900131C0C01DA
S11337E8EFF0DFD9135C0C411386040093050C0039
S11337F813850C00EFF09FD8939B0B0113860400EC
S113380893050C00138509001314040193DB0B4181
S1133818EFF0DFD6135404416FF0DFEB8320C102CD
S11338280324810283244102032901028329C1015B
S1133838032A8101832A4101032B0101832BC1003F
S1133848032C8100832C4100032D01001301010383
S113385867800000130101FD2324810223229102C1
S11338682320210323261102232E31011389050065
S1133878B304D600130400006344060013040600CE
S11338881314040113540441930900049387040096
S113389863D49900930700046354F4029315040154
S11338A81306070093D50541130509002326E100F3
S11338B8EFF0DFCC130414000327C1006FF01FFDE1
S11338C88320C102032481028324410203290102C3
S11338D88329C1011301010367800000130101FB5F
S11338E823286103130B050013950601232E3103C6
S11338F8232C410313550501138A0500930910006D
S11339089305E0FF2324810423202105232A51035E
S11339181389070023267103232481032322910397
S1133928130C07002320A103930A0600138406003E
S11339382326110423229104232EB101930B08009A
S1133948B389A940EF20800C93771C00931C0501D0
S113395813140401131A0A01939A0A01130919008A
S113396893DC0C4113540441130D00002324F1008B
S1133978135A0A0193DA0A011379F90F137C2C00FC
S113398863528D1463C80902938C2C0093970C011D
S113399893D707011304F4FFB389370113140401FF
S11339A8939C0701939909011354044193DC0C4136
S11339B893D9094193041D009394040193D40401F9
S11339C8939D140093871D00B389370183278100D1
S11339D8139D040193990901135D0D4193D909417C
S11339E8638807069317040193D707013386FA40BF
S11339F893161400B3059A00B306D90013160601EA
S1133A089395050113870B0093F6F60F1356064199
S1133A1893D5054113050B002326F100EFF09FE32E
S1133A288327C10033869A40B306B901B305FA0067
S1133A38131606019395050113870B0093F6F60FE9
S1133A481356064193D5054113050B00EFF09FE08B
S1133A58E3080CF29317040193D707013386FA405D
S1133A6893161400B3059A40B306D9001316060139
S1133A789395050113870B0013050B0093F6F60FB6
S1133A881356064193D505412326F100EFF09FDC38
S1133A988327C10033869A40B306B901B305FA40B7
S1133AA8131606019395050113870B0093F6F60F79
S1133AB81356064193D5054113050B00EFF09FD922
S1133AC86FF01FEC8320C104032481048324410480
S1133AD8032901048329C103032A8103832A410397
S1133AE8032B0103832BC102032C8102832C410283
S1133AF8032D0102832DC101130101056780000014
S1133B08130101FD23248102138406002322910258
S1133B18939616009304060033068640938616008F
S1133B281316060193F6F60F1356064123202103B4
S1133B38232E310123261102130905009389050058
S1133B482326E100EFF01FD1930604000324810229
S1133B580328C1008320C102138604009385090049
S1133B68832441028329C1011305090003290102A1
S1133B789307000013073000130101036FF01FD6E9
S1133B8813150601135505019307F00363E2A70C07
S1133B98B386B6001398060113580841635A000BFC
S1133BA89307F00763C6B70A9387050063D4050033
S1133BB893070000939507019307000893D50541DF
S1133BC89306080063D40701930600081356364089
S1133BD8931776003386B700938701C4B386B6403B
S1133BE8B387C70093051000137675003396C50094
S1133BF893F6F60F1376F60F63060702631AB704F3
S1133C089305F00F9386F6FF93F6F60F6382B604D6
S1133C1803C70700938717003367E600A38FE7FEFF
S1133C286FF05FFE1346F6FF1376F60F9305F00F59
S1133C389386F6FF93F6F60F638CB60003C7070066
S1133C48938717003377E600A38FE7FE6FF05FFED4
S1133C5867800000130101FE23244101130A0700B1
S1133C6813870700232E1100232C8100232A910097
S1133C78232821012326310123225101938407009B
S1133C889309060013090500938A050013840600A6
S1133C98EFF01FEF1306FAFF330636011316060179
S1133CA8138704009306040093850A00130509008A
S1133CB813560641EFF0DFEC1387040093060A005D
S1133CC81386090093850A0013050900EFF09FB8CD
S1133CD89305F4FF03248101B38555018320C101B1
S1133CE8832A41001387040093060A0083244101B0
S1133CF8032A810013860900130509008329C100DA
S1133D08032901019395050193D505411301010286
S1133D186FF05FB4130101FD232481022322910271
S1133D2823202103232E3101232C410123261102B0
S1133D38930405001309060093090700138405007A
S1133D48338AD500635A4403138707009305040094
S1133D58938609001306090013850400130414004C
S1133D682326F10013140401EFF0DFAE13540441C9
S1133D788327C1006FF01FFD8320C1020324810241
S1133D8883244102032901028329C101032A8101F1
S1133D981301010367800000B335B000B305B040D8
S1133DA893F5F50F93070000138701C493060040A9
S1133DB83306F7002300B60093871700E39AD7FE6B
S1133DC867800000930500006FF01FFD3308D500DD
S1133DD8634208181308F007634EA8163308B7009F
S1133DE8634A08161308F0036346B81613D8F54156
S1133DF8B348B800130101FFB38808411378780069
S1133E083308B800232681002324910023222101AA
S1133E182320310193F878001358384063D80500FB
S1133E28930580001308F8FFB3881541935E3700A3
S1133E381377770063040700938E1E00131378002A
S1133E48B305A300138301C4130F800013070800EC
S1133E583303B300B38E0E01930FF0FF1304F0077E
S1133E68B3041F4193021000130970006388EE0C19
S1133E786306E70D6348F70B130E0000930303086A
S1133E886352DE0AB305AE00634EB40863C0050688
S1133E986302F70B3308C60103480800B309C301DA
S1133EA883850900331818011318880113588841A9
S1133EB863925704B3E505012380B90063880802B7
S1133EC8630627033308C60103480800B389C301FE
S1133ED8838509003358984013188801135888417A
S1133EE863965702B3E505012380B900130E1E003B
S1133EF86FF01FF9639807001348F8FFB3F505013D
S1133F086FF09FFBB3C505016FF01FFB63980700B3
S1133F181348F8FFB3F505016FF01FFDB3C505019C
S1133F286FF09FFC13071700130303083306D6002A
S1133F386FF0DFF3E39808F86FF05FFB0324C10028
S1133F48832481000329410083290100130101010D
S1133F58678000006780000037860000930505002D
S1133F689307100013070001930680051306865F64
S1133F78130540016FF09FE593050000138501C404
S1133F886F005015130101FE232C8100232A910090
S1133F982328210123263101232E1100930405002F
S1133FA893890500130400FF130990011385040085
S1133FB8EFF05FE113050400E780090013850400AE
S1133FC813041400EFF05FFB131404011305F0004D
S1133FD813540441EF00501AE31A24FD0324810109
S1133FE88320C10183244101032901018329C100DC
S1133FF813050019130101026F001018B7450000DA
S1134008938505F66FF01FF8130101FF23261100AD
S11340182324810013040500EF00007A130504002B
S1134028EFF09FF513050400032481008320C100E9
S1134038130101016FF09FFC130101FE232E1100EF
S11340482326B100EF0090128325C1008320C1010B
S11340583375B5003305B540133515001301010256
S113406867800000130101FF232481002326110027
S11340788347250013040500A301F500EF00100F82
S11340882301A4008320C10003248100130101013A
S11340986780000083473500B3F7F500639A07008B
S11340A80345250033F5A5003335A00067800000DB
S11340B81305000067800000130101FFB797000093
S11340C82324810023261100938707C313040500C2
S11340D82320F5002322050013058500EFF0CFBC4B
S11340E8B78700009387075F2320F4009307100025
S11340F823280400231AF400230BF400A30B040060
S11341088320C1000324810013010101678000009A
S11341181305F007634AB51E1305F0036346C51E6D
S1134128130101FA232C81041305080013840500E4
S11341389305500023282105232631052322510500
S113414823206105232A9103232E1104232A910491
S113415823244105232E7103232C81032328A1033F
S11341682326B103930C0800138B0700930A070056
S11341789389060013090600EF10500933058500DA
S11341886356A01493973C00B38727016350F01437
S11341989305500013850900939C0C01EF10100738
S11341A893DC0C01B787000033848C0033862C0120
S11341B89387876A1314040113170601338DA70024
S11341C813540401930D00001308500013570701FA
S11341D813036000130D1D008346FDFF63940D0156
S11341E893060000B30894419398080193D80801F2
S11341F893040700130A800093F71600930B0B002F
S113420863840700938B0A0063940B0063065B09BD
S1134218338C9441131C0C01135C0C0113890800A2
S1134228630C89069317090193D7074193090C0076
S1134238638C3405939509011385070013860B00D5
S113424893D5054193891900232E6100232CE1009D
S1134258232A01012328D100232611012324F10054
S113426893990901EFF08FB193D90901832781004C
S11342788328C10083260101032841010327810102
S11342880323C1016FF0DFFA130919001319090197
S1134298135909016FF0DFF8130AFAFFB384940184
S11342A893940401137AFA0F93D6160093D4040155
S11342B8E3140AF4938D1D0033848C001314040151
S11342C893FDFD0F13540401E3966DF08320C1059B
S11342D80324810583244105032901058329C10495
S11342E8032A8104832A4104032B0104832BC10379
S11342F8032C8103832C4103032D0103832DC10265
S1134308130101066780000067800000130101FFA4
S11343182324810023261100232291002320210134
S11343289307A00013040500639CF5028347650105
S1134338035725012318050093973700B387E7002F
S11343482319F5008320C10003248100832441003C
S113435803290100130510001301010167800000FF
S11343689307D000E380F5FE834755019386050043
S11343780348650103474501031625018315050113
S1134388EFF01FD903496401930560001305090080
S1134398EF10C0678354040183477401B304950084
S11343A89394040193D4044123189400E38C07F8EC
S11343B89305A0FF13050900EF10406513050508D0
S11343C8E35295F8832704009305A000130504001D
S11343D883A70700E78007006FF0DFF62318B5000E
S11343E82319C50067800000230AB5006780000010
S11343F8A30AB5006780000067800000832700F1E6
S1134408370780E01307F7FFB3F7E7002328F0F036
S11344189306450023A4D18A8356250023A6A18A9E
S113442893D64600835705001387818C638606025A
S11344382310D700032700F193977701B706801F4D
S1134448B3F7D700B3E7E7002328F0F01307100009
S1134458238FE18A67800000930610006FF05FFDE8
S11344689387818B2390A700930600041385818B7F
S11344782391B7002392D7006FF05FF81387818CDC
S1134488835707009386818C6394070A03C7E18BDB
S11344981386E18B6308070A9385818A83A705003D
S11344A81387818A1385270083D7070023A0A500D3
S11344B893050008639AB70083A7C18A93852700E8
S11344C883D707002320B700930500046396B70039
S11344D823000600678000000326070093052600D2
S11344E82320B70003570600135747006300070249
S11344F82390E60063900702832700F1370780E0E2
S11345081307F7FFB3F7E7006F0000021307100063
S11345186FF01FFE032700F193977701B706801FFA
S1134528B3F7D700B3E7E7002328F0F06F00800162
S11345389387F7FF9397070193D707012310F70091
S1134548E38C07FA67800000930600F183A706004E
S1134558370780E01307F7FFB3F7E70023A0F60057
S1134568238F018A678000009306450023A8D18A17
S11345788356250023AAA18A835705002395D18C45
S1134588130700F1832607003706FCFF1306F63FDE
S1134598B3F6C6002320D700832607003706040095
S11345A8130606C09397A700B3F7C7003706080099
S11345B8B3E6C600B3E7D7002320F7008327070034
S11345C8B706F8FF9386F6FFB3F7D7002320F70062
S11345D8130710002383E18C678000009387018C04
S11345E82390A700930600041385018C2391B70038
S11345F82392D7006FF05FF71386A18C83570600C8
S11346089386A18C6398070C03C7618C1386618C0D
S11346186300070C9385018B83A705001387018B1F
S11346281385270083D7070023A0A5009305000856
S1134638639AB70083A7418B9385270083D7070024
S11346482320B700930500046396B70023000600EF
S11346586780000003260700930526002320B7007F
S1134668035706002390E6003707FCFF1307F73FBC
S1134678639E0700832700F133F7E7002328E0F05F
S1134688832700F1370708006F00C002832600F172
S11346989397A70033F7E6002328E0F0032700F1F7
S11346A8B7060400938606C0B3F7D700B706080018
S11346B83367D700B3E7E7002328F0F0832700F136
S11346C83707F8FF1307F7FFB3F7E7002328F0F0DD
S11346D8678000009387F7FF9397070193D7070133
S11346E82310F600E39607FE832700F13707FCFF43
S11346F81307F73FB3F7E7002328F0F06FF05FF8EC
S1134708930700F103A70700B706FCFF9386F63F5B
S11347183377D70023A0E70003A70700B7060800EC
S11347283367D70023A0E70003A70700B706F8FFFD
S11347389386F6FF3377D70023A0E7002383018C01
S113474867800000130101FF23248100130400F192
S11347588327040037077C201307F73F232611001B
S1134768B3F7E7002320F400832704003707080081
S113477893051000B3E7E7002320F400832704001F
S11347883707F8FF1307F7FFB3F7E7002320F40010
S11347981305D000EF00407083270400370700801A
S11347A88320C100B3E7E7002320F4000324810039
S11347B813010101678000006FF0DFF8832700F11F
S11347C8370700401307F7FFB3F7E7002328F0F093
S11347D8832700F137070080B3E7E7002328F0F0C8
S11347E8832700F193F717C02328F0F0630C050022
S11347F8832700F1131515001375E53F3365F5009C
S11348082328A0F0832700F093F70704E39C07FE0E
S1134818032500F0135575001375F50F6780000024
S1134828832700F1370700401307F7FFB3F7E700C2
S11348382328F0F0832700F193F717C02328F0F01A
S1134848630C0500832700F1131515001375E53F64
S11348583365F5002328A0F0832700F093D7770069
S113486893F7F70F6386F506832700F13707FCFFF4
S11348781307F73FB3F7E7002328F0F0638A05002E
S1134888832700F19395A500B3E5F5002328B0F03C
S1134898832700F137070020B3E7E7002328F0F067
S11348A8832700F093F70704E39C07FE832700F1AE
S11348B837070040B3E7E7002328F0F0832700F127
S11348C8370700E01307F7FFB3F7E7002328F0F0F2
S11348D867800000832700F1370740003706FCFF94
S11348E8B3E7E700B706E0FF2328F0F09308054094
S11348F81306F63F9386F6FF37082000032700F1D6
S11349083377C7002328E0F083470500638A07004C
S1134918032700F19397A700B3E7E7002328F0F0F3
S11349286384050023000500032700F1130515001F
S11349383377D7002328E0F0032700F13367070112
S11349482328E0F0E31C15FB032700F1B706A0FFBA
S11349589386F6FF3377D7002328E0F0832700F106
S1134968B3E707012328F0F067800000032500F06F
S11349781375F503678000006F00004F3303E500EB
S113498863566034130101FA23263105232E1104DA
S113499893890600232C8104232A910423282105C2
S11349A8232441052322510523206105232E710365
S11349B8232C8103232A91032328A1032326B1034B
S11349C89306F00763C6A62CB386F5006352D02C71
S11349D89306F00363CEB62A630C062A130D080067
S11349E813D8F541137878003308B80013583840C1
S11349F89318880193FC750093D8884163DA0500FD
S1134A0863880C001308F8FF9318880193D8884129
S1134A18130C0000635C05009356F54133CCA600E3
S1134A28330CDC40131C0C01135C0C019376FC0F53
S1134A389305F0073309D74063D86500130900F8D4
S1134A483309A9403309D9409306F0FF1379F90FC4
S1134A58930D000063D6D80093CDF8FF93FDFD0FA6
S1134A6893FB7700B33B700193D73700B38BFB00FC
S1134A7833881B019307800013FBF80F63D80701E1
S1134A88930B8000B38B6B4193FBFB0FB3846D01D5
S1134A989394840193D48441139474003305AC0033
S1134AA83305A40013140501130A100093073000FA
S1134AB813540401331A9A01930A10006314FD0075
S1134AC8930A2000B305274113850A002328C1004F
S1134AD82326E100EF0090730327C1009377F50FB5
S1134AE813850D00930507002324F100EF001072CD
S1134AF83305850193850A00EF00507103260101EF
S1134B081315050113550501330CA6006394090018
S1134B189309060033055501131A0A011305F5FF15
S1134B28135A0A019305F00FB389A90013050A0063
S1134B38EF00D06D1345F5FF9317050193D70701CF
S1134B48B38B6B012328F10093978B0193D787418B
S1134B5893850A0013050900232CF100EF00106B5C
S1134B6883278100B307F5002324F100938701C448
S1134B782326F10083278101638CF410B30D2401EB
S1134B8893970D0193D70701232AF100138B09008A
S1134B98930D0C00930B0400832741016386FB0CDF
S1134BA883C50D0013050A00EF005066931605012E
S1134BB89307200093D6060103250101630EFD0027
S1134BC89307B00F6310FD0813C5F6FF131505010D
S1134BD8135505019306000063CE04008327C10022
S1134BE8B385FB0003C705003377A7003367D700F5
S1134BF82380E500638C0C029307600063C8970266
S1134C0813870B088327C1001317070113570701DC
S1134C183307F7008345070013558500B3F5A5004E
S1134C2813D5860033E5A5002300A70093871B004E
S1134C38939B070193DB0B01330B5B01B38D5D0180
S1134C486FF09FF583450B0013050A00232ED1004E
S1134C58EF00D05B1345F5FF131505011355050146
S1134C688326C1016FF05FF78327810093841400C2
S1134C7813040408939484011314040193D4844101
S1134C88330CFC00B389F900135404016FF09FEE50
S1134C988320C105032481058324410503290105D3
S1134CA88329C104032A8104832A4104032B0104B0
S1134CB8832BC103032C8103832C4103032D01039C
S1134CC8832DC1021301010667800000678000007C
S1134CD863060610130101FC232C8102232A910286
S1134CE82326310323206103232E7101232C810100
S1134CF8232E1102232821032324410323225103B1
S1134D08130B0500938B0500138C0600930407000E
S1134D1813040800834A0600034A16009309260070
S1134D28639406006382070413777A003337E0003C
S1134D3813553A003305A70093850A002326F1008A
S1134D48EF00D04C13073000130905008327C10076
S1134D58631AE406131915009305090013050C00DA
S1134D68EF00D04AB389A9009307F00F6316F40043
S1134D7813B4140013041400130804000324810357
S1134D888320C10303290103032C810193070A002B
S1134D9813870A00032A8102832A410293860400A6
S1134DA813860900832441038329C10293850B00D8
S1134DB813050B00832BC101032B0102130101040A
S1134DC86FF0DFBBE38A04F8930505001385070039
S1134DD8EF00D043B384A4006FF01FF8678000008D
S1134DE89308070013081000138706009386080029
S1134DF86FF01FEE1308200093070000130700004C
S1134E086FF01FED732610C003A7018D9387018DE2
S1134E18637AE6001387C18C8326070093861600FD
S1134E282320D70023A0C70067800000130101FFD7
S1134E3823261100EFF01FFD03A5018D83A5C18C66
S1134E481306803E93060000EF00D03E37E6F505D2
S1134E581306061093060000EF0050388320C100A3
S1134E681301010167800000F32710C03787010090
S1134E781306F0FF1307076A1305F5FF6314C5004B
S1134E8867800000B387E700F32610C0B386D740D5
S1134E98E34CD0FE6FF05FFE83A7C189637CF50AFB
S1134EA8B7970000938787BA131515003305F500E3
S1134EB88347050037970000130787D293F77700D5
S1134EC893972700B387E70003A707009307008099
S1134ED86312F708930710006382F506638C0502D2
S1134EE8930620006398D506034605008325408071
S1134EF813563600B397C70093C6F7FFB3F6B60048
S1134F082322D08083260700B3E7D7002320F700A5
S1134F186780000003460500832640801356360048
S1134F28B397C70093C7F7FFB3F6F6002322D080E0
S1134F3883260700B3F7D7006FF05FFD83470500AA
S1134F480327408093D73700B395F500B3E5E50010
S1134F582322B08067800000130101FE232C810006
S1134F68232A91002328210123263101232E11000D
S1134F781309050013840500B389C50093040000D0
S1134F886302340383270900130414008345F4FFE0
S1134F9883A7070013050900E7800700B384A4006A
S1134FA86FF01FFE8320C1010324810113850400CF
S1134FB803290101832441018329C100130101024A
S1134FC867800000832705001386050003A34700B4
S1134FD88347060063860700130616006FF05FFF19
S1134FE83306B64067000300638405006FF09FFD35
S1134FF813050000678000006FF01FFF6F000000BA
S113500823260080232A00809307F0FF2324F080BE
S11350182328F08067800000B706008093C2F6FF5B
S1135028B3F755009385070067800000B797000021
S113503803A687D383A6C7D3130101FF2326110030
S113504897120000E78082B88320C1001301010190
S11350589702000067808200130101FD232E3101AD
S1135068B7990000232861012326710103AB09D4F1
S113507883AB49D42320210313060B00379900007E
S113508893860B00232611022324810223229102F2
S1135098232C4101232A5101232481019702000072
S11350A8E7804246032689D48326C9D4130405001D
S11350B89384050097120000E7800236138A0900DA
S11350C8930A09006342050213050400938504004A
S11350D813060B0093860B0097320000E780428387
S11350E81304050093840500379C000003260CD59F
S11350F883264CD5130504009385040097120000F9
S1135108E780C23A6352050203260AD483264AD4A6
S1135118130504009385040097120000E78002AB8E
S11351281304050093840500B797000003A687D3EA
S113513883A6C7D3130504009385040097120000BF
S1135148E780822D6342050203A58AD483A5CAD4C5
S1135158130604009386040097220000E780427B2C
S11351681304050093840500B790000003A680D5B6
S113517883A6C0D513050400938504009712000084
S1135188E780C2326352050203250CD583254CD52A
S1135198130604009386040097220000E7804277F0
S11351A81304050093840500130504009385040083
S11351B8130604009386040097220000E780C20EB9
S11351C8B7920000130B0500938B0500138982C363
S11351D893090000130A0000930A0000130CA000AE
S11351E81393F901130504009385040003260900A9
S11351F8832649006344030297220000E780C20A19
S1135208130605009386050013050A0093850A0012
S113521897120000E780829B6F00400297220000EB
S1135228E7808208130605009386050013050A0023
S113523893850A0097220000E780826D130A05000F
S1135248938A0500130504009385040013060B00D4
S113525893860B0097220000E780020593891900C2
S1135268130405009384050013098900E39A89F758
S11352788320C10213050A0093850A0003248102CE
S113528883244102032901028329C101032A8101DC
S1135298832A4101032B0101832BC100032C8100C4
S11352A813010103678000003707F07F130101FF32
S11352B8B3F2E50023248100232291002326110060
S11352C8930405001384050013060500938705005D
S11352D86392E2029386050097220000E780C2FCED
S11352E8138604009306040097120000E780028ED8
S11352F86F00C01E930605006346B004B700008023
S113530813C3F0FFB3F3650033E6A300930E05005F
S1135318138805006308061C130E00006388050241
S1135328130605009386050097220000E780425E75
S1135338130605009386050097120000E780022EE5
S11353486F00C01913DE454163160E04639A070003
S113535893D7B600130EBEFE939656016FF01FFF47
S1135368130300009395B70063C8050093971700CB
S1135378130313006FF01FFF13080002B3086840FB
S1135388B3DE160133056E40130E1500B3E7FE00B5
S1135398B3966600B70F1000130F1EC09384FFFF67
S11353A833F497001317FF013363F401635A0700BA
S11353B893D0F601931213003383120093961600C8
S11353C89313130093D5F601B387B30013561F4004
S11353D8939616009308600137082000130500000F
S11353E893030000338E030163C8C701B3030E019E
S11353F8B387C74133050501939E17009388F8FFC7
S113540893D7F601B387FE00939616001358180035
S1135418E39A08FC3708008013030002130700000E
S113542893040000130F0800B38F040163C6F3004C
S11354386390F30463ECF603B3840F0193800300D1
S113544863D80F0033F4E40193321400B38053009B
S1135458B3837740B3B5F601B387B340B386F64157
S113546833070701938300006F00800093870300CC
S113547893DEF601139E17001303F3FFB307DE014F
S11354889396160013581800E31003FAB3E8D700EC
S113549863800802130FF0FF6318E7011305150072
S11354A8130700006F00C000937F17003387EF00D5
S11354B8935415403704E03F9310F501B3828400F8
S11354C89353170063D60000B7050080B3E3B30015
S11354D81316460113850300B385C200930E050015
S11354E8138805008320C10013850E009305080066
S11354F80324810083244100130101016780000013
S1135508370800809348F8FFB3F81601130101FF28
S1135518B3E7C8002326110013030600938E060080
S11355286388070233F805013707F07FB342B800F0
S11355389300F7FF9303050063CC5000330EC0407B
S1135548336FCE00935FFF01B3E71F016370F70267
S113555897220000E78042D51306050093860500CC
S113556897120000E780820B6F000027130E0600D5
S11355781306050063C8580063C01227636E6524C8
S1135588630C6518370510009306F5FF63CC5602C3
S1135598639E0200938F03001305D0BE6358F00383
S11355A81305F5FF939F1F006FF05FFF1397B20079
S11355B8130520C0635CE0001305F5FF13171700FB
S11355C86FF05FFF93D54241138515C063CC160372
S11355D8639E0800130703009305D0BE6358E002D6
S11355E89385F5FF131717006FF05FFF139FB8003B
S11355F8930520C0131F1F009385F5FFE34CE0FFBC
S11356086F00C00093D04841938510C0930F20C009
S1135618634CF501B7031000938FF3FFB3F7F2015E
S1135628B3E777006F0080033386AF409307F00138
S113563863CEC7009300E5413397C20033DF1300FC
S1135648B367E7013396C3006F004001930220BE9D
S1135658B386A240B397D30013060000930220C078
S113566863CC5500370310009303F3FFB3FF7E00A8
S1135678B3E86F006F008003B38EB240130EF001DD
S1135688634EDE019380E5413397D801335F1300FD
S1135698B368E701331ED3016F004001930820BEAD
S11356A8B386B840B318D300130E00003305B540D1
S11356B8B38E1741B332C601B3865E40630E05024A
S11356C863DA060093901700135FF601B387E001CD
S11356D86F00C0013306C641B3EEC600638E0E02E6
S11356E8939216009356F601B387D2001316160048
S11356F81305F5FF6FF0DFFB63C606003306C641EA
S11357089387060033E5C70063080500370E1000C9
S11357181303FEFF6F0040021358F8013796000088
S1135728930586C893173800338EF50003250E00B9
S113573883254E006F00400A634EF300935FF60121
S113574893931700B387F301131616009385F5FF97
S11357586FF09FFE930820C063C21503B7081000BA
S1135768B38017411387F53F33EF000193154701C1
S113577813050600B365BF006F000006B380B84088
S113578813074001634E17009386E541B352160090
S11357983395D70033635500B3DE17406F00000319
S11357A8130FF001634C1F00938FE541B3531600A8
S11357B8B397F70133E377006F000001130620BEA7
S11357C8B305B64033D3B740930E080033E80E014F
S11357D813050300930508008320C1001301010188
S11357E8678000009317F60163DA070063D40500A5
S11357F8B305B040635405003305A0403333B0000B
S113580863FAA5006358B0009395150013131300A9
S11358186FF01FFF13070000630E03006366B500F3
S11358283305B540336767001353130093D5150048
S11358386FF09FFE9312E60163C40200130507008C
S11358486780000093060000635605003305A040F6
S11358589306100063D60500B305B04093C616003E
S11358683337B00063FAA5006358B0009395150068
S1135878131717006FF01FFF93070000630E07004C
S11358886366B5003305B540B3E7E700135717005F
S113589893D515006FF09FFE1385070063840600F7
S11358A83305F040678000001306300097020000BB
S11358B8678082F313060000970200006780C2F233
S11358C81306200097020000678002F23368D600AE
S11358D89317F7013338000193020000930E000078
S11358E863D2070663DC06003306C0403333C000C6
S11358F8B306D040B3866640930E100063D4050403
S11359083305A040B333A000B305B040B385754058
S113591893CE1E006F000003639ED502637CA6022B
S11359286356D002135FF601935FF801939616004D
S113593813931200B366DF0013161600B3E26F0068
S113594813181800E3EEB6FC6FF01FFD639406000D
S1135958E31A06FC9307000093080000336E58000E
S113596863080E0463E4D5026394B6006360C50259
S1135978330FC540B33FE5013383D54013050F000A
S1135988B305F341B3E70701B3E858009393F20171
S1135998139EF601135818001356160033E8030132
S11359A893D212003366CE0093D616006FF01FFB15
S11359B89312E70163C20202638C0E003305F040C0
S11359C83336A000B3081041B385C840678000008F
S11359D813850700938508006780000013070000FB
S11359E8970200006780C2EE93070000638EC70029
S11359F83387F50083460700B302F5009387170041
S1135A082380D2006FF09FFE678000009307000098
S1135A18638E05001397F50163540700B387A70045
S1135A2893D51500131515006FF09FFE1385070015
S1135A3867800000130805009303000013050000A5
S1135A483367D600630207049312F60163DC02008D
S1135A5833030501B338A300B387B3001305030068
S1135A68B383F800139EF601935EF80113561600EB
S1135A78139F15003366CE0093D61600B3E5EE01E6
S1135A88131818006FF0DFFB93850300678000008C
S1135A98130101FEB7970000232A910083A4C7E0ED
S1135AA823282101232E1100232C810023263101D0
S1135AB81389C7E063960400B7E45B0793844492B0
S1135AC8B7F901009385D9311385040097020000C2
S1135AD8E780C2DDB74500009385751A9702000078
S1135AE8E78002F3130405009385D9311385040074
S1135AF897020000E78042D5B7120000938542B1AF
S1135B0897020000E780C2F03305A44063580500FB
S1135B18B700008013C3F0FF330565008320C1017B
S1135B282320A900032481018324410103290101BD
S1135B388329C10013010102678000008325450001
S1135B48130101FE232A910023282101232E110089
S1135B58232C81009304050003290500638E0500A6
S1135B68138505002326B10097020000E780827799
S1135B78130405006F008001130509002326B100F2
S1135B8897020000E7800276130405028325C1000A
S1135B9813050900130654FF97020000E7800271F9
S1135BA88320C10123A0A4001305C0003305854048
S1135BB823A2B400032481018324410103290101A0
S1135BC81301010267800000130101FB37070080FD
S1135BD8232611049340F7FFB3F315009307F5FF49
S1135BE8232C410333B8A7009388F3FF370AF07FC7
S1135BF8232E3103130EFAFFB30918012324810459
S1135C082322910423202105232A510323286103F5
S1135C182326710323248103130305001384050039
S1135C28930206009384060033F91600636E3E035C
S1135C386396C901930AE0FF63E8FA02138BF2FF43
S1135C48B33B5B00130CF9FF370FF07FB38E8B0166
S1135C58930FFFFF63EADF036394FE0B1307E0FF70
S1135C68636467036F00C00963687A00B700F07F54
S1135C78639C1300630A0300370F080093030300AF
S1135C88B366E4016F00402AB707F07F63E6270193
S1135C98631CF900638A0200370408009383020036
S1135CA8B3E684006F004028631203026390F30292
S1135CB83343940063960200B702008063085332AA
S1135CC813060500938605006F00003363960200EF
S1135CD83708F07F63020933B3687300B3E922011C
S1135CE8639A0800639A0930B3735300B376940037
S1135CF86F0080231306050093860500638E092E22
S1135D0863E6230163107902637E530013050300DD
S1135D18930504001383020013840400930205000E
S1135D2893840500B70310001389F3FF1356440145
S1135D3893D64401337E2401B3FA24019379F67F80
S1135D4813FAF67F23286100232AC101232C51006A
S1135D58232E5101639A09001305010197020000DB
S1135D68E78002DE93090500631A0A00130581011E
S1135D7897020000E780C2DC130A0500832F410163
S1135D888328C101832E010103288101370F1000E4
S1135D9833E7EF0133E5E801B3CB8400370B008028
S1135DA893D0DE01931737009355D80113133500A8
S1135DB8338A49413379640133FC6B0113943E00FF
S1135DC8B3EBF000B3E46500931A380063180A00D3
S1135DD8232C5101232E91006F0000069302F00337
S1135DE863C44205930300043386434113850A00C0
S1135DF89385040097020000E780424B336EB50098
S1135E0813060A0013850A0093850400333BC00176
S1135E1897120000E780023DB36EAB00232CD1013A
S1135E28232EB1006F0040011306100093060000F2
S1135E38232CC100232ED100032F8101832FC101FC
S1135E4863060C08330CE441B33084013387FB4107
S1135E58B30B1740B3677C0123288101232A7101FE
S1135E6813060000930600006388071837048000AF
S1135E781308F4FF6360780B638C0B0013850B0025
S1135E882326710197020000E780C2456F00800154
S1135E9813050C002326710197020000E780824451
S1135EA8130505028325C100930485FF13860400A6
S1135EB813050C0097020000E780423F2328A10045
S1135EC8232AB100B38999406F00C004B308E401E0
S1135ED833B58800B385FB013303B500931A730007
S1135EE863C80A0023281101232A61006F00800275
S1135EF8131AF30193D2180033665A0093F3180067
S1135F0893561300336E76002328C101232AD10047
S1135F1893891900130BE07F635C3B01B70EF07F94
S1135F2893030000B366D901138603006F00C00C05
S1135F3863483005032C0101832B41011386F903BF
S1135F4813050C0093850B0097020000E7800236C6
S1135F58130F1000B36EB50033063F4113050C0050
S1135F6893850B003334D00197120000E780822711
S1135F78B369A40023283101232AB100930900003E
S1135F8883204101832F01011395490193979000C0
S1135F9893D8C7001397D00193D43F0033691901EC
S1135FA813F87F0093054000B3639700B366A90014
S1135FB863DE0501138E1300333B7E00B30BDB0055
S1135FC893030E0093860B006FF01FF6E31EB8F4DC
S1135FD813F31300B38A630033BA7A003306DA0082
S1135FE893830A00930606006FF01FF437940000A9
S1135FF8032604D6832644D68320C1041305060049
S1136008938506000324810483244104032901049D
S11360188329C103032A8103832A4103032B010330
S1136028832BC102032C8102130101056780000040
S1136038130101FD37070080232611029340F7FF5F
S1136048B707807FB37615009388F6FF1386E7FFBA
S1136058232021032328610123248102232291027E
S1136068232E3101232C4101232A510123267101B6
S113607813090500138B0500B3F2150013880700F4
S1136088636816011383F2FF636C66006F00C00532
S113609863F8D700370E4000B365C5016F00C01D13
S11360A8B703807F63785800370A4000B3654B0113
S11360B86F00801C639C760033496901370B0080AC
S11360C86308691B930505006F00001B6386721A39
